
Sambus.elf:     file format elf32-littlearm

Sections:
Idx Name          Size      VMA       LMA       File off  Algn
  0 .isr_vector   00000188  08000000  08000000  00010000  2**0
                  CONTENTS, ALLOC, LOAD, READONLY, DATA
  1 .text         00004440  08000188  08000188  00010188  2**2
                  CONTENTS, ALLOC, LOAD, READONLY, CODE
  2 .rodata       00000084  080045c8  080045c8  000145c8  2**2
                  CONTENTS, ALLOC, LOAD, READONLY, DATA
  3 .ARM.extab    00000000  0800464c  0800464c  0002000c  2**0
                  CONTENTS
  4 .ARM          00000000  0800464c  0800464c  0002000c  2**0
                  CONTENTS
  5 .preinit_array 00000000  0800464c  0800464c  0002000c  2**0
                  CONTENTS, ALLOC, LOAD, DATA
  6 .init_array   00000004  0800464c  0800464c  0001464c  2**2
                  CONTENTS, ALLOC, LOAD, DATA
  7 .fini_array   00000004  08004650  08004650  00014650  2**2
                  CONTENTS, ALLOC, LOAD, DATA
  8 .data         0000000c  20000000  08004654  00020000  2**2
                  CONTENTS, ALLOC, LOAD, DATA
  9 .ccmram       00000000  10000000  10000000  0002000c  2**0
                  CONTENTS
 10 .bss          000004f0  2000000c  2000000c  0002000c  2**2
                  ALLOC
 11 ._user_heap_stack 00000604  200004fc  200004fc  0002000c  2**0
                  ALLOC
 12 .ARM.attributes 00000030  00000000  00000000  0002000c  2**0
                  CONTENTS, READONLY
 13 .debug_info   0001667d  00000000  00000000  0002003c  2**0
                  CONTENTS, READONLY, DEBUGGING, OCTETS
 14 .debug_abbrev 0000303b  00000000  00000000  000366b9  2**0
                  CONTENTS, READONLY, DEBUGGING, OCTETS
 15 .debug_aranges 00000f78  00000000  00000000  000396f8  2**3
                  CONTENTS, READONLY, DEBUGGING, OCTETS
 16 .debug_ranges 00000e40  00000000  00000000  0003a670  2**3
                  CONTENTS, READONLY, DEBUGGING, OCTETS
 17 .debug_macro  000203f0  00000000  00000000  0003b4b0  2**0
                  CONTENTS, READONLY, DEBUGGING, OCTETS
 18 .debug_line   00015dfd  00000000  00000000  0005b8a0  2**0
                  CONTENTS, READONLY, DEBUGGING, OCTETS
 19 .debug_str    000b177d  00000000  00000000  0007169d  2**0
                  CONTENTS, READONLY, DEBUGGING, OCTETS
 20 .comment      00000053  00000000  00000000  00122e1a  2**0
                  CONTENTS, READONLY
 21 .debug_frame  00003f70  00000000  00000000  00122e70  2**2
                  CONTENTS, READONLY, DEBUGGING, OCTETS

Disassembly of section .text:

08000188 <__do_global_dtors_aux>:
 8000188:	b510      	push	{r4, lr}
 800018a:	4c05      	ldr	r4, [pc, #20]	; (80001a0 <__do_global_dtors_aux+0x18>)
 800018c:	7823      	ldrb	r3, [r4, #0]
 800018e:	b933      	cbnz	r3, 800019e <__do_global_dtors_aux+0x16>
 8000190:	4b04      	ldr	r3, [pc, #16]	; (80001a4 <__do_global_dtors_aux+0x1c>)
 8000192:	b113      	cbz	r3, 800019a <__do_global_dtors_aux+0x12>
 8000194:	4804      	ldr	r0, [pc, #16]	; (80001a8 <__do_global_dtors_aux+0x20>)
 8000196:	f3af 8000 	nop.w
 800019a:	2301      	movs	r3, #1
 800019c:	7023      	strb	r3, [r4, #0]
 800019e:	bd10      	pop	{r4, pc}
 80001a0:	2000000c 	.word	0x2000000c
 80001a4:	00000000 	.word	0x00000000
 80001a8:	080045b0 	.word	0x080045b0

080001ac <frame_dummy>:
 80001ac:	b508      	push	{r3, lr}
 80001ae:	4b03      	ldr	r3, [pc, #12]	; (80001bc <frame_dummy+0x10>)
 80001b0:	b11b      	cbz	r3, 80001ba <frame_dummy+0xe>
 80001b2:	4903      	ldr	r1, [pc, #12]	; (80001c0 <frame_dummy+0x14>)
 80001b4:	4803      	ldr	r0, [pc, #12]	; (80001c4 <frame_dummy+0x18>)
 80001b6:	f3af 8000 	nop.w
 80001ba:	bd08      	pop	{r3, pc}
 80001bc:	00000000 	.word	0x00000000
 80001c0:	20000010 	.word	0x20000010
 80001c4:	080045b0 	.word	0x080045b0

080001c8 <MX_USART1_UART_Init>:




void MX_USART1_UART_Init(void)
{
 80001c8:	b580      	push	{r7, lr}
 80001ca:	af00      	add	r7, sp, #0
  /* USER CODE END USART1_Init 0 */

  /* USER CODE BEGIN USART1_Init 1 */

  /* USER CODE END USART1_Init 1 */
  huart1.Instance = USART1;
 80001cc:	4b14      	ldr	r3, [pc, #80]	; (8000220 <MX_USART1_UART_Init+0x58>)
 80001ce:	4a15      	ldr	r2, [pc, #84]	; (8000224 <MX_USART1_UART_Init+0x5c>)
 80001d0:	601a      	str	r2, [r3, #0]
  huart1.Init.BaudRate = 38400;
 80001d2:	4b13      	ldr	r3, [pc, #76]	; (8000220 <MX_USART1_UART_Init+0x58>)
 80001d4:	f44f 4216 	mov.w	r2, #38400	; 0x9600
 80001d8:	605a      	str	r2, [r3, #4]
  huart1.Init.WordLength = UART_WORDLENGTH_8B;
 80001da:	4b11      	ldr	r3, [pc, #68]	; (8000220 <MX_USART1_UART_Init+0x58>)
 80001dc:	2200      	movs	r2, #0
 80001de:	609a      	str	r2, [r3, #8]
  huart1.Init.StopBits = UART_STOPBITS_1;
 80001e0:	4b0f      	ldr	r3, [pc, #60]	; (8000220 <MX_USART1_UART_Init+0x58>)
 80001e2:	2200      	movs	r2, #0
 80001e4:	60da      	str	r2, [r3, #12]
  huart1.Init.Parity = UART_PARITY_NONE;
 80001e6:	4b0e      	ldr	r3, [pc, #56]	; (8000220 <MX_USART1_UART_Init+0x58>)
 80001e8:	2200      	movs	r2, #0
 80001ea:	611a      	str	r2, [r3, #16]
  huart1.Init.Mode = UART_MODE_TX_RX;
 80001ec:	4b0c      	ldr	r3, [pc, #48]	; (8000220 <MX_USART1_UART_Init+0x58>)
 80001ee:	220c      	movs	r2, #12
 80001f0:	615a      	str	r2, [r3, #20]
  huart1.Init.HwFlowCtl = UART_HWCONTROL_NONE;
 80001f2:	4b0b      	ldr	r3, [pc, #44]	; (8000220 <MX_USART1_UART_Init+0x58>)
 80001f4:	2200      	movs	r2, #0
 80001f6:	619a      	str	r2, [r3, #24]
  huart1.Init.OverSampling = UART_OVERSAMPLING_16;
 80001f8:	4b09      	ldr	r3, [pc, #36]	; (8000220 <MX_USART1_UART_Init+0x58>)
 80001fa:	2200      	movs	r2, #0
 80001fc:	61da      	str	r2, [r3, #28]
  huart1.Init.OneBitSampling = UART_ONE_BIT_SAMPLE_DISABLE;
 80001fe:	4b08      	ldr	r3, [pc, #32]	; (8000220 <MX_USART1_UART_Init+0x58>)
 8000200:	2200      	movs	r2, #0
 8000202:	621a      	str	r2, [r3, #32]
  huart1.AdvancedInit.AdvFeatureInit = UART_ADVFEATURE_NO_INIT;
 8000204:	4b06      	ldr	r3, [pc, #24]	; (8000220 <MX_USART1_UART_Init+0x58>)
 8000206:	2200      	movs	r2, #0
 8000208:	625a      	str	r2, [r3, #36]	; 0x24
  if (HAL_UART_Init(&huart1) != HAL_OK)
 800020a:	4805      	ldr	r0, [pc, #20]	; (8000220 <MX_USART1_UART_Init+0x58>)
 800020c:	f003 f9eb 	bl	80035e6 <HAL_UART_Init>
 8000210:	4603      	mov	r3, r0
 8000212:	2b00      	cmp	r3, #0
 8000214:	d001      	beq.n	800021a <MX_USART1_UART_Init+0x52>
  {
    Error_Handler();
 8000216:	f000 f9ed 	bl	80005f4 <Error_Handler>
  }
  /* USER CODE BEGIN USART1_Init 2 */

  /* USER CODE END USART1_Init 2 */

}
 800021a:	bf00      	nop
 800021c:	bd80      	pop	{r7, pc}
 800021e:	bf00      	nop
 8000220:	20000028 	.word	0x20000028
 8000224:	40013800 	.word	0x40013800

08000228 <MX_USART2_UART_Init>:
  * @brief USART2 Initialization Function
  * @param None
  * @retval None
  */
void MX_USART2_UART_Init(void)
{
 8000228:	b580      	push	{r7, lr}
 800022a:	b0a2      	sub	sp, #136	; 0x88
 800022c:	af00      	add	r7, sp, #0
  /* USER CODE END USART2_Init 0 */

  /* USER CODE BEGIN USART2_Init 1 */

  /* USER CODE END USART2_Init 1 */
  huart2.Instance = USART2;
 800022e:	4b11      	ldr	r3, [pc, #68]	; (8000274 <MX_USART2_UART_Init+0x4c>)
 8000230:	607b      	str	r3, [r7, #4]
  huart2.Init.BaudRate = 38400;
 8000232:	f44f 4316 	mov.w	r3, #38400	; 0x9600
 8000236:	60bb      	str	r3, [r7, #8]
  huart2.Init.WordLength = UART_WORDLENGTH_8B;
 8000238:	2300      	movs	r3, #0
 800023a:	60fb      	str	r3, [r7, #12]
  huart2.Init.StopBits = UART_STOPBITS_1;
 800023c:	2300      	movs	r3, #0
 800023e:	613b      	str	r3, [r7, #16]
  huart2.Init.Parity = UART_PARITY_NONE;
 8000240:	2300      	movs	r3, #0
 8000242:	617b      	str	r3, [r7, #20]
  huart2.Init.Mode = UART_MODE_TX_RX;
 8000244:	230c      	movs	r3, #12
 8000246:	61bb      	str	r3, [r7, #24]
  huart2.Init.HwFlowCtl = UART_HWCONTROL_NONE;
 8000248:	2300      	movs	r3, #0
 800024a:	61fb      	str	r3, [r7, #28]
  huart2.Init.OverSampling = UART_OVERSAMPLING_16;
 800024c:	2300      	movs	r3, #0
 800024e:	623b      	str	r3, [r7, #32]
  huart2.Init.OneBitSampling = UART_ONE_BIT_SAMPLE_DISABLE;
 8000250:	2300      	movs	r3, #0
 8000252:	627b      	str	r3, [r7, #36]	; 0x24
  huart2.AdvancedInit.AdvFeatureInit = UART_ADVFEATURE_NO_INIT;
 8000254:	2300      	movs	r3, #0
 8000256:	62bb      	str	r3, [r7, #40]	; 0x28
  if (HAL_UART_Init(&huart2) != HAL_OK)
 8000258:	1d3b      	adds	r3, r7, #4
 800025a:	4618      	mov	r0, r3
 800025c:	f003 f9c3 	bl	80035e6 <HAL_UART_Init>
 8000260:	4603      	mov	r3, r0
 8000262:	2b00      	cmp	r3, #0
 8000264:	d001      	beq.n	800026a <MX_USART2_UART_Init+0x42>
  {
    Error_Handler();
 8000266:	f000 f9c5 	bl	80005f4 <Error_Handler>
  }
  /* USER CODE BEGIN USART2_Init 2 */

  /* USER CODE END USART2_Init 2 */

}
 800026a:	bf00      	nop
 800026c:	3788      	adds	r7, #136	; 0x88
 800026e:	46bd      	mov	sp, r7
 8000270:	bd80      	pop	{r7, pc}
 8000272:	bf00      	nop
 8000274:	40004400 	.word	0x40004400

08000278 <main>:
/**
  * @brief  The application entry point.
  * @retval int
  */
int main(void)
{
 8000278:	b580      	push	{r7, lr}
 800027a:	af00      	add	r7, sp, #0
  /* USER CODE END 1 */

  /* MCU Configuration--------------------------------------------------------*/

  /* Reset of all peripherals, Initializes the Flash interface and the Systick. */
  HAL_Init();
 800027c:	f000 fe96 	bl	8000fac <HAL_Init>
  /* USER CODE BEGIN Init */

  /* USER CODE END Init */

  /* Configure the system clock */
  SystemClock_Config();
 8000280:	f000 f812 	bl	80002a8 <SystemClock_Config>
  /* USER CODE BEGIN SysInit */

  /* USER CODE END SysInit */

  /* Initialize all configured peripherals */
  MX_GPIO_Init();
 8000284:	f000 f938 	bl	80004f8 <MX_GPIO_Init>
  MX_I2C1_Init();
 8000288:	f000 f896 	bl	80003b8 <MX_I2C1_Init>
  MX_SPI1_Init();
 800028c:	f000 f8d4 	bl	8000438 <MX_SPI1_Init>
  MX_USB_PCD_Init();
 8000290:	f000 f910 	bl	80004b4 <MX_USB_PCD_Init>
  MX_CRC_Init();
 8000294:	f000 f86e 	bl	8000374 <MX_CRC_Init>
  MX_USART1_UART_Init();
 8000298:	f7ff ff96 	bl	80001c8 <MX_USART1_UART_Init>
  MX_USART2_UART_Init();
 800029c:	f7ff ffc4 	bl	8000228 <MX_USART2_UART_Init>
  /* USER CODE BEGIN 2 */
  start();
 80002a0:	f000 fca6 	bl	8000bf0 <start>
  /* USER CODE END 2 */

  /* Infinite loop */
  /* USER CODE BEGIN WHILE */
  while (1)
 80002a4:	e7fe      	b.n	80002a4 <main+0x2c>
	...

080002a8 <SystemClock_Config>:
/**
  * @brief System Clock Configuration
  * @retval None
  */
void SystemClock_Config(void)
{
 80002a8:	b580      	push	{r7, lr}
 80002aa:	b09e      	sub	sp, #120	; 0x78
 80002ac:	af00      	add	r7, sp, #0
  RCC_OscInitTypeDef RCC_OscInitStruct = {0};
 80002ae:	f107 0350 	add.w	r3, r7, #80	; 0x50
 80002b2:	2228      	movs	r2, #40	; 0x28
 80002b4:	2100      	movs	r1, #0
 80002b6:	4618      	mov	r0, r3
 80002b8:	f004 f972 	bl	80045a0 <memset>
  RCC_ClkInitTypeDef RCC_ClkInitStruct = {0};
 80002bc:	f107 033c 	add.w	r3, r7, #60	; 0x3c
 80002c0:	2200      	movs	r2, #0
 80002c2:	601a      	str	r2, [r3, #0]
 80002c4:	605a      	str	r2, [r3, #4]
 80002c6:	609a      	str	r2, [r3, #8]
 80002c8:	60da      	str	r2, [r3, #12]
 80002ca:	611a      	str	r2, [r3, #16]
  RCC_PeriphCLKInitTypeDef PeriphClkInit = {0};
 80002cc:	463b      	mov	r3, r7
 80002ce:	223c      	movs	r2, #60	; 0x3c
 80002d0:	2100      	movs	r1, #0
 80002d2:	4618      	mov	r0, r3
 80002d4:	f004 f964 	bl	80045a0 <memset>

  /** Initializes the RCC Oscillators according to the specified parameters
  * in the RCC_OscInitTypeDef structure.
  */
  RCC_OscInitStruct.OscillatorType = RCC_OSCILLATORTYPE_HSI|RCC_OSCILLATORTYPE_HSE;
 80002d8:	2303      	movs	r3, #3
 80002da:	653b      	str	r3, [r7, #80]	; 0x50
  RCC_OscInitStruct.HSEState = RCC_HSE_BYPASS;
 80002dc:	f44f 23a0 	mov.w	r3, #327680	; 0x50000
 80002e0:	657b      	str	r3, [r7, #84]	; 0x54
  RCC_OscInitStruct.HSEPredivValue = RCC_HSE_PREDIV_DIV1;
 80002e2:	2300      	movs	r3, #0
 80002e4:	65bb      	str	r3, [r7, #88]	; 0x58
  RCC_OscInitStruct.HSIState = RCC_HSI_ON;
 80002e6:	2301      	movs	r3, #1
 80002e8:	663b      	str	r3, [r7, #96]	; 0x60
  RCC_OscInitStruct.HSICalibrationValue = RCC_HSICALIBRATION_DEFAULT;
 80002ea:	2310      	movs	r3, #16
 80002ec:	667b      	str	r3, [r7, #100]	; 0x64
  RCC_OscInitStruct.PLL.PLLState = RCC_PLL_ON;
 80002ee:	2302      	movs	r3, #2
 80002f0:	66fb      	str	r3, [r7, #108]	; 0x6c
  RCC_OscInitStruct.PLL.PLLSource = RCC_PLLSOURCE_HSE;
 80002f2:	f44f 3380 	mov.w	r3, #65536	; 0x10000
 80002f6:	673b      	str	r3, [r7, #112]	; 0x70
  RCC_OscInitStruct.PLL.PLLMUL = RCC_PLL_MUL6;
 80002f8:	f44f 1380 	mov.w	r3, #1048576	; 0x100000
 80002fc:	677b      	str	r3, [r7, #116]	; 0x74
  if (HAL_RCC_OscConfig(&RCC_OscInitStruct) != HAL_OK)
 80002fe:	f107 0350 	add.w	r3, r7, #80	; 0x50
 8000302:	4618      	mov	r0, r3
 8000304:	f001 fdd6 	bl	8001eb4 <HAL_RCC_OscConfig>
 8000308:	4603      	mov	r3, r0
 800030a:	2b00      	cmp	r3, #0
 800030c:	d001      	beq.n	8000312 <SystemClock_Config+0x6a>
  {
    Error_Handler();
 800030e:	f000 f971 	bl	80005f4 <Error_Handler>
  }
  /** Initializes the CPU, AHB and APB buses clocks
  */
  RCC_ClkInitStruct.ClockType = RCC_CLOCKTYPE_HCLK|RCC_CLOCKTYPE_SYSCLK
 8000312:	230f      	movs	r3, #15
 8000314:	63fb      	str	r3, [r7, #60]	; 0x3c
                              |RCC_CLOCKTYPE_PCLK1|RCC_CLOCKTYPE_PCLK2;
  RCC_ClkInitStruct.SYSCLKSource = RCC_SYSCLKSOURCE_PLLCLK;
 8000316:	2302      	movs	r3, #2
 8000318:	643b      	str	r3, [r7, #64]	; 0x40
  RCC_ClkInitStruct.AHBCLKDivider = RCC_SYSCLK_DIV1;
 800031a:	2300      	movs	r3, #0
 800031c:	647b      	str	r3, [r7, #68]	; 0x44
  RCC_ClkInitStruct.APB1CLKDivider = RCC_HCLK_DIV2;
 800031e:	f44f 6380 	mov.w	r3, #1024	; 0x400
 8000322:	64bb      	str	r3, [r7, #72]	; 0x48
  RCC_ClkInitStruct.APB2CLKDivider = RCC_HCLK_DIV1;
 8000324:	2300      	movs	r3, #0
 8000326:	64fb      	str	r3, [r7, #76]	; 0x4c

  if (HAL_RCC_ClockConfig(&RCC_ClkInitStruct, FLASH_LATENCY_1) != HAL_OK)
 8000328:	f107 033c 	add.w	r3, r7, #60	; 0x3c
 800032c:	2101      	movs	r1, #1
 800032e:	4618      	mov	r0, r3
 8000330:	f002 fcc8 	bl	8002cc4 <HAL_RCC_ClockConfig>
 8000334:	4603      	mov	r3, r0
 8000336:	2b00      	cmp	r3, #0
 8000338:	d001      	beq.n	800033e <SystemClock_Config+0x96>
  {
    Error_Handler();
 800033a:	f000 f95b 	bl	80005f4 <Error_Handler>
  }
  PeriphClkInit.PeriphClockSelection = RCC_PERIPHCLK_USB|RCC_PERIPHCLK_USART1
 800033e:	4b0c      	ldr	r3, [pc, #48]	; (8000370 <SystemClock_Config+0xc8>)
 8000340:	603b      	str	r3, [r7, #0]
                              |RCC_PERIPHCLK_USART2|RCC_PERIPHCLK_I2C1;
  PeriphClkInit.Usart1ClockSelection = RCC_USART1CLKSOURCE_PCLK2;
 8000342:	2300      	movs	r3, #0
 8000344:	60bb      	str	r3, [r7, #8]
  PeriphClkInit.Usart2ClockSelection = RCC_USART2CLKSOURCE_PCLK1;
 8000346:	2300      	movs	r3, #0
 8000348:	60fb      	str	r3, [r7, #12]
  PeriphClkInit.I2c1ClockSelection = RCC_I2C1CLKSOURCE_HSI;
 800034a:	2300      	movs	r3, #0
 800034c:	61fb      	str	r3, [r7, #28]
  PeriphClkInit.USBClockSelection = RCC_USBCLKSOURCE_PLL;
 800034e:	f44f 0380 	mov.w	r3, #4194304	; 0x400000
 8000352:	63bb      	str	r3, [r7, #56]	; 0x38
  if (HAL_RCCEx_PeriphCLKConfig(&PeriphClkInit) != HAL_OK)
 8000354:	463b      	mov	r3, r7
 8000356:	4618      	mov	r0, r3
 8000358:	f002 feea 	bl	8003130 <HAL_RCCEx_PeriphCLKConfig>
 800035c:	4603      	mov	r3, r0
 800035e:	2b00      	cmp	r3, #0
 8000360:	d001      	beq.n	8000366 <SystemClock_Config+0xbe>
  {
    Error_Handler();
 8000362:	f000 f947 	bl	80005f4 <Error_Handler>
  }
}
 8000366:	bf00      	nop
 8000368:	3778      	adds	r7, #120	; 0x78
 800036a:	46bd      	mov	sp, r7
 800036c:	bd80      	pop	{r7, pc}
 800036e:	bf00      	nop
 8000370:	00020023 	.word	0x00020023

08000374 <MX_CRC_Init>:
  * @brief CRC Initialization Function
  * @param None
  * @retval None
  */
static void MX_CRC_Init(void)
{
 8000374:	b580      	push	{r7, lr}
 8000376:	af00      	add	r7, sp, #0
  /* USER CODE END CRC_Init 0 */

  /* USER CODE BEGIN CRC_Init 1 */

  /* USER CODE END CRC_Init 1 */
  hcrc.Instance = CRC;
 8000378:	4b0d      	ldr	r3, [pc, #52]	; (80003b0 <MX_CRC_Init+0x3c>)
 800037a:	4a0e      	ldr	r2, [pc, #56]	; (80003b4 <MX_CRC_Init+0x40>)
 800037c:	601a      	str	r2, [r3, #0]
  hcrc.Init.DefaultPolynomialUse = DEFAULT_POLYNOMIAL_ENABLE;
 800037e:	4b0c      	ldr	r3, [pc, #48]	; (80003b0 <MX_CRC_Init+0x3c>)
 8000380:	2200      	movs	r2, #0
 8000382:	711a      	strb	r2, [r3, #4]
  hcrc.Init.DefaultInitValueUse = DEFAULT_INIT_VALUE_ENABLE;
 8000384:	4b0a      	ldr	r3, [pc, #40]	; (80003b0 <MX_CRC_Init+0x3c>)
 8000386:	2200      	movs	r2, #0
 8000388:	715a      	strb	r2, [r3, #5]
  hcrc.Init.InputDataInversionMode = CRC_INPUTDATA_INVERSION_NONE;
 800038a:	4b09      	ldr	r3, [pc, #36]	; (80003b0 <MX_CRC_Init+0x3c>)
 800038c:	2200      	movs	r2, #0
 800038e:	615a      	str	r2, [r3, #20]
  hcrc.Init.OutputDataInversionMode = CRC_OUTPUTDATA_INVERSION_DISABLE;
 8000390:	4b07      	ldr	r3, [pc, #28]	; (80003b0 <MX_CRC_Init+0x3c>)
 8000392:	2200      	movs	r2, #0
 8000394:	619a      	str	r2, [r3, #24]
  hcrc.InputDataFormat = CRC_INPUTDATA_FORMAT_BYTES;
 8000396:	4b06      	ldr	r3, [pc, #24]	; (80003b0 <MX_CRC_Init+0x3c>)
 8000398:	2201      	movs	r2, #1
 800039a:	621a      	str	r2, [r3, #32]
  if (HAL_CRC_Init(&hcrc) != HAL_OK)
 800039c:	4804      	ldr	r0, [pc, #16]	; (80003b0 <MX_CRC_Init+0x3c>)
 800039e:	f000 ff7d 	bl	800129c <HAL_CRC_Init>
 80003a2:	4603      	mov	r3, r0
 80003a4:	2b00      	cmp	r3, #0
 80003a6:	d001      	beq.n	80003ac <MX_CRC_Init+0x38>
  {
    Error_Handler();
 80003a8:	f000 f924 	bl	80005f4 <Error_Handler>
  }
  /* USER CODE BEGIN CRC_Init 2 */

  /* USER CODE END CRC_Init 2 */

}
 80003ac:	bf00      	nop
 80003ae:	bd80      	pop	{r7, pc}
 80003b0:	20000130 	.word	0x20000130
 80003b4:	40023000 	.word	0x40023000

080003b8 <MX_I2C1_Init>:
  * @brief I2C1 Initialization Function
  * @param None
  * @retval None
  */
static void MX_I2C1_Init(void)
{
 80003b8:	b580      	push	{r7, lr}
 80003ba:	af00      	add	r7, sp, #0
  /* USER CODE END I2C1_Init 0 */

  /* USER CODE BEGIN I2C1_Init 1 */

  /* USER CODE END I2C1_Init 1 */
  hi2c1.Instance = I2C1;
 80003bc:	4b1b      	ldr	r3, [pc, #108]	; (800042c <MX_I2C1_Init+0x74>)
 80003be:	4a1c      	ldr	r2, [pc, #112]	; (8000430 <MX_I2C1_Init+0x78>)
 80003c0:	601a      	str	r2, [r3, #0]
  hi2c1.Init.Timing = 0x2000090E;
 80003c2:	4b1a      	ldr	r3, [pc, #104]	; (800042c <MX_I2C1_Init+0x74>)
 80003c4:	4a1b      	ldr	r2, [pc, #108]	; (8000434 <MX_I2C1_Init+0x7c>)
 80003c6:	605a      	str	r2, [r3, #4]
  hi2c1.Init.OwnAddress1 = 0;
 80003c8:	4b18      	ldr	r3, [pc, #96]	; (800042c <MX_I2C1_Init+0x74>)
 80003ca:	2200      	movs	r2, #0
 80003cc:	609a      	str	r2, [r3, #8]
  hi2c1.Init.AddressingMode = I2C_ADDRESSINGMODE_7BIT;
 80003ce:	4b17      	ldr	r3, [pc, #92]	; (800042c <MX_I2C1_Init+0x74>)
 80003d0:	2201      	movs	r2, #1
 80003d2:	60da      	str	r2, [r3, #12]
  hi2c1.Init.DualAddressMode = I2C_DUALADDRESS_DISABLE;
 80003d4:	4b15      	ldr	r3, [pc, #84]	; (800042c <MX_I2C1_Init+0x74>)
 80003d6:	2200      	movs	r2, #0
 80003d8:	611a      	str	r2, [r3, #16]
  hi2c1.Init.OwnAddress2 = 0;
 80003da:	4b14      	ldr	r3, [pc, #80]	; (800042c <MX_I2C1_Init+0x74>)
 80003dc:	2200      	movs	r2, #0
 80003de:	615a      	str	r2, [r3, #20]
  hi2c1.Init.OwnAddress2Masks = I2C_OA2_NOMASK;
 80003e0:	4b12      	ldr	r3, [pc, #72]	; (800042c <MX_I2C1_Init+0x74>)
 80003e2:	2200      	movs	r2, #0
 80003e4:	619a      	str	r2, [r3, #24]
  hi2c1.Init.GeneralCallMode = I2C_GENERALCALL_DISABLE;
 80003e6:	4b11      	ldr	r3, [pc, #68]	; (800042c <MX_I2C1_Init+0x74>)
 80003e8:	2200      	movs	r2, #0
 80003ea:	61da      	str	r2, [r3, #28]
  hi2c1.Init.NoStretchMode = I2C_NOSTRETCH_DISABLE;
 80003ec:	4b0f      	ldr	r3, [pc, #60]	; (800042c <MX_I2C1_Init+0x74>)
 80003ee:	2200      	movs	r2, #0
 80003f0:	621a      	str	r2, [r3, #32]
  if (HAL_I2C_Init(&hi2c1) != HAL_OK)
 80003f2:	480e      	ldr	r0, [pc, #56]	; (800042c <MX_I2C1_Init+0x74>)
 80003f4:	f001 fb5a 	bl	8001aac <HAL_I2C_Init>
 80003f8:	4603      	mov	r3, r0
 80003fa:	2b00      	cmp	r3, #0
 80003fc:	d001      	beq.n	8000402 <MX_I2C1_Init+0x4a>
  {
    Error_Handler();
 80003fe:	f000 f8f9 	bl	80005f4 <Error_Handler>
  }
  /** Configure Analogue filter
  */
  if (HAL_I2CEx_ConfigAnalogFilter(&hi2c1, I2C_ANALOGFILTER_ENABLE) != HAL_OK)
 8000402:	2100      	movs	r1, #0
 8000404:	4809      	ldr	r0, [pc, #36]	; (800042c <MX_I2C1_Init+0x74>)
 8000406:	f001 fbe0 	bl	8001bca <HAL_I2CEx_ConfigAnalogFilter>
 800040a:	4603      	mov	r3, r0
 800040c:	2b00      	cmp	r3, #0
 800040e:	d001      	beq.n	8000414 <MX_I2C1_Init+0x5c>
  {
    Error_Handler();
 8000410:	f000 f8f0 	bl	80005f4 <Error_Handler>
  }
  /** Configure Digital filter
  */
  if (HAL_I2CEx_ConfigDigitalFilter(&hi2c1, 0) != HAL_OK)
 8000414:	2100      	movs	r1, #0
 8000416:	4805      	ldr	r0, [pc, #20]	; (800042c <MX_I2C1_Init+0x74>)
 8000418:	f001 fc22 	bl	8001c60 <HAL_I2CEx_ConfigDigitalFilter>
 800041c:	4603      	mov	r3, r0
 800041e:	2b00      	cmp	r3, #0
 8000420:	d001      	beq.n	8000426 <MX_I2C1_Init+0x6e>
  {
    Error_Handler();
 8000422:	f000 f8e7 	bl	80005f4 <Error_Handler>
  }
  /* USER CODE BEGIN I2C1_Init 2 */

  /* USER CODE END I2C1_Init 2 */

}
 8000426:	bf00      	nop
 8000428:	bd80      	pop	{r7, pc}
 800042a:	bf00      	nop
 800042c:	2000015c 	.word	0x2000015c
 8000430:	40005400 	.word	0x40005400
 8000434:	2000090e 	.word	0x2000090e

08000438 <MX_SPI1_Init>:
  * @brief SPI1 Initialization Function
  * @param None
  * @retval None
  */
static void MX_SPI1_Init(void)
{
 8000438:	b580      	push	{r7, lr}
 800043a:	af00      	add	r7, sp, #0

  /* USER CODE BEGIN SPI1_Init 1 */

  /* USER CODE END SPI1_Init 1 */
  /* SPI1 parameter configuration*/
  hspi1.Instance = SPI1;
 800043c:	4b1b      	ldr	r3, [pc, #108]	; (80004ac <MX_SPI1_Init+0x74>)
 800043e:	4a1c      	ldr	r2, [pc, #112]	; (80004b0 <MX_SPI1_Init+0x78>)
 8000440:	601a      	str	r2, [r3, #0]
  hspi1.Init.Mode = SPI_MODE_MASTER;
 8000442:	4b1a      	ldr	r3, [pc, #104]	; (80004ac <MX_SPI1_Init+0x74>)
 8000444:	f44f 7282 	mov.w	r2, #260	; 0x104
 8000448:	605a      	str	r2, [r3, #4]
  hspi1.Init.Direction = SPI_DIRECTION_2LINES;
 800044a:	4b18      	ldr	r3, [pc, #96]	; (80004ac <MX_SPI1_Init+0x74>)
 800044c:	2200      	movs	r2, #0
 800044e:	609a      	str	r2, [r3, #8]
  hspi1.Init.DataSize = SPI_DATASIZE_4BIT;
 8000450:	4b16      	ldr	r3, [pc, #88]	; (80004ac <MX_SPI1_Init+0x74>)
 8000452:	f44f 7240 	mov.w	r2, #768	; 0x300
 8000456:	60da      	str	r2, [r3, #12]
  hspi1.Init.CLKPolarity = SPI_POLARITY_LOW;
 8000458:	4b14      	ldr	r3, [pc, #80]	; (80004ac <MX_SPI1_Init+0x74>)
 800045a:	2200      	movs	r2, #0
 800045c:	611a      	str	r2, [r3, #16]
  hspi1.Init.CLKPhase = SPI_PHASE_1EDGE;
 800045e:	4b13      	ldr	r3, [pc, #76]	; (80004ac <MX_SPI1_Init+0x74>)
 8000460:	2200      	movs	r2, #0
 8000462:	615a      	str	r2, [r3, #20]
  hspi1.Init.NSS = SPI_NSS_SOFT;
 8000464:	4b11      	ldr	r3, [pc, #68]	; (80004ac <MX_SPI1_Init+0x74>)
 8000466:	f44f 7200 	mov.w	r2, #512	; 0x200
 800046a:	619a      	str	r2, [r3, #24]
  hspi1.Init.BaudRatePrescaler = SPI_BAUDRATEPRESCALER_4;
 800046c:	4b0f      	ldr	r3, [pc, #60]	; (80004ac <MX_SPI1_Init+0x74>)
 800046e:	2208      	movs	r2, #8
 8000470:	61da      	str	r2, [r3, #28]
  hspi1.Init.FirstBit = SPI_FIRSTBIT_MSB;
 8000472:	4b0e      	ldr	r3, [pc, #56]	; (80004ac <MX_SPI1_Init+0x74>)
 8000474:	2200      	movs	r2, #0
 8000476:	621a      	str	r2, [r3, #32]
  hspi1.Init.TIMode = SPI_TIMODE_DISABLE;
 8000478:	4b0c      	ldr	r3, [pc, #48]	; (80004ac <MX_SPI1_Init+0x74>)
 800047a:	2200      	movs	r2, #0
 800047c:	625a      	str	r2, [r3, #36]	; 0x24
  hspi1.Init.CRCCalculation = SPI_CRCCALCULATION_DISABLE;
 800047e:	4b0b      	ldr	r3, [pc, #44]	; (80004ac <MX_SPI1_Init+0x74>)
 8000480:	2200      	movs	r2, #0
 8000482:	629a      	str	r2, [r3, #40]	; 0x28
  hspi1.Init.CRCPolynomial = 7;
 8000484:	4b09      	ldr	r3, [pc, #36]	; (80004ac <MX_SPI1_Init+0x74>)
 8000486:	2207      	movs	r2, #7
 8000488:	62da      	str	r2, [r3, #44]	; 0x2c
  hspi1.Init.CRCLength = SPI_CRC_LENGTH_DATASIZE;
 800048a:	4b08      	ldr	r3, [pc, #32]	; (80004ac <MX_SPI1_Init+0x74>)
 800048c:	2200      	movs	r2, #0
 800048e:	631a      	str	r2, [r3, #48]	; 0x30
  hspi1.Init.NSSPMode = SPI_NSS_PULSE_ENABLE;
 8000490:	4b06      	ldr	r3, [pc, #24]	; (80004ac <MX_SPI1_Init+0x74>)
 8000492:	2208      	movs	r2, #8
 8000494:	635a      	str	r2, [r3, #52]	; 0x34
  if (HAL_SPI_Init(&hspi1) != HAL_OK)
 8000496:	4805      	ldr	r0, [pc, #20]	; (80004ac <MX_SPI1_Init+0x74>)
 8000498:	f002 fffa 	bl	8003490 <HAL_SPI_Init>
 800049c:	4603      	mov	r3, r0
 800049e:	2b00      	cmp	r3, #0
 80004a0:	d001      	beq.n	80004a6 <MX_SPI1_Init+0x6e>
  {
    Error_Handler();
 80004a2:	f000 f8a7 	bl	80005f4 <Error_Handler>
  }
  /* USER CODE BEGIN SPI1_Init 2 */

  /* USER CODE END SPI1_Init 2 */

}
 80004a6:	bf00      	nop
 80004a8:	bd80      	pop	{r7, pc}
 80004aa:	bf00      	nop
 80004ac:	200001a8 	.word	0x200001a8
 80004b0:	40013000 	.word	0x40013000

080004b4 <MX_USB_PCD_Init>:
  * @param None
  * @retval None
  */

static void MX_USB_PCD_Init(void)
{
 80004b4:	b580      	push	{r7, lr}
 80004b6:	af00      	add	r7, sp, #0
  /* USER CODE END USB_Init 0 */

  /* USER CODE BEGIN USB_Init 1 */

  /* USER CODE END USB_Init 1 */
  hpcd_USB_FS.Instance = USB;
 80004b8:	4b0d      	ldr	r3, [pc, #52]	; (80004f0 <MX_USB_PCD_Init+0x3c>)
 80004ba:	4a0e      	ldr	r2, [pc, #56]	; (80004f4 <MX_USB_PCD_Init+0x40>)
 80004bc:	601a      	str	r2, [r3, #0]
  hpcd_USB_FS.Init.dev_endpoints = 8;
 80004be:	4b0c      	ldr	r3, [pc, #48]	; (80004f0 <MX_USB_PCD_Init+0x3c>)
 80004c0:	2208      	movs	r2, #8
 80004c2:	605a      	str	r2, [r3, #4]
  hpcd_USB_FS.Init.speed = PCD_SPEED_FULL;
 80004c4:	4b0a      	ldr	r3, [pc, #40]	; (80004f0 <MX_USB_PCD_Init+0x3c>)
 80004c6:	2202      	movs	r2, #2
 80004c8:	609a      	str	r2, [r3, #8]
  hpcd_USB_FS.Init.phy_itface = PCD_PHY_EMBEDDED;
 80004ca:	4b09      	ldr	r3, [pc, #36]	; (80004f0 <MX_USB_PCD_Init+0x3c>)
 80004cc:	2202      	movs	r2, #2
 80004ce:	611a      	str	r2, [r3, #16]
  hpcd_USB_FS.Init.low_power_enable = DISABLE;
 80004d0:	4b07      	ldr	r3, [pc, #28]	; (80004f0 <MX_USB_PCD_Init+0x3c>)
 80004d2:	2200      	movs	r2, #0
 80004d4:	619a      	str	r2, [r3, #24]
  hpcd_USB_FS.Init.battery_charging_enable = DISABLE;
 80004d6:	4b06      	ldr	r3, [pc, #24]	; (80004f0 <MX_USB_PCD_Init+0x3c>)
 80004d8:	2200      	movs	r2, #0
 80004da:	621a      	str	r2, [r3, #32]
  if (HAL_PCD_Init(&hpcd_USB_FS) != HAL_OK)
 80004dc:	4804      	ldr	r0, [pc, #16]	; (80004f0 <MX_USB_PCD_Init+0x3c>)
 80004de:	f001 fc0b 	bl	8001cf8 <HAL_PCD_Init>
 80004e2:	4603      	mov	r3, r0
 80004e4:	2b00      	cmp	r3, #0
 80004e6:	d001      	beq.n	80004ec <MX_USB_PCD_Init+0x38>
  {
    Error_Handler();
 80004e8:	f000 f884 	bl	80005f4 <Error_Handler>
  }
  /* USER CODE BEGIN USB_Init 2 */

  /* USER CODE END USB_Init 2 */

}
 80004ec:	bf00      	nop
 80004ee:	bd80      	pop	{r7, pc}
 80004f0:	2000020c 	.word	0x2000020c
 80004f4:	40005c00 	.word	0x40005c00

080004f8 <MX_GPIO_Init>:
  * @brief GPIO Initialization Function
  * @param None
  * @retval None
  */
static void MX_GPIO_Init(void)
{
 80004f8:	b580      	push	{r7, lr}
 80004fa:	b08a      	sub	sp, #40	; 0x28
 80004fc:	af00      	add	r7, sp, #0
  GPIO_InitTypeDef GPIO_InitStruct = {0};
 80004fe:	f107 0314 	add.w	r3, r7, #20
 8000502:	2200      	movs	r2, #0
 8000504:	601a      	str	r2, [r3, #0]
 8000506:	605a      	str	r2, [r3, #4]
 8000508:	609a      	str	r2, [r3, #8]
 800050a:	60da      	str	r2, [r3, #12]
 800050c:	611a      	str	r2, [r3, #16]

  /* GPIO Ports Clock Enable */
  __HAL_RCC_GPIOE_CLK_ENABLE();
 800050e:	4b37      	ldr	r3, [pc, #220]	; (80005ec <MX_GPIO_Init+0xf4>)
 8000510:	695b      	ldr	r3, [r3, #20]
 8000512:	4a36      	ldr	r2, [pc, #216]	; (80005ec <MX_GPIO_Init+0xf4>)
 8000514:	f443 1300 	orr.w	r3, r3, #2097152	; 0x200000
 8000518:	6153      	str	r3, [r2, #20]
 800051a:	4b34      	ldr	r3, [pc, #208]	; (80005ec <MX_GPIO_Init+0xf4>)
 800051c:	695b      	ldr	r3, [r3, #20]
 800051e:	f403 1300 	and.w	r3, r3, #2097152	; 0x200000
 8000522:	613b      	str	r3, [r7, #16]
 8000524:	693b      	ldr	r3, [r7, #16]
  __HAL_RCC_GPIOC_CLK_ENABLE();
 8000526:	4b31      	ldr	r3, [pc, #196]	; (80005ec <MX_GPIO_Init+0xf4>)
 8000528:	695b      	ldr	r3, [r3, #20]
 800052a:	4a30      	ldr	r2, [pc, #192]	; (80005ec <MX_GPIO_Init+0xf4>)
 800052c:	f443 2300 	orr.w	r3, r3, #524288	; 0x80000
 8000530:	6153      	str	r3, [r2, #20]
 8000532:	4b2e      	ldr	r3, [pc, #184]	; (80005ec <MX_GPIO_Init+0xf4>)
 8000534:	695b      	ldr	r3, [r3, #20]
 8000536:	f403 2300 	and.w	r3, r3, #524288	; 0x80000
 800053a:	60fb      	str	r3, [r7, #12]
 800053c:	68fb      	ldr	r3, [r7, #12]
  __HAL_RCC_GPIOF_CLK_ENABLE();
 800053e:	4b2b      	ldr	r3, [pc, #172]	; (80005ec <MX_GPIO_Init+0xf4>)
 8000540:	695b      	ldr	r3, [r3, #20]
 8000542:	4a2a      	ldr	r2, [pc, #168]	; (80005ec <MX_GPIO_Init+0xf4>)
 8000544:	f443 0380 	orr.w	r3, r3, #4194304	; 0x400000
 8000548:	6153      	str	r3, [r2, #20]
 800054a:	4b28      	ldr	r3, [pc, #160]	; (80005ec <MX_GPIO_Init+0xf4>)
 800054c:	695b      	ldr	r3, [r3, #20]
 800054e:	f403 0380 	and.w	r3, r3, #4194304	; 0x400000
 8000552:	60bb      	str	r3, [r7, #8]
 8000554:	68bb      	ldr	r3, [r7, #8]
  __HAL_RCC_GPIOA_CLK_ENABLE();
 8000556:	4b25      	ldr	r3, [pc, #148]	; (80005ec <MX_GPIO_Init+0xf4>)
 8000558:	695b      	ldr	r3, [r3, #20]
 800055a:	4a24      	ldr	r2, [pc, #144]	; (80005ec <MX_GPIO_Init+0xf4>)
 800055c:	f443 3300 	orr.w	r3, r3, #131072	; 0x20000
 8000560:	6153      	str	r3, [r2, #20]
 8000562:	4b22      	ldr	r3, [pc, #136]	; (80005ec <MX_GPIO_Init+0xf4>)
 8000564:	695b      	ldr	r3, [r3, #20]
 8000566:	f403 3300 	and.w	r3, r3, #131072	; 0x20000
 800056a:	607b      	str	r3, [r7, #4]
 800056c:	687b      	ldr	r3, [r7, #4]
  __HAL_RCC_GPIOB_CLK_ENABLE();
 800056e:	4b1f      	ldr	r3, [pc, #124]	; (80005ec <MX_GPIO_Init+0xf4>)
 8000570:	695b      	ldr	r3, [r3, #20]
 8000572:	4a1e      	ldr	r2, [pc, #120]	; (80005ec <MX_GPIO_Init+0xf4>)
 8000574:	f443 2380 	orr.w	r3, r3, #262144	; 0x40000
 8000578:	6153      	str	r3, [r2, #20]
 800057a:	4b1c      	ldr	r3, [pc, #112]	; (80005ec <MX_GPIO_Init+0xf4>)
 800057c:	695b      	ldr	r3, [r3, #20]
 800057e:	f403 2380 	and.w	r3, r3, #262144	; 0x40000
 8000582:	603b      	str	r3, [r7, #0]
 8000584:	683b      	ldr	r3, [r7, #0]

  /*Configure GPIO pin Output Level */
  HAL_GPIO_WritePin(GPIOE, CS_I2C_SPI_Pin|LD4_Pin|LD3_Pin|LD5_Pin
 8000586:	2200      	movs	r2, #0
 8000588:	f64f 7108 	movw	r1, #65288	; 0xff08
 800058c:	4818      	ldr	r0, [pc, #96]	; (80005f0 <MX_GPIO_Init+0xf8>)
 800058e:	f001 fa75 	bl	8001a7c <HAL_GPIO_WritePin>
                          |LD7_Pin|LD9_Pin|LD10_Pin|LD8_Pin
                          |LD6_Pin, GPIO_PIN_RESET);

  /*Configure GPIO pins : DRDY_Pin MEMS_INT3_Pin MEMS_INT4_Pin MEMS_INT1_Pin
                           MEMS_INT2_Pin */
  GPIO_InitStruct.Pin = DRDY_Pin|MEMS_INT3_Pin|MEMS_INT4_Pin|MEMS_INT1_Pin
 8000592:	2337      	movs	r3, #55	; 0x37
 8000594:	617b      	str	r3, [r7, #20]
                          |MEMS_INT2_Pin;
  GPIO_InitStruct.Mode = GPIO_MODE_EVT_RISING;
 8000596:	f44f 1390 	mov.w	r3, #1179648	; 0x120000
 800059a:	61bb      	str	r3, [r7, #24]
  GPIO_InitStruct.Pull = GPIO_NOPULL;
 800059c:	2300      	movs	r3, #0
 800059e:	61fb      	str	r3, [r7, #28]
  HAL_GPIO_Init(GPIOE, &GPIO_InitStruct);
 80005a0:	f107 0314 	add.w	r3, r7, #20
 80005a4:	4619      	mov	r1, r3
 80005a6:	4812      	ldr	r0, [pc, #72]	; (80005f0 <MX_GPIO_Init+0xf8>)
 80005a8:	f001 f8ee 	bl	8001788 <HAL_GPIO_Init>

  /*Configure GPIO pins : CS_I2C_SPI_Pin LD4_Pin LD3_Pin LD5_Pin
                           LD7_Pin LD9_Pin LD10_Pin LD8_Pin
                           LD6_Pin */
  GPIO_InitStruct.Pin = CS_I2C_SPI_Pin|LD4_Pin|LD3_Pin|LD5_Pin
 80005ac:	f64f 7308 	movw	r3, #65288	; 0xff08
 80005b0:	617b      	str	r3, [r7, #20]
                          |LD7_Pin|LD9_Pin|LD10_Pin|LD8_Pin
                          |LD6_Pin;
  GPIO_InitStruct.Mode = GPIO_MODE_OUTPUT_PP;
 80005b2:	2301      	movs	r3, #1
 80005b4:	61bb      	str	r3, [r7, #24]
  GPIO_InitStruct.Pull = GPIO_NOPULL;
 80005b6:	2300      	movs	r3, #0
 80005b8:	61fb      	str	r3, [r7, #28]
  GPIO_InitStruct.Speed = GPIO_SPEED_FREQ_LOW;
 80005ba:	2300      	movs	r3, #0
 80005bc:	623b      	str	r3, [r7, #32]
  HAL_GPIO_Init(GPIOE, &GPIO_InitStruct);
 80005be:	f107 0314 	add.w	r3, r7, #20
 80005c2:	4619      	mov	r1, r3
 80005c4:	480a      	ldr	r0, [pc, #40]	; (80005f0 <MX_GPIO_Init+0xf8>)
 80005c6:	f001 f8df 	bl	8001788 <HAL_GPIO_Init>

  /*Configure GPIO pin : B1_Pin */
  GPIO_InitStruct.Pin = B1_Pin;
 80005ca:	2301      	movs	r3, #1
 80005cc:	617b      	str	r3, [r7, #20]
  GPIO_InitStruct.Mode = GPIO_MODE_INPUT;
 80005ce:	2300      	movs	r3, #0
 80005d0:	61bb      	str	r3, [r7, #24]
  GPIO_InitStruct.Pull = GPIO_NOPULL;
 80005d2:	2300      	movs	r3, #0
 80005d4:	61fb      	str	r3, [r7, #28]
  HAL_GPIO_Init(B1_GPIO_Port, &GPIO_InitStruct);
 80005d6:	f107 0314 	add.w	r3, r7, #20
 80005da:	4619      	mov	r1, r3
 80005dc:	f04f 4090 	mov.w	r0, #1207959552	; 0x48000000
 80005e0:	f001 f8d2 	bl	8001788 <HAL_GPIO_Init>

}
 80005e4:	bf00      	nop
 80005e6:	3728      	adds	r7, #40	; 0x28
 80005e8:	46bd      	mov	sp, r7
 80005ea:	bd80      	pop	{r7, pc}
 80005ec:	40021000 	.word	0x40021000
 80005f0:	48001000 	.word	0x48001000

080005f4 <Error_Handler>:
/**
  * @brief  This function is executed in case of error occurrence.
  * @retval None
  */
void Error_Handler(void)
{
 80005f4:	b480      	push	{r7}
 80005f6:	af00      	add	r7, sp, #0
  \details Disables IRQ interrupts by setting the I-bit in the CPSR.
           Can only be executed in Privileged modes.
 */
__STATIC_FORCEINLINE void __disable_irq(void)
{
  __ASM volatile ("cpsid i" : : : "memory");
 80005f8:	b672      	cpsid	i
}
 80005fa:	bf00      	nop
  /* USER CODE BEGIN Error_Handler_Debug */
  /* User can add his own implementation to report the HAL error return state */
  __disable_irq();
  while (1)
 80005fc:	e7fe      	b.n	80005fc <Error_Handler+0x8>
	...

08000600 <HAL_MspInit>:
/* USER CODE END 0 */
/**
  * Initializes the Global MSP.
  */
void HAL_MspInit(void)
{
 8000600:	b580      	push	{r7, lr}
 8000602:	b082      	sub	sp, #8
 8000604:	af00      	add	r7, sp, #0
  /* USER CODE BEGIN MspInit 0 */

  /* USER CODE END MspInit 0 */

  __HAL_RCC_SYSCFG_CLK_ENABLE();
 8000606:	4b0f      	ldr	r3, [pc, #60]	; (8000644 <HAL_MspInit+0x44>)
 8000608:	699b      	ldr	r3, [r3, #24]
 800060a:	4a0e      	ldr	r2, [pc, #56]	; (8000644 <HAL_MspInit+0x44>)
 800060c:	f043 0301 	orr.w	r3, r3, #1
 8000610:	6193      	str	r3, [r2, #24]
 8000612:	4b0c      	ldr	r3, [pc, #48]	; (8000644 <HAL_MspInit+0x44>)
 8000614:	699b      	ldr	r3, [r3, #24]
 8000616:	f003 0301 	and.w	r3, r3, #1
 800061a:	607b      	str	r3, [r7, #4]
 800061c:	687b      	ldr	r3, [r7, #4]
  __HAL_RCC_PWR_CLK_ENABLE();
 800061e:	4b09      	ldr	r3, [pc, #36]	; (8000644 <HAL_MspInit+0x44>)
 8000620:	69db      	ldr	r3, [r3, #28]
 8000622:	4a08      	ldr	r2, [pc, #32]	; (8000644 <HAL_MspInit+0x44>)
 8000624:	f043 5380 	orr.w	r3, r3, #268435456	; 0x10000000
 8000628:	61d3      	str	r3, [r2, #28]
 800062a:	4b06      	ldr	r3, [pc, #24]	; (8000644 <HAL_MspInit+0x44>)
 800062c:	69db      	ldr	r3, [r3, #28]
 800062e:	f003 5380 	and.w	r3, r3, #268435456	; 0x10000000
 8000632:	603b      	str	r3, [r7, #0]
 8000634:	683b      	ldr	r3, [r7, #0]

  HAL_NVIC_SetPriorityGrouping(NVIC_PRIORITYGROUP_0);
 8000636:	2007      	movs	r0, #7
 8000638:	f000 fdee 	bl	8001218 <HAL_NVIC_SetPriorityGrouping>
  /* System interrupt init*/

  /* USER CODE BEGIN MspInit 1 */

  /* USER CODE END MspInit 1 */
}
 800063c:	bf00      	nop
 800063e:	3708      	adds	r7, #8
 8000640:	46bd      	mov	sp, r7
 8000642:	bd80      	pop	{r7, pc}
 8000644:	40021000 	.word	0x40021000

08000648 <HAL_CRC_MspInit>:
* This function configures the hardware resources used in this example
* @param hcrc: CRC handle pointer
* @retval None
*/
void HAL_CRC_MspInit(CRC_HandleTypeDef* hcrc)
{
 8000648:	b480      	push	{r7}
 800064a:	b085      	sub	sp, #20
 800064c:	af00      	add	r7, sp, #0
 800064e:	6078      	str	r0, [r7, #4]
  if(hcrc->Instance==CRC)
 8000650:	687b      	ldr	r3, [r7, #4]
 8000652:	681b      	ldr	r3, [r3, #0]
 8000654:	4a0a      	ldr	r2, [pc, #40]	; (8000680 <HAL_CRC_MspInit+0x38>)
 8000656:	4293      	cmp	r3, r2
 8000658:	d10b      	bne.n	8000672 <HAL_CRC_MspInit+0x2a>
  {
  /* USER CODE BEGIN CRC_MspInit 0 */

  /* USER CODE END CRC_MspInit 0 */
    /* Peripheral clock enable */
    __HAL_RCC_CRC_CLK_ENABLE();
 800065a:	4b0a      	ldr	r3, [pc, #40]	; (8000684 <HAL_CRC_MspInit+0x3c>)
 800065c:	695b      	ldr	r3, [r3, #20]
 800065e:	4a09      	ldr	r2, [pc, #36]	; (8000684 <HAL_CRC_MspInit+0x3c>)
 8000660:	f043 0340 	orr.w	r3, r3, #64	; 0x40
 8000664:	6153      	str	r3, [r2, #20]
 8000666:	4b07      	ldr	r3, [pc, #28]	; (8000684 <HAL_CRC_MspInit+0x3c>)
 8000668:	695b      	ldr	r3, [r3, #20]
 800066a:	f003 0340 	and.w	r3, r3, #64	; 0x40
 800066e:	60fb      	str	r3, [r7, #12]
 8000670:	68fb      	ldr	r3, [r7, #12]
  /* USER CODE BEGIN CRC_MspInit 1 */

  /* USER CODE END CRC_MspInit 1 */
  }

}
 8000672:	bf00      	nop
 8000674:	3714      	adds	r7, #20
 8000676:	46bd      	mov	sp, r7
 8000678:	f85d 7b04 	ldr.w	r7, [sp], #4
 800067c:	4770      	bx	lr
 800067e:	bf00      	nop
 8000680:	40023000 	.word	0x40023000
 8000684:	40021000 	.word	0x40021000

08000688 <HAL_I2C_MspInit>:
* This function configures the hardware resources used in this example
* @param hi2c: I2C handle pointer
* @retval None
*/
void HAL_I2C_MspInit(I2C_HandleTypeDef* hi2c)
{
 8000688:	b580      	push	{r7, lr}
 800068a:	b08a      	sub	sp, #40	; 0x28
 800068c:	af00      	add	r7, sp, #0
 800068e:	6078      	str	r0, [r7, #4]
  GPIO_InitTypeDef GPIO_InitStruct = {0};
 8000690:	f107 0314 	add.w	r3, r7, #20
 8000694:	2200      	movs	r2, #0
 8000696:	601a      	str	r2, [r3, #0]
 8000698:	605a      	str	r2, [r3, #4]
 800069a:	609a      	str	r2, [r3, #8]
 800069c:	60da      	str	r2, [r3, #12]
 800069e:	611a      	str	r2, [r3, #16]
  if(hi2c->Instance==I2C1)
 80006a0:	687b      	ldr	r3, [r7, #4]
 80006a2:	681b      	ldr	r3, [r3, #0]
 80006a4:	4a17      	ldr	r2, [pc, #92]	; (8000704 <HAL_I2C_MspInit+0x7c>)
 80006a6:	4293      	cmp	r3, r2
 80006a8:	d127      	bne.n	80006fa <HAL_I2C_MspInit+0x72>
  {
  /* USER CODE BEGIN I2C1_MspInit 0 */

  /* USER CODE END I2C1_MspInit 0 */

    __HAL_RCC_GPIOB_CLK_ENABLE();
 80006aa:	4b17      	ldr	r3, [pc, #92]	; (8000708 <HAL_I2C_MspInit+0x80>)
 80006ac:	695b      	ldr	r3, [r3, #20]
 80006ae:	4a16      	ldr	r2, [pc, #88]	; (8000708 <HAL_I2C_MspInit+0x80>)
 80006b0:	f443 2380 	orr.w	r3, r3, #262144	; 0x40000
 80006b4:	6153      	str	r3, [r2, #20]
 80006b6:	4b14      	ldr	r3, [pc, #80]	; (8000708 <HAL_I2C_MspInit+0x80>)
 80006b8:	695b      	ldr	r3, [r3, #20]
 80006ba:	f403 2380 	and.w	r3, r3, #262144	; 0x40000
 80006be:	613b      	str	r3, [r7, #16]
 80006c0:	693b      	ldr	r3, [r7, #16]
    /**I2C1 GPIO Configuration
    PB6     ------> I2C1_SCL
    PB7     ------> I2C1_SDA
    */
    GPIO_InitStruct.Pin = I2C1_SCL_Pin|I2C1_SDA_Pin;
 80006c2:	23c0      	movs	r3, #192	; 0xc0
 80006c4:	617b      	str	r3, [r7, #20]
    GPIO_InitStruct.Mode = GPIO_MODE_AF_OD;
 80006c6:	2312      	movs	r3, #18
 80006c8:	61bb      	str	r3, [r7, #24]
    GPIO_InitStruct.Pull = GPIO_PULLUP;
 80006ca:	2301      	movs	r3, #1
 80006cc:	61fb      	str	r3, [r7, #28]
    GPIO_InitStruct.Speed = GPIO_SPEED_FREQ_HIGH;
 80006ce:	2303      	movs	r3, #3
 80006d0:	623b      	str	r3, [r7, #32]
    GPIO_InitStruct.Alternate = GPIO_AF4_I2C1;
 80006d2:	2304      	movs	r3, #4
 80006d4:	627b      	str	r3, [r7, #36]	; 0x24
    HAL_GPIO_Init(GPIOB, &GPIO_InitStruct);
 80006d6:	f107 0314 	add.w	r3, r7, #20
 80006da:	4619      	mov	r1, r3
 80006dc:	480b      	ldr	r0, [pc, #44]	; (800070c <HAL_I2C_MspInit+0x84>)
 80006de:	f001 f853 	bl	8001788 <HAL_GPIO_Init>

    /* Peripheral clock enable */
    __HAL_RCC_I2C1_CLK_ENABLE();
 80006e2:	4b09      	ldr	r3, [pc, #36]	; (8000708 <HAL_I2C_MspInit+0x80>)
 80006e4:	69db      	ldr	r3, [r3, #28]
 80006e6:	4a08      	ldr	r2, [pc, #32]	; (8000708 <HAL_I2C_MspInit+0x80>)
 80006e8:	f443 1300 	orr.w	r3, r3, #2097152	; 0x200000
 80006ec:	61d3      	str	r3, [r2, #28]
 80006ee:	4b06      	ldr	r3, [pc, #24]	; (8000708 <HAL_I2C_MspInit+0x80>)
 80006f0:	69db      	ldr	r3, [r3, #28]
 80006f2:	f403 1300 	and.w	r3, r3, #2097152	; 0x200000
 80006f6:	60fb      	str	r3, [r7, #12]
 80006f8:	68fb      	ldr	r3, [r7, #12]
  /* USER CODE BEGIN I2C1_MspInit 1 */

  /* USER CODE END I2C1_MspInit 1 */
  }

}
 80006fa:	bf00      	nop
 80006fc:	3728      	adds	r7, #40	; 0x28
 80006fe:	46bd      	mov	sp, r7
 8000700:	bd80      	pop	{r7, pc}
 8000702:	bf00      	nop
 8000704:	40005400 	.word	0x40005400
 8000708:	40021000 	.word	0x40021000
 800070c:	48000400 	.word	0x48000400

08000710 <HAL_SPI_MspInit>:
* This function configures the hardware resources used in this example
* @param hspi: SPI handle pointer
* @retval None
*/
void HAL_SPI_MspInit(SPI_HandleTypeDef* hspi)
{
 8000710:	b580      	push	{r7, lr}
 8000712:	b08a      	sub	sp, #40	; 0x28
 8000714:	af00      	add	r7, sp, #0
 8000716:	6078      	str	r0, [r7, #4]
  GPIO_InitTypeDef GPIO_InitStruct = {0};
 8000718:	f107 0314 	add.w	r3, r7, #20
 800071c:	2200      	movs	r2, #0
 800071e:	601a      	str	r2, [r3, #0]
 8000720:	605a      	str	r2, [r3, #4]
 8000722:	609a      	str	r2, [r3, #8]
 8000724:	60da      	str	r2, [r3, #12]
 8000726:	611a      	str	r2, [r3, #16]
  if(hspi->Instance==SPI1)
 8000728:	687b      	ldr	r3, [r7, #4]
 800072a:	681b      	ldr	r3, [r3, #0]
 800072c:	4a17      	ldr	r2, [pc, #92]	; (800078c <HAL_SPI_MspInit+0x7c>)
 800072e:	4293      	cmp	r3, r2
 8000730:	d128      	bne.n	8000784 <HAL_SPI_MspInit+0x74>
  {
  /* USER CODE BEGIN SPI1_MspInit 0 */

  /* USER CODE END SPI1_MspInit 0 */
    /* Peripheral clock enable */
    __HAL_RCC_SPI1_CLK_ENABLE();
 8000732:	4b17      	ldr	r3, [pc, #92]	; (8000790 <HAL_SPI_MspInit+0x80>)
 8000734:	699b      	ldr	r3, [r3, #24]
 8000736:	4a16      	ldr	r2, [pc, #88]	; (8000790 <HAL_SPI_MspInit+0x80>)
 8000738:	f443 5380 	orr.w	r3, r3, #4096	; 0x1000
 800073c:	6193      	str	r3, [r2, #24]
 800073e:	4b14      	ldr	r3, [pc, #80]	; (8000790 <HAL_SPI_MspInit+0x80>)
 8000740:	699b      	ldr	r3, [r3, #24]
 8000742:	f403 5380 	and.w	r3, r3, #4096	; 0x1000
 8000746:	613b      	str	r3, [r7, #16]
 8000748:	693b      	ldr	r3, [r7, #16]

    __HAL_RCC_GPIOA_CLK_ENABLE();
 800074a:	4b11      	ldr	r3, [pc, #68]	; (8000790 <HAL_SPI_MspInit+0x80>)
 800074c:	695b      	ldr	r3, [r3, #20]
 800074e:	4a10      	ldr	r2, [pc, #64]	; (8000790 <HAL_SPI_MspInit+0x80>)
 8000750:	f443 3300 	orr.w	r3, r3, #131072	; 0x20000
 8000754:	6153      	str	r3, [r2, #20]
 8000756:	4b0e      	ldr	r3, [pc, #56]	; (8000790 <HAL_SPI_MspInit+0x80>)
 8000758:	695b      	ldr	r3, [r3, #20]
 800075a:	f403 3300 	and.w	r3, r3, #131072	; 0x20000
 800075e:	60fb      	str	r3, [r7, #12]
 8000760:	68fb      	ldr	r3, [r7, #12]
    /**SPI1 GPIO Configuration
    PA5     ------> SPI1_SCK
    PA6     ------> SPI1_MISO
    PA7     ------> SPI1_MOSI
    */
    GPIO_InitStruct.Pin = SPI1_SCK_Pin|SPI1_MISO_Pin|SPI1_MISOA7_Pin;
 8000762:	23e0      	movs	r3, #224	; 0xe0
 8000764:	617b      	str	r3, [r7, #20]
    GPIO_InitStruct.Mode = GPIO_MODE_AF_PP;
 8000766:	2302      	movs	r3, #2
 8000768:	61bb      	str	r3, [r7, #24]
    GPIO_InitStruct.Pull = GPIO_NOPULL;
 800076a:	2300      	movs	r3, #0
 800076c:	61fb      	str	r3, [r7, #28]
    GPIO_InitStruct.Speed = GPIO_SPEED_FREQ_HIGH;
 800076e:	2303      	movs	r3, #3
 8000770:	623b      	str	r3, [r7, #32]
    GPIO_InitStruct.Alternate = GPIO_AF5_SPI1;
 8000772:	2305      	movs	r3, #5
 8000774:	627b      	str	r3, [r7, #36]	; 0x24
    HAL_GPIO_Init(GPIOA, &GPIO_InitStruct);
 8000776:	f107 0314 	add.w	r3, r7, #20
 800077a:	4619      	mov	r1, r3
 800077c:	f04f 4090 	mov.w	r0, #1207959552	; 0x48000000
 8000780:	f001 f802 	bl	8001788 <HAL_GPIO_Init>
  /* USER CODE BEGIN SPI1_MspInit 1 */

  /* USER CODE END SPI1_MspInit 1 */
  }

}
 8000784:	bf00      	nop
 8000786:	3728      	adds	r7, #40	; 0x28
 8000788:	46bd      	mov	sp, r7
 800078a:	bd80      	pop	{r7, pc}
 800078c:	40013000 	.word	0x40013000
 8000790:	40021000 	.word	0x40021000

08000794 <HAL_UART_MspInit>:
* This function configures the hardware resources used in this example
* @param huart: UART handle pointer
* @retval None
*/
void HAL_UART_MspInit(UART_HandleTypeDef* huart)
{
 8000794:	b580      	push	{r7, lr}
 8000796:	b08c      	sub	sp, #48	; 0x30
 8000798:	af00      	add	r7, sp, #0
 800079a:	6078      	str	r0, [r7, #4]
  GPIO_InitTypeDef GPIO_InitStruct = {0};
 800079c:	f107 031c 	add.w	r3, r7, #28
 80007a0:	2200      	movs	r2, #0
 80007a2:	601a      	str	r2, [r3, #0]
 80007a4:	605a      	str	r2, [r3, #4]
 80007a6:	609a      	str	r2, [r3, #8]
 80007a8:	60da      	str	r2, [r3, #12]
 80007aa:	611a      	str	r2, [r3, #16]
  if(huart->Instance==USART1)
 80007ac:	687b      	ldr	r3, [r7, #4]
 80007ae:	681b      	ldr	r3, [r3, #0]
 80007b0:	4a36      	ldr	r2, [pc, #216]	; (800088c <HAL_UART_MspInit+0xf8>)
 80007b2:	4293      	cmp	r3, r2
 80007b4:	d130      	bne.n	8000818 <HAL_UART_MspInit+0x84>
  {
  /* USER CODE BEGIN USART1_MspInit 0 */

  /* USER CODE END USART1_MspInit 0 */
    /* Peripheral clock enable */
    __HAL_RCC_USART1_CLK_ENABLE();
 80007b6:	4b36      	ldr	r3, [pc, #216]	; (8000890 <HAL_UART_MspInit+0xfc>)
 80007b8:	699b      	ldr	r3, [r3, #24]
 80007ba:	4a35      	ldr	r2, [pc, #212]	; (8000890 <HAL_UART_MspInit+0xfc>)
 80007bc:	f443 4380 	orr.w	r3, r3, #16384	; 0x4000
 80007c0:	6193      	str	r3, [r2, #24]
 80007c2:	4b33      	ldr	r3, [pc, #204]	; (8000890 <HAL_UART_MspInit+0xfc>)
 80007c4:	699b      	ldr	r3, [r3, #24]
 80007c6:	f403 4380 	and.w	r3, r3, #16384	; 0x4000
 80007ca:	61bb      	str	r3, [r7, #24]
 80007cc:	69bb      	ldr	r3, [r7, #24]

    __HAL_RCC_GPIOC_CLK_ENABLE();
 80007ce:	4b30      	ldr	r3, [pc, #192]	; (8000890 <HAL_UART_MspInit+0xfc>)
 80007d0:	695b      	ldr	r3, [r3, #20]
 80007d2:	4a2f      	ldr	r2, [pc, #188]	; (8000890 <HAL_UART_MspInit+0xfc>)
 80007d4:	f443 2300 	orr.w	r3, r3, #524288	; 0x80000
 80007d8:	6153      	str	r3, [r2, #20]
 80007da:	4b2d      	ldr	r3, [pc, #180]	; (8000890 <HAL_UART_MspInit+0xfc>)
 80007dc:	695b      	ldr	r3, [r3, #20]
 80007de:	f403 2300 	and.w	r3, r3, #524288	; 0x80000
 80007e2:	617b      	str	r3, [r7, #20]
 80007e4:	697b      	ldr	r3, [r7, #20]
    /**USART1 GPIO Configuration
    PC4     ------> USART1_TX
    PC5     ------> USART1_RX
    */
    GPIO_InitStruct.Pin = GPIO_PIN_4|GPIO_PIN_5;
 80007e6:	2330      	movs	r3, #48	; 0x30
 80007e8:	61fb      	str	r3, [r7, #28]
    GPIO_InitStruct.Mode = GPIO_MODE_AF_PP;
 80007ea:	2302      	movs	r3, #2
 80007ec:	623b      	str	r3, [r7, #32]
    GPIO_InitStruct.Pull = GPIO_NOPULL;
 80007ee:	2300      	movs	r3, #0
 80007f0:	627b      	str	r3, [r7, #36]	; 0x24
    GPIO_InitStruct.Speed = GPIO_SPEED_FREQ_HIGH;
 80007f2:	2303      	movs	r3, #3
 80007f4:	62bb      	str	r3, [r7, #40]	; 0x28
    GPIO_InitStruct.Alternate = GPIO_AF7_USART1;
 80007f6:	2307      	movs	r3, #7
 80007f8:	62fb      	str	r3, [r7, #44]	; 0x2c
    HAL_GPIO_Init(GPIOC, &GPIO_InitStruct);
 80007fa:	f107 031c 	add.w	r3, r7, #28
 80007fe:	4619      	mov	r1, r3
 8000800:	4824      	ldr	r0, [pc, #144]	; (8000894 <HAL_UART_MspInit+0x100>)
 8000802:	f000 ffc1 	bl	8001788 <HAL_GPIO_Init>

    /* USART1 interrupt Init */
    HAL_NVIC_SetPriority(USART1_IRQn, 0, 0);
 8000806:	2200      	movs	r2, #0
 8000808:	2100      	movs	r1, #0
 800080a:	2025      	movs	r0, #37	; 0x25
 800080c:	f000 fd0f 	bl	800122e <HAL_NVIC_SetPriority>
    HAL_NVIC_EnableIRQ(USART1_IRQn);
 8000810:	2025      	movs	r0, #37	; 0x25
 8000812:	f000 fd28 	bl	8001266 <HAL_NVIC_EnableIRQ>
  /* USER CODE BEGIN USART2_MspInit 1 */

  /* USER CODE END USART2_MspInit 1 */
  }

}
 8000816:	e035      	b.n	8000884 <HAL_UART_MspInit+0xf0>
  else if(huart->Instance==USART2)
 8000818:	687b      	ldr	r3, [r7, #4]
 800081a:	681b      	ldr	r3, [r3, #0]
 800081c:	4a1e      	ldr	r2, [pc, #120]	; (8000898 <HAL_UART_MspInit+0x104>)
 800081e:	4293      	cmp	r3, r2
 8000820:	d130      	bne.n	8000884 <HAL_UART_MspInit+0xf0>
    __HAL_RCC_USART2_CLK_ENABLE();
 8000822:	4b1b      	ldr	r3, [pc, #108]	; (8000890 <HAL_UART_MspInit+0xfc>)
 8000824:	69db      	ldr	r3, [r3, #28]
 8000826:	4a1a      	ldr	r2, [pc, #104]	; (8000890 <HAL_UART_MspInit+0xfc>)
 8000828:	f443 3300 	orr.w	r3, r3, #131072	; 0x20000
 800082c:	61d3      	str	r3, [r2, #28]
 800082e:	4b18      	ldr	r3, [pc, #96]	; (8000890 <HAL_UART_MspInit+0xfc>)
 8000830:	69db      	ldr	r3, [r3, #28]
 8000832:	f403 3300 	and.w	r3, r3, #131072	; 0x20000
 8000836:	613b      	str	r3, [r7, #16]
 8000838:	693b      	ldr	r3, [r7, #16]
    __HAL_RCC_GPIOA_CLK_ENABLE();
 800083a:	4b15      	ldr	r3, [pc, #84]	; (8000890 <HAL_UART_MspInit+0xfc>)
 800083c:	695b      	ldr	r3, [r3, #20]
 800083e:	4a14      	ldr	r2, [pc, #80]	; (8000890 <HAL_UART_MspInit+0xfc>)
 8000840:	f443 3300 	orr.w	r3, r3, #131072	; 0x20000
 8000844:	6153      	str	r3, [r2, #20]
 8000846:	4b12      	ldr	r3, [pc, #72]	; (8000890 <HAL_UART_MspInit+0xfc>)
 8000848:	695b      	ldr	r3, [r3, #20]
 800084a:	f403 3300 	and.w	r3, r3, #131072	; 0x20000
 800084e:	60fb      	str	r3, [r7, #12]
 8000850:	68fb      	ldr	r3, [r7, #12]
    GPIO_InitStruct.Pin = GPIO_PIN_2|GPIO_PIN_3;
 8000852:	230c      	movs	r3, #12
 8000854:	61fb      	str	r3, [r7, #28]
    GPIO_InitStruct.Mode = GPIO_MODE_AF_PP;
 8000856:	2302      	movs	r3, #2
 8000858:	623b      	str	r3, [r7, #32]
    GPIO_InitStruct.Pull = GPIO_NOPULL;
 800085a:	2300      	movs	r3, #0
 800085c:	627b      	str	r3, [r7, #36]	; 0x24
    GPIO_InitStruct.Speed = GPIO_SPEED_FREQ_HIGH;
 800085e:	2303      	movs	r3, #3
 8000860:	62bb      	str	r3, [r7, #40]	; 0x28
    GPIO_InitStruct.Alternate = GPIO_AF7_USART2;
 8000862:	2307      	movs	r3, #7
 8000864:	62fb      	str	r3, [r7, #44]	; 0x2c
    HAL_GPIO_Init(GPIOA, &GPIO_InitStruct);
 8000866:	f107 031c 	add.w	r3, r7, #28
 800086a:	4619      	mov	r1, r3
 800086c:	f04f 4090 	mov.w	r0, #1207959552	; 0x48000000
 8000870:	f000 ff8a 	bl	8001788 <HAL_GPIO_Init>
    HAL_NVIC_SetPriority(USART2_IRQn, 0, 0);
 8000874:	2200      	movs	r2, #0
 8000876:	2100      	movs	r1, #0
 8000878:	2026      	movs	r0, #38	; 0x26
 800087a:	f000 fcd8 	bl	800122e <HAL_NVIC_SetPriority>
    HAL_NVIC_EnableIRQ(USART2_IRQn);
 800087e:	2026      	movs	r0, #38	; 0x26
 8000880:	f000 fcf1 	bl	8001266 <HAL_NVIC_EnableIRQ>
}
 8000884:	bf00      	nop
 8000886:	3730      	adds	r7, #48	; 0x30
 8000888:	46bd      	mov	sp, r7
 800088a:	bd80      	pop	{r7, pc}
 800088c:	40013800 	.word	0x40013800
 8000890:	40021000 	.word	0x40021000
 8000894:	48000800 	.word	0x48000800
 8000898:	40004400 	.word	0x40004400

0800089c <HAL_PCD_MspInit>:
* This function configures the hardware resources used in this example
* @param hpcd: PCD handle pointer
* @retval None
*/
void HAL_PCD_MspInit(PCD_HandleTypeDef* hpcd)
{
 800089c:	b580      	push	{r7, lr}
 800089e:	b08a      	sub	sp, #40	; 0x28
 80008a0:	af00      	add	r7, sp, #0
 80008a2:	6078      	str	r0, [r7, #4]
  GPIO_InitTypeDef GPIO_InitStruct = {0};
 80008a4:	f107 0314 	add.w	r3, r7, #20
 80008a8:	2200      	movs	r2, #0
 80008aa:	601a      	str	r2, [r3, #0]
 80008ac:	605a      	str	r2, [r3, #4]
 80008ae:	609a      	str	r2, [r3, #8]
 80008b0:	60da      	str	r2, [r3, #12]
 80008b2:	611a      	str	r2, [r3, #16]
  if(hpcd->Instance==USB)
 80008b4:	687b      	ldr	r3, [r7, #4]
 80008b6:	681b      	ldr	r3, [r3, #0]
 80008b8:	4a18      	ldr	r2, [pc, #96]	; (800091c <HAL_PCD_MspInit+0x80>)
 80008ba:	4293      	cmp	r3, r2
 80008bc:	d129      	bne.n	8000912 <HAL_PCD_MspInit+0x76>
  {
  /* USER CODE BEGIN USB_MspInit 0 */

  /* USER CODE END USB_MspInit 0 */

    __HAL_RCC_GPIOA_CLK_ENABLE();
 80008be:	4b18      	ldr	r3, [pc, #96]	; (8000920 <HAL_PCD_MspInit+0x84>)
 80008c0:	695b      	ldr	r3, [r3, #20]
 80008c2:	4a17      	ldr	r2, [pc, #92]	; (8000920 <HAL_PCD_MspInit+0x84>)
 80008c4:	f443 3300 	orr.w	r3, r3, #131072	; 0x20000
 80008c8:	6153      	str	r3, [r2, #20]
 80008ca:	4b15      	ldr	r3, [pc, #84]	; (8000920 <HAL_PCD_MspInit+0x84>)
 80008cc:	695b      	ldr	r3, [r3, #20]
 80008ce:	f403 3300 	and.w	r3, r3, #131072	; 0x20000
 80008d2:	613b      	str	r3, [r7, #16]
 80008d4:	693b      	ldr	r3, [r7, #16]
    /**USB GPIO Configuration
    PA11     ------> USB_DM
    PA12     ------> USB_DP
    */
    GPIO_InitStruct.Pin = DM_Pin|DP_Pin;
 80008d6:	f44f 53c0 	mov.w	r3, #6144	; 0x1800
 80008da:	617b      	str	r3, [r7, #20]
    GPIO_InitStruct.Mode = GPIO_MODE_AF_PP;
 80008dc:	2302      	movs	r3, #2
 80008de:	61bb      	str	r3, [r7, #24]
    GPIO_InitStruct.Pull = GPIO_NOPULL;
 80008e0:	2300      	movs	r3, #0
 80008e2:	61fb      	str	r3, [r7, #28]
    GPIO_InitStruct.Speed = GPIO_SPEED_FREQ_HIGH;
 80008e4:	2303      	movs	r3, #3
 80008e6:	623b      	str	r3, [r7, #32]
    GPIO_InitStruct.Alternate = GPIO_AF14_USB;
 80008e8:	230e      	movs	r3, #14
 80008ea:	627b      	str	r3, [r7, #36]	; 0x24
    HAL_GPIO_Init(GPIOA, &GPIO_InitStruct);
 80008ec:	f107 0314 	add.w	r3, r7, #20
 80008f0:	4619      	mov	r1, r3
 80008f2:	f04f 4090 	mov.w	r0, #1207959552	; 0x48000000
 80008f6:	f000 ff47 	bl	8001788 <HAL_GPIO_Init>

    /* Peripheral clock enable */
    __HAL_RCC_USB_CLK_ENABLE();
 80008fa:	4b09      	ldr	r3, [pc, #36]	; (8000920 <HAL_PCD_MspInit+0x84>)
 80008fc:	69db      	ldr	r3, [r3, #28]
 80008fe:	4a08      	ldr	r2, [pc, #32]	; (8000920 <HAL_PCD_MspInit+0x84>)
 8000900:	f443 0300 	orr.w	r3, r3, #8388608	; 0x800000
 8000904:	61d3      	str	r3, [r2, #28]
 8000906:	4b06      	ldr	r3, [pc, #24]	; (8000920 <HAL_PCD_MspInit+0x84>)
 8000908:	69db      	ldr	r3, [r3, #28]
 800090a:	f403 0300 	and.w	r3, r3, #8388608	; 0x800000
 800090e:	60fb      	str	r3, [r7, #12]
 8000910:	68fb      	ldr	r3, [r7, #12]
  /* USER CODE BEGIN USB_MspInit 1 */

  /* USER CODE END USB_MspInit 1 */
  }

}
 8000912:	bf00      	nop
 8000914:	3728      	adds	r7, #40	; 0x28
 8000916:	46bd      	mov	sp, r7
 8000918:	bd80      	pop	{r7, pc}
 800091a:	bf00      	nop
 800091c:	40005c00 	.word	0x40005c00
 8000920:	40021000 	.word	0x40021000

08000924 <NMI_Handler>:
/******************************************************************************/
/**
  * @brief This function handles Non maskable interrupt.
  */
void NMI_Handler(void)
{
 8000924:	b480      	push	{r7}
 8000926:	af00      	add	r7, sp, #0
  /* USER CODE BEGIN NonMaskableInt_IRQn 0 */

  /* USER CODE END NonMaskableInt_IRQn 0 */
  /* USER CODE BEGIN NonMaskableInt_IRQn 1 */
  while (1)
 8000928:	e7fe      	b.n	8000928 <NMI_Handler+0x4>

0800092a <HardFault_Handler>:

/**
  * @brief This function handles Hard fault interrupt.
  */
void HardFault_Handler(void)
{
 800092a:	b480      	push	{r7}
 800092c:	af00      	add	r7, sp, #0
  /* USER CODE BEGIN HardFault_IRQn 0 */

  /* USER CODE END HardFault_IRQn 0 */
  while (1)
 800092e:	e7fe      	b.n	800092e <HardFault_Handler+0x4>

08000930 <MemManage_Handler>:

/**
  * @brief This function handles Memory management fault.
  */
void MemManage_Handler(void)
{
 8000930:	b480      	push	{r7}
 8000932:	af00      	add	r7, sp, #0
  /* USER CODE BEGIN MemoryManagement_IRQn 0 */

  /* USER CODE END MemoryManagement_IRQn 0 */
  while (1)
 8000934:	e7fe      	b.n	8000934 <MemManage_Handler+0x4>

08000936 <BusFault_Handler>:

/**
  * @brief This function handles Pre-fetch fault, memory access fault.
  */
void BusFault_Handler(void)
{
 8000936:	b480      	push	{r7}
 8000938:	af00      	add	r7, sp, #0
  /* USER CODE BEGIN BusFault_IRQn 0 */

  /* USER CODE END BusFault_IRQn 0 */
  while (1)
 800093a:	e7fe      	b.n	800093a <BusFault_Handler+0x4>

0800093c <UsageFault_Handler>:

/**
  * @brief This function handles Undefined instruction or illegal state.
  */
void UsageFault_Handler(void)
{
 800093c:	b480      	push	{r7}
 800093e:	af00      	add	r7, sp, #0
  /* USER CODE BEGIN UsageFault_IRQn 0 */

  /* USER CODE END UsageFault_IRQn 0 */
  while (1)
 8000940:	e7fe      	b.n	8000940 <UsageFault_Handler+0x4>

08000942 <SVC_Handler>:

/**
  * @brief This function handles System service call via SWI instruction.
  */
void SVC_Handler(void)
{
 8000942:	b480      	push	{r7}
 8000944:	af00      	add	r7, sp, #0

  /* USER CODE END SVCall_IRQn 0 */
  /* USER CODE BEGIN SVCall_IRQn 1 */

  /* USER CODE END SVCall_IRQn 1 */
}
 8000946:	bf00      	nop
 8000948:	46bd      	mov	sp, r7
 800094a:	f85d 7b04 	ldr.w	r7, [sp], #4
 800094e:	4770      	bx	lr

08000950 <DebugMon_Handler>:

/**
  * @brief This function handles Debug monitor.
  */
void DebugMon_Handler(void)
{
 8000950:	b480      	push	{r7}
 8000952:	af00      	add	r7, sp, #0

  /* USER CODE END DebugMonitor_IRQn 0 */
  /* USER CODE BEGIN DebugMonitor_IRQn 1 */

  /* USER CODE END DebugMonitor_IRQn 1 */
}
 8000954:	bf00      	nop
 8000956:	46bd      	mov	sp, r7
 8000958:	f85d 7b04 	ldr.w	r7, [sp], #4
 800095c:	4770      	bx	lr

0800095e <PendSV_Handler>:

/**
  * @brief This function handles Pendable request for system service.
  */
void PendSV_Handler(void)
{
 800095e:	b480      	push	{r7}
 8000960:	af00      	add	r7, sp, #0

  /* USER CODE END PendSV_IRQn 0 */
  /* USER CODE BEGIN PendSV_IRQn 1 */

  /* USER CODE END PendSV_IRQn 1 */
}
 8000962:	bf00      	nop
 8000964:	46bd      	mov	sp, r7
 8000966:	f85d 7b04 	ldr.w	r7, [sp], #4
 800096a:	4770      	bx	lr

0800096c <SysTick_Handler>:

/**
  * @brief This function handles System tick timer.
  */
void SysTick_Handler(void)
{
 800096c:	b580      	push	{r7, lr}
 800096e:	af00      	add	r7, sp, #0
  /* USER CODE BEGIN SysTick_IRQn 0 */

  /* USER CODE END SysTick_IRQn 0 */
  HAL_IncTick();
 8000970:	f000 fb62 	bl	8001038 <HAL_IncTick>
  /* USER CODE BEGIN SysTick_IRQn 1 */

  /* USER CODE END SysTick_IRQn 1 */
}
 8000974:	bf00      	nop
 8000976:	bd80      	pop	{r7, pc}

08000978 <USART1_IRQHandler>:

/**
  * @brief This function handles USART1 global interrupt / USART1 wake-up interrupt through EXTI line 25.
  */
void USART1_IRQHandler(void)
{
 8000978:	b580      	push	{r7, lr}
 800097a:	af00      	add	r7, sp, #0
  /* USER CODE BEGIN USART1_IRQn 0 */

  /* USER CODE END USART1_IRQn 0 */
  HAL_UART_IRQHandler(&huart1);
 800097c:	4802      	ldr	r0, [pc, #8]	; (8000988 <USART1_IRQHandler+0x10>)
 800097e:	f002 fe81 	bl	8003684 <HAL_UART_IRQHandler>
  /* USER CODE BEGIN USART1_IRQn 1 */

  /* USER CODE END USART1_IRQn 1 */
}
 8000982:	bf00      	nop
 8000984:	bd80      	pop	{r7, pc}
 8000986:	bf00      	nop
 8000988:	20000028 	.word	0x20000028

0800098c <USART2_IRQHandler>:

/**
  * @brief This function handles USART2 global interrupt / USART2 wake-up interrupt through EXTI line 26.
  */
void USART2_IRQHandler(void)
{
 800098c:	b580      	push	{r7, lr}
 800098e:	af00      	add	r7, sp, #0
  /* USER CODE BEGIN USART2_IRQn 0 */

  /* USER CODE END USART2_IRQn 0 */
  HAL_UART_IRQHandler(&huart2);
 8000990:	4802      	ldr	r0, [pc, #8]	; (800099c <USART2_IRQHandler+0x10>)
 8000992:	f002 fe77 	bl	8003684 <HAL_UART_IRQHandler>
  /* USER CODE BEGIN USART2_IRQn 1 */

  /* USER CODE END USART2_IRQn 1 */
}
 8000996:	bf00      	nop
 8000998:	bd80      	pop	{r7, pc}
 800099a:	bf00      	nop
 800099c:	200000ac 	.word	0x200000ac

080009a0 <SystemInit>:
  * @brief  Setup the microcontroller system
  * @param  None
  * @retval None
  */
void SystemInit(void)
{
 80009a0:	b480      	push	{r7}
 80009a2:	af00      	add	r7, sp, #0
/* FPU settings --------------------------------------------------------------*/
#if (__FPU_PRESENT == 1) && (__FPU_USED == 1)
  SCB->CPACR |= ((3UL << 10*2)|(3UL << 11*2));  /* set CP10 and CP11 Full Access */
 80009a4:	4b06      	ldr	r3, [pc, #24]	; (80009c0 <SystemInit+0x20>)
 80009a6:	f8d3 3088 	ldr.w	r3, [r3, #136]	; 0x88
 80009aa:	4a05      	ldr	r2, [pc, #20]	; (80009c0 <SystemInit+0x20>)
 80009ac:	f443 0370 	orr.w	r3, r3, #15728640	; 0xf00000
 80009b0:	f8c2 3088 	str.w	r3, [r2, #136]	; 0x88

  /* Configure the Vector Table location -------------------------------------*/
#if defined(USER_VECT_TAB_ADDRESS)
  SCB->VTOR = VECT_TAB_BASE_ADDRESS | VECT_TAB_OFFSET; /* Vector Table Relocation in Internal SRAM */
#endif /* USER_VECT_TAB_ADDRESS */
}
 80009b4:	bf00      	nop
 80009b6:	46bd      	mov	sp, r7
 80009b8:	f85d 7b04 	ldr.w	r7, [sp], #4
 80009bc:	4770      	bx	lr
 80009be:	bf00      	nop
 80009c0:	e000ed00 	.word	0xe000ed00

080009c4 <_Z4nop2v>:
const uint8_t MaxDataBytes = 64;

uint16_t CrC;
int HalStatus;

void nop2(){
 80009c4:	b480      	push	{r7}
 80009c6:	af00      	add	r7, sp, #0

}
 80009c8:	bf00      	nop
 80009ca:	46bd      	mov	sp, r7
 80009cc:	f85d 7b04 	ldr.w	r7, [sp], #4
 80009d0:	4770      	bx	lr
	...

080009d4 <_ZN12SAMBUSDriver6EncodeERK11SambusFramePhiS3_i>:
	return HalStatus;
}


SambusFlag SAMBUSDriver::Encode(const SambusFrame &TxFrame, uint8_t *sendData, int DataSize,uint8_t *destData, int PacketSize)
{
 80009d4:	b580      	push	{r7, lr}
 80009d6:	b088      	sub	sp, #32
 80009d8:	af00      	add	r7, sp, #0
 80009da:	60f8      	str	r0, [r7, #12]
 80009dc:	60b9      	str	r1, [r7, #8]
 80009de:	607a      	str	r2, [r7, #4]
 80009e0:	603b      	str	r3, [r7, #0]

	if (TxFrame.type > TypeBitmask){
 80009e2:	68bb      	ldr	r3, [r7, #8]
 80009e4:	781b      	ldrb	r3, [r3, #0]
 80009e6:	2b1f      	cmp	r3, #31
 80009e8:	d901      	bls.n	80009ee <_ZN12SAMBUSDriver6EncodeERK11SambusFramePhiS3_i+0x1a>
		return SambusFlag::ERROR_FRAME_INVALID;
 80009ea:	2301      	movs	r3, #1
 80009ec:	e05c      	b.n	8000aa8 <_ZN12SAMBUSDriver6EncodeERK11SambusFramePhiS3_i+0xd4>
	}

	else if (TxFrame.address > AddressBitmask){
 80009ee:	68bb      	ldr	r3, [r7, #8]
 80009f0:	785b      	ldrb	r3, [r3, #1]
 80009f2:	2b0f      	cmp	r3, #15
 80009f4:	d901      	bls.n	80009fa <_ZN12SAMBUSDriver6EncodeERK11SambusFramePhiS3_i+0x26>
		return SambusFlag::ERROR_FRAME_INVALID;
 80009f6:	2301      	movs	r3, #1
 80009f8:	e056      	b.n	8000aa8 <_ZN12SAMBUSDriver6EncodeERK11SambusFramePhiS3_i+0xd4>
	}

	else if (TxFrame.length > LengthBitmask){
 80009fa:	68bb      	ldr	r3, [r7, #8]
 80009fc:	789b      	ldrb	r3, [r3, #2]
 80009fe:	2b3f      	cmp	r3, #63	; 0x3f
 8000a00:	d901      	bls.n	8000a06 <_ZN12SAMBUSDriver6EncodeERK11SambusFramePhiS3_i+0x32>
		return SambusFlag::ERROR_FRAME_INVALID;
 8000a02:	2301      	movs	r3, #1
 8000a04:	e050      	b.n	8000aa8 <_ZN12SAMBUSDriver6EncodeERK11SambusFramePhiS3_i+0xd4>
	}

	else if (DataSize > MaxDataBytes){
 8000a06:	683b      	ldr	r3, [r7, #0]
 8000a08:	2b40      	cmp	r3, #64	; 0x40
 8000a0a:	dd01      	ble.n	8000a10 <_ZN12SAMBUSDriver6EncodeERK11SambusFramePhiS3_i+0x3c>
		return SambusFlag::ERROR_FRAME_INVALID;
 8000a0c:	2301      	movs	r3, #1
 8000a0e:	e04b      	b.n	8000aa8 <_ZN12SAMBUSDriver6EncodeERK11SambusFramePhiS3_i+0xd4>
	}

	int j = 0;
 8000a10:	2300      	movs	r3, #0
 8000a12:	61fb      	str	r3, [r7, #28]

	destData[0] = SAMBUS_HEADER;
 8000a14:	6abb      	ldr	r3, [r7, #40]	; 0x28
 8000a16:	22ff      	movs	r2, #255	; 0xff
 8000a18:	701a      	strb	r2, [r3, #0]
	destData[1] = TxFrame.type;
 8000a1a:	6abb      	ldr	r3, [r7, #40]	; 0x28
 8000a1c:	3301      	adds	r3, #1
 8000a1e:	68ba      	ldr	r2, [r7, #8]
 8000a20:	7812      	ldrb	r2, [r2, #0]
 8000a22:	701a      	strb	r2, [r3, #0]
	destData[2] = TxFrame.address;
 8000a24:	6abb      	ldr	r3, [r7, #40]	; 0x28
 8000a26:	3302      	adds	r3, #2
 8000a28:	68ba      	ldr	r2, [r7, #8]
 8000a2a:	7852      	ldrb	r2, [r2, #1]
 8000a2c:	701a      	strb	r2, [r3, #0]
	destData[3] = TxFrame.length;
 8000a2e:	6abb      	ldr	r3, [r7, #40]	; 0x28
 8000a30:	3303      	adds	r3, #3
 8000a32:	68ba      	ldr	r2, [r7, #8]
 8000a34:	7892      	ldrb	r2, [r2, #2]
 8000a36:	701a      	strb	r2, [r3, #0]

	for(int i = SpecBytes ; i < DataSize + SpecBytes + 1; i++){
 8000a38:	2304      	movs	r3, #4
 8000a3a:	61bb      	str	r3, [r7, #24]
 8000a3c:	683b      	ldr	r3, [r7, #0]
 8000a3e:	3304      	adds	r3, #4
 8000a40:	69ba      	ldr	r2, [r7, #24]
 8000a42:	429a      	cmp	r2, r3
 8000a44:	dc0e      	bgt.n	8000a64 <_ZN12SAMBUSDriver6EncodeERK11SambusFramePhiS3_i+0x90>
		destData[i] = sendData[j];
 8000a46:	69fb      	ldr	r3, [r7, #28]
 8000a48:	687a      	ldr	r2, [r7, #4]
 8000a4a:	441a      	add	r2, r3
 8000a4c:	69bb      	ldr	r3, [r7, #24]
 8000a4e:	6ab9      	ldr	r1, [r7, #40]	; 0x28
 8000a50:	440b      	add	r3, r1
 8000a52:	7812      	ldrb	r2, [r2, #0]
 8000a54:	701a      	strb	r2, [r3, #0]
		j++;
 8000a56:	69fb      	ldr	r3, [r7, #28]
 8000a58:	3301      	adds	r3, #1
 8000a5a:	61fb      	str	r3, [r7, #28]
	for(int i = SpecBytes ; i < DataSize + SpecBytes + 1; i++){
 8000a5c:	69bb      	ldr	r3, [r7, #24]
 8000a5e:	3301      	adds	r3, #1
 8000a60:	61bb      	str	r3, [r7, #24]
 8000a62:	e7eb      	b.n	8000a3c <_ZN12SAMBUSDriver6EncodeERK11SambusFramePhiS3_i+0x68>
	}

	CrC = HAL_CRC_Calculate(&hcrc, (uint32_t*) destData, DataSize+4);
 8000a64:	683b      	ldr	r3, [r7, #0]
 8000a66:	3304      	adds	r3, #4
 8000a68:	461a      	mov	r2, r3
 8000a6a:	6ab9      	ldr	r1, [r7, #40]	; 0x28
 8000a6c:	4810      	ldr	r0, [pc, #64]	; (8000ab0 <_ZN12SAMBUSDriver6EncodeERK11SambusFramePhiS3_i+0xdc>)
 8000a6e:	f000 fc79 	bl	8001364 <HAL_CRC_Calculate>
 8000a72:	4603      	mov	r3, r0
 8000a74:	b29a      	uxth	r2, r3
 8000a76:	4b0f      	ldr	r3, [pc, #60]	; (8000ab4 <_ZN12SAMBUSDriver6EncodeERK11SambusFramePhiS3_i+0xe0>)
 8000a78:	801a      	strh	r2, [r3, #0]
	uint16_t crcmsb;
	uint16_t crclsb;
	crcmsb = CrC >> 8;
 8000a7a:	4b0e      	ldr	r3, [pc, #56]	; (8000ab4 <_ZN12SAMBUSDriver6EncodeERK11SambusFramePhiS3_i+0xe0>)
 8000a7c:	881b      	ldrh	r3, [r3, #0]
 8000a7e:	121b      	asrs	r3, r3, #8
 8000a80:	82fb      	strh	r3, [r7, #22]
	crclsb = CrC & 0x00ff;
 8000a82:	4b0c      	ldr	r3, [pc, #48]	; (8000ab4 <_ZN12SAMBUSDriver6EncodeERK11SambusFramePhiS3_i+0xe0>)
 8000a84:	881b      	ldrh	r3, [r3, #0]
 8000a86:	b2db      	uxtb	r3, r3
 8000a88:	82bb      	strh	r3, [r7, #20]

	destData[PacketSize-2] = (uint8_t) crcmsb;
 8000a8a:	6afb      	ldr	r3, [r7, #44]	; 0x2c
 8000a8c:	3b02      	subs	r3, #2
 8000a8e:	6aba      	ldr	r2, [r7, #40]	; 0x28
 8000a90:	4413      	add	r3, r2
 8000a92:	8afa      	ldrh	r2, [r7, #22]
 8000a94:	b2d2      	uxtb	r2, r2
 8000a96:	701a      	strb	r2, [r3, #0]
	destData[PacketSize-1] = (uint8_t) crclsb;
 8000a98:	6afb      	ldr	r3, [r7, #44]	; 0x2c
 8000a9a:	3b01      	subs	r3, #1
 8000a9c:	6aba      	ldr	r2, [r7, #40]	; 0x28
 8000a9e:	4413      	add	r3, r2
 8000aa0:	8aba      	ldrh	r2, [r7, #20]
 8000aa2:	b2d2      	uxtb	r2, r2
 8000aa4:	701a      	strb	r2, [r3, #0]



return SambusFlag::OK;
 8000aa6:	2300      	movs	r3, #0

}
 8000aa8:	4618      	mov	r0, r3
 8000aaa:	3720      	adds	r7, #32
 8000aac:	46bd      	mov	sp, r7
 8000aae:	bd80      	pop	{r7, pc}
 8000ab0:	20000130 	.word	0x20000130
 8000ab4:	20000154 	.word	0x20000154

08000ab8 <_ZN12SAMBUSDriver6DecodeER11SambusFramePhiS2_i>:


SambusFlag SAMBUSDriver::Decode(SambusFrame &RxFrame, uint8_t *recData, int DataSize, uint8_t *packetData, int PacketSize){
 8000ab8:	b580      	push	{r7, lr}
 8000aba:	b088      	sub	sp, #32
 8000abc:	af00      	add	r7, sp, #0
 8000abe:	60f8      	str	r0, [r7, #12]
 8000ac0:	60b9      	str	r1, [r7, #8]
 8000ac2:	607a      	str	r2, [r7, #4]
 8000ac4:	603b      	str	r3, [r7, #0]

	if (packetData[0] != SAMBUS_HEADER){
 8000ac6:	6abb      	ldr	r3, [r7, #40]	; 0x28
 8000ac8:	781b      	ldrb	r3, [r3, #0]
 8000aca:	2bff      	cmp	r3, #255	; 0xff
 8000acc:	d001      	beq.n	8000ad2 <_ZN12SAMBUSDriver6DecodeER11SambusFramePhiS2_i+0x1a>
		return SambusFlag::ERROR_NOFRAME;
 8000ace:	2303      	movs	r3, #3
 8000ad0:	e07d      	b.n	8000bce <_ZN12SAMBUSDriver6DecodeER11SambusFramePhiS2_i+0x116>
	}
	if (packetData[1] > TypeBitmask){
 8000ad2:	6abb      	ldr	r3, [r7, #40]	; 0x28
 8000ad4:	3301      	adds	r3, #1
 8000ad6:	781b      	ldrb	r3, [r3, #0]
 8000ad8:	2b1f      	cmp	r3, #31
 8000ada:	d901      	bls.n	8000ae0 <_ZN12SAMBUSDriver6DecodeER11SambusFramePhiS2_i+0x28>
		return SambusFlag::ERROR_FRAME_INVALID;
 8000adc:	2301      	movs	r3, #1
 8000ade:	e076      	b.n	8000bce <_ZN12SAMBUSDriver6DecodeER11SambusFramePhiS2_i+0x116>
	}

	else if (packetData[2] > AddressBitmask){
 8000ae0:	6abb      	ldr	r3, [r7, #40]	; 0x28
 8000ae2:	3302      	adds	r3, #2
 8000ae4:	781b      	ldrb	r3, [r3, #0]
 8000ae6:	2b0f      	cmp	r3, #15
 8000ae8:	d901      	bls.n	8000aee <_ZN12SAMBUSDriver6DecodeER11SambusFramePhiS2_i+0x36>
		return SambusFlag::ERROR_FRAME_INVALID;
 8000aea:	2301      	movs	r3, #1
 8000aec:	e06f      	b.n	8000bce <_ZN12SAMBUSDriver6DecodeER11SambusFramePhiS2_i+0x116>
	}

	else if (packetData[3] > LengthBitmask){
 8000aee:	6abb      	ldr	r3, [r7, #40]	; 0x28
 8000af0:	3303      	adds	r3, #3
 8000af2:	781b      	ldrb	r3, [r3, #0]
 8000af4:	2b3f      	cmp	r3, #63	; 0x3f
 8000af6:	d901      	bls.n	8000afc <_ZN12SAMBUSDriver6DecodeER11SambusFramePhiS2_i+0x44>
		return SambusFlag::ERROR_FRAME_INVALID;
 8000af8:	2301      	movs	r3, #1
 8000afa:	e068      	b.n	8000bce <_ZN12SAMBUSDriver6DecodeER11SambusFramePhiS2_i+0x116>
	}

	int j = 0;
 8000afc:	2300      	movs	r3, #0
 8000afe:	61fb      	str	r3, [r7, #28]
	uint16_t CrCCheck;
	RxFrame.type = packetData[1] & TypeBitmask;
 8000b00:	6abb      	ldr	r3, [r7, #40]	; 0x28
 8000b02:	3301      	adds	r3, #1
 8000b04:	781b      	ldrb	r3, [r3, #0]
 8000b06:	f003 031f 	and.w	r3, r3, #31
 8000b0a:	b2da      	uxtb	r2, r3
 8000b0c:	68bb      	ldr	r3, [r7, #8]
 8000b0e:	701a      	strb	r2, [r3, #0]
	RxFrame.address = packetData[2] & AddressBitmask;
 8000b10:	6abb      	ldr	r3, [r7, #40]	; 0x28
 8000b12:	3302      	adds	r3, #2
 8000b14:	781b      	ldrb	r3, [r3, #0]
 8000b16:	f003 030f 	and.w	r3, r3, #15
 8000b1a:	b2da      	uxtb	r2, r3
 8000b1c:	68bb      	ldr	r3, [r7, #8]
 8000b1e:	705a      	strb	r2, [r3, #1]
	RxFrame.length = packetData[3] & LengthBitmask;
 8000b20:	6abb      	ldr	r3, [r7, #40]	; 0x28
 8000b22:	3303      	adds	r3, #3
 8000b24:	781b      	ldrb	r3, [r3, #0]
 8000b26:	f003 033f 	and.w	r3, r3, #63	; 0x3f
 8000b2a:	b2da      	uxtb	r2, r3
 8000b2c:	68bb      	ldr	r3, [r7, #8]
 8000b2e:	709a      	strb	r2, [r3, #2]
	PacketSize = RxFrame.length + SpecBytes + CRCBytes;
 8000b30:	68bb      	ldr	r3, [r7, #8]
 8000b32:	789b      	ldrb	r3, [r3, #2]
 8000b34:	3306      	adds	r3, #6
 8000b36:	62fb      	str	r3, [r7, #44]	; 0x2c
	DataSize = RxFrame.length;
 8000b38:	68bb      	ldr	r3, [r7, #8]
 8000b3a:	789b      	ldrb	r3, [r3, #2]
 8000b3c:	603b      	str	r3, [r7, #0]
	nop2();
 8000b3e:	f7ff ff41 	bl	80009c4 <_Z4nop2v>

	for(int i = SpecBytes; i < RxFrame.length + SpecBytes + 1; i++){
 8000b42:	2304      	movs	r3, #4
 8000b44:	61bb      	str	r3, [r7, #24]
 8000b46:	68bb      	ldr	r3, [r7, #8]
 8000b48:	789b      	ldrb	r3, [r3, #2]
 8000b4a:	3304      	adds	r3, #4
 8000b4c:	69ba      	ldr	r2, [r7, #24]
 8000b4e:	429a      	cmp	r2, r3
 8000b50:	dc0e      	bgt.n	8000b70 <_ZN12SAMBUSDriver6DecodeER11SambusFramePhiS2_i+0xb8>

		recData[j] = packetData[i];
 8000b52:	69bb      	ldr	r3, [r7, #24]
 8000b54:	6aba      	ldr	r2, [r7, #40]	; 0x28
 8000b56:	441a      	add	r2, r3
 8000b58:	69fb      	ldr	r3, [r7, #28]
 8000b5a:	6879      	ldr	r1, [r7, #4]
 8000b5c:	440b      	add	r3, r1
 8000b5e:	7812      	ldrb	r2, [r2, #0]
 8000b60:	701a      	strb	r2, [r3, #0]
		j++;
 8000b62:	69fb      	ldr	r3, [r7, #28]
 8000b64:	3301      	adds	r3, #1
 8000b66:	61fb      	str	r3, [r7, #28]
	for(int i = SpecBytes; i < RxFrame.length + SpecBytes + 1; i++){
 8000b68:	69bb      	ldr	r3, [r7, #24]
 8000b6a:	3301      	adds	r3, #1
 8000b6c:	61bb      	str	r3, [r7, #24]
 8000b6e:	e7ea      	b.n	8000b46 <_ZN12SAMBUSDriver6DecodeER11SambusFramePhiS2_i+0x8e>
	}
	uint16_t crcmsb = packetData[PacketSize-2];
 8000b70:	6afb      	ldr	r3, [r7, #44]	; 0x2c
 8000b72:	3b02      	subs	r3, #2
 8000b74:	6aba      	ldr	r2, [r7, #40]	; 0x28
 8000b76:	4413      	add	r3, r2
 8000b78:	781b      	ldrb	r3, [r3, #0]
 8000b7a:	82fb      	strh	r3, [r7, #22]
	uint16_t crclsb = packetData[PacketSize-1];
 8000b7c:	6afb      	ldr	r3, [r7, #44]	; 0x2c
 8000b7e:	3b01      	subs	r3, #1
 8000b80:	6aba      	ldr	r2, [r7, #40]	; 0x28
 8000b82:	4413      	add	r3, r2
 8000b84:	781b      	ldrb	r3, [r3, #0]
 8000b86:	82bb      	strh	r3, [r7, #20]
	CrC = (crcmsb << 8) | (crclsb & 0xff);
 8000b88:	8afb      	ldrh	r3, [r7, #22]
 8000b8a:	021b      	lsls	r3, r3, #8
 8000b8c:	b21a      	sxth	r2, r3
 8000b8e:	f9b7 3014 	ldrsh.w	r3, [r7, #20]
 8000b92:	b2db      	uxtb	r3, r3
 8000b94:	b21b      	sxth	r3, r3
 8000b96:	4313      	orrs	r3, r2
 8000b98:	b21b      	sxth	r3, r3
 8000b9a:	b29a      	uxth	r2, r3
 8000b9c:	4b0e      	ldr	r3, [pc, #56]	; (8000bd8 <_ZN12SAMBUSDriver6DecodeER11SambusFramePhiS2_i+0x120>)
 8000b9e:	801a      	strh	r2, [r3, #0]

	CrCCheck = HAL_CRC_Calculate(&hcrc, (uint32_t*) packetData, (PacketSize - CRCBytes));
 8000ba0:	6afb      	ldr	r3, [r7, #44]	; 0x2c
 8000ba2:	3b02      	subs	r3, #2
 8000ba4:	461a      	mov	r2, r3
 8000ba6:	6ab9      	ldr	r1, [r7, #40]	; 0x28
 8000ba8:	480c      	ldr	r0, [pc, #48]	; (8000bdc <_ZN12SAMBUSDriver6DecodeER11SambusFramePhiS2_i+0x124>)
 8000baa:	f000 fbdb 	bl	8001364 <HAL_CRC_Calculate>
 8000bae:	4603      	mov	r3, r0
 8000bb0:	827b      	strh	r3, [r7, #18]

	if (CrCCheck != CrC){
 8000bb2:	4b09      	ldr	r3, [pc, #36]	; (8000bd8 <_ZN12SAMBUSDriver6DecodeER11SambusFramePhiS2_i+0x120>)
 8000bb4:	881b      	ldrh	r3, [r3, #0]
 8000bb6:	8a7a      	ldrh	r2, [r7, #18]
 8000bb8:	429a      	cmp	r2, r3
 8000bba:	d001      	beq.n	8000bc0 <_ZN12SAMBUSDriver6DecodeER11SambusFramePhiS2_i+0x108>
		return SambusFlag::ERROR_CRC;
 8000bbc:	2302      	movs	r3, #2
 8000bbe:	e006      	b.n	8000bce <_ZN12SAMBUSDriver6DecodeER11SambusFramePhiS2_i+0x116>
	}

	if (RxFrame.length > MaxDataBytes){
 8000bc0:	68bb      	ldr	r3, [r7, #8]
 8000bc2:	789b      	ldrb	r3, [r3, #2]
 8000bc4:	2b40      	cmp	r3, #64	; 0x40
 8000bc6:	d901      	bls.n	8000bcc <_ZN12SAMBUSDriver6DecodeER11SambusFramePhiS2_i+0x114>
		return SambusFlag::ERROR_FRAME_INVALID;
 8000bc8:	2301      	movs	r3, #1
 8000bca:	e000      	b.n	8000bce <_ZN12SAMBUSDriver6DecodeER11SambusFramePhiS2_i+0x116>
	}

	return SambusFlag::OK;
 8000bcc:	2300      	movs	r3, #0
}
 8000bce:	4618      	mov	r0, r3
 8000bd0:	3720      	adds	r7, #32
 8000bd2:	46bd      	mov	sp, r7
 8000bd4:	bd80      	pop	{r7, pc}
 8000bd6:	bf00      	nop
 8000bd8:	20000154 	.word	0x20000154
 8000bdc:	20000130 	.word	0x20000130

08000be0 <_Z3nopv>:
uint8_t PacketSizeFrameEdge;
uint8_t PacketSizeDataTooBig;



void nop(){
 8000be0:	b480      	push	{r7}
 8000be2:	af00      	add	r7, sp, #0

}
 8000be4:	bf00      	nop
 8000be6:	46bd      	mov	sp, r7
 8000be8:	f85d 7b04 	ldr.w	r7, [sp], #4
 8000bec:	4770      	bx	lr
	...

08000bf0 <start>:


void start(){
 8000bf0:	b5f0      	push	{r4, r5, r6, r7, lr}
 8000bf2:	b0c1      	sub	sp, #260	; 0x104
 8000bf4:	af02      	add	r7, sp, #8
	destDataNormal[0] = 0xff;

	SambusFlag DecodeCRC  = Sambus.Decode(RxFrameNormal, recDataNormal, RxDataSizeNormal, destDataNormal, RxPacketSizeNormal);

	nop();
	nop();
 8000bf6:	466b      	mov	r3, sp
 8000bf8:	461e      	mov	r6, r3
	TxFrameNormal.address = 0;
 8000bfa:	2300      	movs	r3, #0
 8000bfc:	f887 30b1 	strb.w	r3, [r7, #177]	; 0xb1
	TxFrameNormal.length = 12;
 8000c00:	230c      	movs	r3, #12
 8000c02:	f887 30b2 	strb.w	r3, [r7, #178]	; 0xb2
	TxFrameNormal.type = 0x3;
 8000c06:	2303      	movs	r3, #3
 8000c08:	f887 30b0 	strb.w	r3, [r7, #176]	; 0xb0
	uint8_t sendDataNormal[] = {0, 1, 2, 3, 4, 5, 6, 7, 8, 9, 10, 11};
 8000c0c:	4acb      	ldr	r2, [pc, #812]	; (8000f3c <start+0x34c>)
 8000c0e:	f107 03a4 	add.w	r3, r7, #164	; 0xa4
 8000c12:	ca07      	ldmia	r2, {r0, r1, r2}
 8000c14:	e883 0007 	stmia.w	r3, {r0, r1, r2}
	PacketSizeNormal = TxFrameNormal.length + SpecBytes;
 8000c18:	f897 30b2 	ldrb.w	r3, [r7, #178]	; 0xb2
 8000c1c:	3306      	adds	r3, #6
 8000c1e:	b2da      	uxtb	r2, r3
 8000c20:	4bc7      	ldr	r3, [pc, #796]	; (8000f40 <start+0x350>)
 8000c22:	701a      	strb	r2, [r3, #0]
	uint8_t destDataNormal[PacketSizeNormal];
 8000c24:	4bc6      	ldr	r3, [pc, #792]	; (8000f40 <start+0x350>)
 8000c26:	781b      	ldrb	r3, [r3, #0]
 8000c28:	1e5c      	subs	r4, r3, #1
 8000c2a:	f8c7 40f0 	str.w	r4, [r7, #240]	; 0xf0
 8000c2e:	4623      	mov	r3, r4
 8000c30:	3301      	adds	r3, #1
 8000c32:	4618      	mov	r0, r3
 8000c34:	f04f 0100 	mov.w	r1, #0
 8000c38:	f04f 0200 	mov.w	r2, #0
 8000c3c:	f04f 0300 	mov.w	r3, #0
 8000c40:	00cb      	lsls	r3, r1, #3
 8000c42:	ea43 7350 	orr.w	r3, r3, r0, lsr #29
 8000c46:	00c2      	lsls	r2, r0, #3
 8000c48:	4623      	mov	r3, r4
 8000c4a:	3301      	adds	r3, #1
 8000c4c:	4618      	mov	r0, r3
 8000c4e:	f04f 0100 	mov.w	r1, #0
 8000c52:	f04f 0200 	mov.w	r2, #0
 8000c56:	f04f 0300 	mov.w	r3, #0
 8000c5a:	00cb      	lsls	r3, r1, #3
 8000c5c:	ea43 7350 	orr.w	r3, r3, r0, lsr #29
 8000c60:	00c2      	lsls	r2, r0, #3
 8000c62:	4623      	mov	r3, r4
 8000c64:	3301      	adds	r3, #1
 8000c66:	3307      	adds	r3, #7
 8000c68:	08db      	lsrs	r3, r3, #3
 8000c6a:	00db      	lsls	r3, r3, #3
 8000c6c:	ebad 0d03 	sub.w	sp, sp, r3
 8000c70:	ab02      	add	r3, sp, #8
 8000c72:	3300      	adds	r3, #0
 8000c74:	f8c7 30f4 	str.w	r3, [r7, #244]	; 0xf4
	TxFrameTooBig.address = 7;
 8000c78:	2307      	movs	r3, #7
 8000c7a:	f887 30a1 	strb.w	r3, [r7, #161]	; 0xa1
	TxFrameTooBig.length = 16;
 8000c7e:	2310      	movs	r3, #16
 8000c80:	f887 30a2 	strb.w	r3, [r7, #162]	; 0xa2
	TxFrameTooBig.type = 0b00111111;
 8000c84:	233f      	movs	r3, #63	; 0x3f
 8000c86:	f887 30a0 	strb.w	r3, [r7, #160]	; 0xa0
	uint8_t sendDataFrameTooBig[] = {0, 1, 2, 3, 4, 5, 6, 7, 8, 9, 10, 11, 12, 13, 14, 15};
 8000c8a:	4bae      	ldr	r3, [pc, #696]	; (8000f44 <start+0x354>)
 8000c8c:	f107 0490 	add.w	r4, r7, #144	; 0x90
 8000c90:	cb0f      	ldmia	r3, {r0, r1, r2, r3}
 8000c92:	e884 000f 	stmia.w	r4, {r0, r1, r2, r3}
	PacketSizeTooBig = TxFrameTooBig.length + SpecBytes;
 8000c96:	f897 30a2 	ldrb.w	r3, [r7, #162]	; 0xa2
 8000c9a:	3306      	adds	r3, #6
 8000c9c:	b2da      	uxtb	r2, r3
 8000c9e:	4baa      	ldr	r3, [pc, #680]	; (8000f48 <start+0x358>)
 8000ca0:	701a      	strb	r2, [r3, #0]
	uint8_t destDataTooBig[PacketSizeTooBig];
 8000ca2:	4ba9      	ldr	r3, [pc, #676]	; (8000f48 <start+0x358>)
 8000ca4:	781b      	ldrb	r3, [r3, #0]
 8000ca6:	1e5c      	subs	r4, r3, #1
 8000ca8:	f8c7 40ec 	str.w	r4, [r7, #236]	; 0xec
 8000cac:	4623      	mov	r3, r4
 8000cae:	3301      	adds	r3, #1
 8000cb0:	4618      	mov	r0, r3
 8000cb2:	f04f 0100 	mov.w	r1, #0
 8000cb6:	f04f 0200 	mov.w	r2, #0
 8000cba:	f04f 0300 	mov.w	r3, #0
 8000cbe:	00cb      	lsls	r3, r1, #3
 8000cc0:	ea43 7350 	orr.w	r3, r3, r0, lsr #29
 8000cc4:	00c2      	lsls	r2, r0, #3
 8000cc6:	4623      	mov	r3, r4
 8000cc8:	3301      	adds	r3, #1
 8000cca:	4618      	mov	r0, r3
 8000ccc:	f04f 0100 	mov.w	r1, #0
 8000cd0:	f04f 0200 	mov.w	r2, #0
 8000cd4:	f04f 0300 	mov.w	r3, #0
 8000cd8:	00cb      	lsls	r3, r1, #3
 8000cda:	ea43 7350 	orr.w	r3, r3, r0, lsr #29
 8000cde:	00c2      	lsls	r2, r0, #3
 8000ce0:	4623      	mov	r3, r4
 8000ce2:	3301      	adds	r3, #1
 8000ce4:	3307      	adds	r3, #7
 8000ce6:	08db      	lsrs	r3, r3, #3
 8000ce8:	00db      	lsls	r3, r3, #3
 8000cea:	ebad 0d03 	sub.w	sp, sp, r3
 8000cee:	ab02      	add	r3, sp, #8
 8000cf0:	3300      	adds	r3, #0
 8000cf2:	f8c7 30e8 	str.w	r3, [r7, #232]	; 0xe8
	TxFrameFrameEdge.address = 0b00001111;
 8000cf6:	230f      	movs	r3, #15
 8000cf8:	f887 308d 	strb.w	r3, [r7, #141]	; 0x8d
	TxFrameFrameEdge.length = 12;
 8000cfc:	230c      	movs	r3, #12
 8000cfe:	f887 308e 	strb.w	r3, [r7, #142]	; 0x8e
	TxFrameFrameEdge.type = 0b00011111;
 8000d02:	231f      	movs	r3, #31
 8000d04:	f887 308c 	strb.w	r3, [r7, #140]	; 0x8c
	uint8_t sendDataFrameEdge[] = {0, 1, 2, 3, 4, 5, 6, 7, 8, 9, 10, 11};
 8000d08:	4a8c      	ldr	r2, [pc, #560]	; (8000f3c <start+0x34c>)
 8000d0a:	f107 0380 	add.w	r3, r7, #128	; 0x80
 8000d0e:	ca07      	ldmia	r2, {r0, r1, r2}
 8000d10:	e883 0007 	stmia.w	r3, {r0, r1, r2}
	PacketSizeFrameEdge = TxFrameFrameEdge.length + SpecBytes;
 8000d14:	f897 308e 	ldrb.w	r3, [r7, #142]	; 0x8e
 8000d18:	3306      	adds	r3, #6
 8000d1a:	b2da      	uxtb	r2, r3
 8000d1c:	4b8b      	ldr	r3, [pc, #556]	; (8000f4c <start+0x35c>)
 8000d1e:	701a      	strb	r2, [r3, #0]
	uint8_t destDataEdge[PacketSizeFrameEdge];
 8000d20:	4b8a      	ldr	r3, [pc, #552]	; (8000f4c <start+0x35c>)
 8000d22:	781b      	ldrb	r3, [r3, #0]
 8000d24:	1e5c      	subs	r4, r3, #1
 8000d26:	f8c7 40e4 	str.w	r4, [r7, #228]	; 0xe4
 8000d2a:	4623      	mov	r3, r4
 8000d2c:	3301      	adds	r3, #1
 8000d2e:	4618      	mov	r0, r3
 8000d30:	f04f 0100 	mov.w	r1, #0
 8000d34:	f04f 0200 	mov.w	r2, #0
 8000d38:	f04f 0300 	mov.w	r3, #0
 8000d3c:	00cb      	lsls	r3, r1, #3
 8000d3e:	ea43 7350 	orr.w	r3, r3, r0, lsr #29
 8000d42:	00c2      	lsls	r2, r0, #3
 8000d44:	4623      	mov	r3, r4
 8000d46:	3301      	adds	r3, #1
 8000d48:	4618      	mov	r0, r3
 8000d4a:	f04f 0100 	mov.w	r1, #0
 8000d4e:	f04f 0200 	mov.w	r2, #0
 8000d52:	f04f 0300 	mov.w	r3, #0
 8000d56:	00cb      	lsls	r3, r1, #3
 8000d58:	ea43 7350 	orr.w	r3, r3, r0, lsr #29
 8000d5c:	00c2      	lsls	r2, r0, #3
 8000d5e:	4623      	mov	r3, r4
 8000d60:	3301      	adds	r3, #1
 8000d62:	3307      	adds	r3, #7
 8000d64:	08db      	lsrs	r3, r3, #3
 8000d66:	00db      	lsls	r3, r3, #3
 8000d68:	ebad 0d03 	sub.w	sp, sp, r3
 8000d6c:	ab02      	add	r3, sp, #8
 8000d6e:	3300      	adds	r3, #0
 8000d70:	f8c7 30e0 	str.w	r3, [r7, #224]	; 0xe0
	TxFrameDataTooBig.address = 0;
 8000d74:	2300      	movs	r3, #0
 8000d76:	f887 307d 	strb.w	r3, [r7, #125]	; 0x7d
	TxFrameDataTooBig.length = 70;
 8000d7a:	2346      	movs	r3, #70	; 0x46
 8000d7c:	f887 307e 	strb.w	r3, [r7, #126]	; 0x7e
	TxFrameDataTooBig.type = 0x3;
 8000d80:	2303      	movs	r3, #3
 8000d82:	f887 307c 	strb.w	r3, [r7, #124]	; 0x7c
	uint8_t sendDataDataTooBig[] = {0, 1, 2, 3, 4, 5, 6, 7, 8, 9, 10, 11,0, 1, 2, 3, 4, 5, 6, 7, 8, 9, 10, 11,0, 1, 2, 3, 4, 5, 6, 7, 8, 9, 10, 11,0, 1, 2, 3, 4, 5, 6, 7, 8, 9, 10, 11, };
 8000d86:	4b72      	ldr	r3, [pc, #456]	; (8000f50 <start+0x360>)
 8000d88:	f107 044c 	add.w	r4, r7, #76	; 0x4c
 8000d8c:	461d      	mov	r5, r3
 8000d8e:	cd0f      	ldmia	r5!, {r0, r1, r2, r3}
 8000d90:	c40f      	stmia	r4!, {r0, r1, r2, r3}
 8000d92:	cd0f      	ldmia	r5!, {r0, r1, r2, r3}
 8000d94:	c40f      	stmia	r4!, {r0, r1, r2, r3}
 8000d96:	e895 000f 	ldmia.w	r5, {r0, r1, r2, r3}
 8000d9a:	e884 000f 	stmia.w	r4, {r0, r1, r2, r3}
	PacketSizeDataTooBig = TxFrameDataTooBig.length + SpecBytes;
 8000d9e:	f897 307e 	ldrb.w	r3, [r7, #126]	; 0x7e
 8000da2:	3306      	adds	r3, #6
 8000da4:	b2da      	uxtb	r2, r3
 8000da6:	4b6b      	ldr	r3, [pc, #428]	; (8000f54 <start+0x364>)
 8000da8:	701a      	strb	r2, [r3, #0]
	uint8_t destDataDataTooBig[PacketSizeDataTooBig];
 8000daa:	4b6a      	ldr	r3, [pc, #424]	; (8000f54 <start+0x364>)
 8000dac:	781b      	ldrb	r3, [r3, #0]
 8000dae:	1e5c      	subs	r4, r3, #1
 8000db0:	f8c7 40dc 	str.w	r4, [r7, #220]	; 0xdc
 8000db4:	4623      	mov	r3, r4
 8000db6:	3301      	adds	r3, #1
 8000db8:	4618      	mov	r0, r3
 8000dba:	f04f 0100 	mov.w	r1, #0
 8000dbe:	f04f 0200 	mov.w	r2, #0
 8000dc2:	f04f 0300 	mov.w	r3, #0
 8000dc6:	00cb      	lsls	r3, r1, #3
 8000dc8:	ea43 7350 	orr.w	r3, r3, r0, lsr #29
 8000dcc:	00c2      	lsls	r2, r0, #3
 8000dce:	4623      	mov	r3, r4
 8000dd0:	3301      	adds	r3, #1
 8000dd2:	4618      	mov	r0, r3
 8000dd4:	f04f 0100 	mov.w	r1, #0
 8000dd8:	f04f 0200 	mov.w	r2, #0
 8000ddc:	f04f 0300 	mov.w	r3, #0
 8000de0:	00cb      	lsls	r3, r1, #3
 8000de2:	ea43 7350 	orr.w	r3, r3, r0, lsr #29
 8000de6:	00c2      	lsls	r2, r0, #3
 8000de8:	4623      	mov	r3, r4
 8000dea:	3301      	adds	r3, #1
 8000dec:	3307      	adds	r3, #7
 8000dee:	08db      	lsrs	r3, r3, #3
 8000df0:	00db      	lsls	r3, r3, #3
 8000df2:	ebad 0d03 	sub.w	sp, sp, r3
 8000df6:	ab02      	add	r3, sp, #8
 8000df8:	3300      	adds	r3, #0
 8000dfa:	f8c7 30d8 	str.w	r3, [r7, #216]	; 0xd8
	SambusFlag EncodeNormal = Sambus.Encode(TxFrameNormal, sendDataNormal, TxFrameNormal.length, destDataNormal, PacketSizeNormal);
 8000dfe:	f897 30b2 	ldrb.w	r3, [r7, #178]	; 0xb2
 8000e02:	461d      	mov	r5, r3
 8000e04:	f8d7 30f4 	ldr.w	r3, [r7, #244]	; 0xf4
 8000e08:	4a4d      	ldr	r2, [pc, #308]	; (8000f40 <start+0x350>)
 8000e0a:	7812      	ldrb	r2, [r2, #0]
 8000e0c:	4614      	mov	r4, r2
 8000e0e:	f107 02a4 	add.w	r2, r7, #164	; 0xa4
 8000e12:	f107 01b0 	add.w	r1, r7, #176	; 0xb0
 8000e16:	f107 00b4 	add.w	r0, r7, #180	; 0xb4
 8000e1a:	9401      	str	r4, [sp, #4]
 8000e1c:	9300      	str	r3, [sp, #0]
 8000e1e:	462b      	mov	r3, r5
 8000e20:	f7ff fdd8 	bl	80009d4 <_ZN12SAMBUSDriver6EncodeERK11SambusFramePhiS3_i>
 8000e24:	f8c7 00d4 	str.w	r0, [r7, #212]	; 0xd4
	SambusFlag EncodeFrameTooBig = Sambus.Encode(TxFrameTooBig, sendDataFrameTooBig, TxFrameTooBig.length, destDataTooBig, PacketSizeTooBig);
 8000e28:	f897 30a2 	ldrb.w	r3, [r7, #162]	; 0xa2
 8000e2c:	461d      	mov	r5, r3
 8000e2e:	f8d7 30e8 	ldr.w	r3, [r7, #232]	; 0xe8
 8000e32:	4a45      	ldr	r2, [pc, #276]	; (8000f48 <start+0x358>)
 8000e34:	7812      	ldrb	r2, [r2, #0]
 8000e36:	4614      	mov	r4, r2
 8000e38:	f107 0290 	add.w	r2, r7, #144	; 0x90
 8000e3c:	f107 01a0 	add.w	r1, r7, #160	; 0xa0
 8000e40:	f107 00b4 	add.w	r0, r7, #180	; 0xb4
 8000e44:	9401      	str	r4, [sp, #4]
 8000e46:	9300      	str	r3, [sp, #0]
 8000e48:	462b      	mov	r3, r5
 8000e4a:	f7ff fdc3 	bl	80009d4 <_ZN12SAMBUSDriver6EncodeERK11SambusFramePhiS3_i>
 8000e4e:	f8c7 00d0 	str.w	r0, [r7, #208]	; 0xd0
	SambusFlag EncodeFrameEdge = Sambus.Encode(TxFrameFrameEdge, sendDataFrameEdge, TxFrameFrameEdge.length, destDataEdge, PacketSizeFrameEdge);
 8000e52:	f897 308e 	ldrb.w	r3, [r7, #142]	; 0x8e
 8000e56:	461d      	mov	r5, r3
 8000e58:	f8d7 30e0 	ldr.w	r3, [r7, #224]	; 0xe0
 8000e5c:	4a3b      	ldr	r2, [pc, #236]	; (8000f4c <start+0x35c>)
 8000e5e:	7812      	ldrb	r2, [r2, #0]
 8000e60:	4614      	mov	r4, r2
 8000e62:	f107 0280 	add.w	r2, r7, #128	; 0x80
 8000e66:	f107 018c 	add.w	r1, r7, #140	; 0x8c
 8000e6a:	f107 00b4 	add.w	r0, r7, #180	; 0xb4
 8000e6e:	9401      	str	r4, [sp, #4]
 8000e70:	9300      	str	r3, [sp, #0]
 8000e72:	462b      	mov	r3, r5
 8000e74:	f7ff fdae 	bl	80009d4 <_ZN12SAMBUSDriver6EncodeERK11SambusFramePhiS3_i>
 8000e78:	f8c7 00cc 	str.w	r0, [r7, #204]	; 0xcc
	SambusFlag EncodeDataTooBig = Sambus.Encode(TxFrameDataTooBig, sendDataDataTooBig, TxFrameDataTooBig.length, destDataDataTooBig, PacketSizeDataTooBig);
 8000e7c:	f897 307e 	ldrb.w	r3, [r7, #126]	; 0x7e
 8000e80:	461d      	mov	r5, r3
 8000e82:	f8d7 30d8 	ldr.w	r3, [r7, #216]	; 0xd8
 8000e86:	4a33      	ldr	r2, [pc, #204]	; (8000f54 <start+0x364>)
 8000e88:	7812      	ldrb	r2, [r2, #0]
 8000e8a:	4614      	mov	r4, r2
 8000e8c:	f107 024c 	add.w	r2, r7, #76	; 0x4c
 8000e90:	f107 017c 	add.w	r1, r7, #124	; 0x7c
 8000e94:	f107 00b4 	add.w	r0, r7, #180	; 0xb4
 8000e98:	9401      	str	r4, [sp, #4]
 8000e9a:	9300      	str	r3, [sp, #0]
 8000e9c:	462b      	mov	r3, r5
 8000e9e:	f7ff fd99 	bl	80009d4 <_ZN12SAMBUSDriver6EncodeERK11SambusFramePhiS3_i>
 8000ea2:	f8c7 00c8 	str.w	r0, [r7, #200]	; 0xc8
	nop();
 8000ea6:	f7ff fe9b 	bl	8000be0 <_Z3nopv>
	int RxPacketSizeNormal = 0;
 8000eaa:	2300      	movs	r3, #0
 8000eac:	f8c7 30c4 	str.w	r3, [r7, #196]	; 0xc4
	int RxDataSizeNormal = 0;
 8000eb0:	2300      	movs	r3, #0
 8000eb2:	f8c7 30c0 	str.w	r3, [r7, #192]	; 0xc0
	destDataNormal[0] = 0xc2;
 8000eb6:	f8d7 30f4 	ldr.w	r3, [r7, #244]	; 0xf4
 8000eba:	22c2      	movs	r2, #194	; 0xc2
 8000ebc:	701a      	strb	r2, [r3, #0]
	destDataNormal[TxFrameNormal.length + 4] = 0xaa;
 8000ebe:	f897 30b2 	ldrb.w	r3, [r7, #178]	; 0xb2
 8000ec2:	3304      	adds	r3, #4
 8000ec4:	f8d7 20f4 	ldr.w	r2, [r7, #244]	; 0xf4
 8000ec8:	21aa      	movs	r1, #170	; 0xaa
 8000eca:	54d1      	strb	r1, [r2, r3]
	destDataNormal[TxFrameNormal.length + 5] = 0x00;
 8000ecc:	f897 30b2 	ldrb.w	r3, [r7, #178]	; 0xb2
 8000ed0:	3305      	adds	r3, #5
 8000ed2:	f8d7 20f4 	ldr.w	r2, [r7, #244]	; 0xf4
 8000ed6:	2100      	movs	r1, #0
 8000ed8:	54d1      	strb	r1, [r2, r3]
	SambusFlag DecodeHeader  = Sambus.Decode(RxFrameNormal, recDataNormal, RxDataSizeNormal, destDataNormal, RxPacketSizeNormal);
 8000eda:	f8d7 30f4 	ldr.w	r3, [r7, #244]	; 0xf4
 8000ede:	463c      	mov	r4, r7
 8000ee0:	f107 0148 	add.w	r1, r7, #72	; 0x48
 8000ee4:	f107 00b4 	add.w	r0, r7, #180	; 0xb4
 8000ee8:	f8d7 20c4 	ldr.w	r2, [r7, #196]	; 0xc4
 8000eec:	9201      	str	r2, [sp, #4]
 8000eee:	9300      	str	r3, [sp, #0]
 8000ef0:	f8d7 30c0 	ldr.w	r3, [r7, #192]	; 0xc0
 8000ef4:	4622      	mov	r2, r4
 8000ef6:	f7ff fddf 	bl	8000ab8 <_ZN12SAMBUSDriver6DecodeER11SambusFramePhiS2_i>
 8000efa:	f8c7 00bc 	str.w	r0, [r7, #188]	; 0xbc
	destDataNormal[0] = 0xff;
 8000efe:	f8d7 30f4 	ldr.w	r3, [r7, #244]	; 0xf4
 8000f02:	22ff      	movs	r2, #255	; 0xff
 8000f04:	701a      	strb	r2, [r3, #0]
	SambusFlag DecodeCRC  = Sambus.Decode(RxFrameNormal, recDataNormal, RxDataSizeNormal, destDataNormal, RxPacketSizeNormal);
 8000f06:	f8d7 30f4 	ldr.w	r3, [r7, #244]	; 0xf4
 8000f0a:	463c      	mov	r4, r7
 8000f0c:	f107 0148 	add.w	r1, r7, #72	; 0x48
 8000f10:	f107 00b4 	add.w	r0, r7, #180	; 0xb4
 8000f14:	f8d7 20c4 	ldr.w	r2, [r7, #196]	; 0xc4
 8000f18:	9201      	str	r2, [sp, #4]
 8000f1a:	9300      	str	r3, [sp, #0]
 8000f1c:	f8d7 30c0 	ldr.w	r3, [r7, #192]	; 0xc0
 8000f20:	4622      	mov	r2, r4
 8000f22:	f7ff fdc9 	bl	8000ab8 <_ZN12SAMBUSDriver6DecodeER11SambusFramePhiS2_i>
 8000f26:	f8c7 00b8 	str.w	r0, [r7, #184]	; 0xb8
	nop();
 8000f2a:	f7ff fe59 	bl	8000be0 <_Z3nopv>
	nop();
 8000f2e:	f7ff fe57 	bl	8000be0 <_Z3nopv>
 8000f32:	46b5      	mov	sp, r6
}
 8000f34:	bf00      	nop
 8000f36:	37fc      	adds	r7, #252	; 0xfc
 8000f38:	46bd      	mov	sp, r7
 8000f3a:	bdf0      	pop	{r4, r5, r6, r7, pc}
 8000f3c:	080045c8 	.word	0x080045c8
 8000f40:	20000156 	.word	0x20000156
 8000f44:	080045d4 	.word	0x080045d4
 8000f48:	20000157 	.word	0x20000157
 8000f4c:	20000158 	.word	0x20000158
 8000f50:	080045e4 	.word	0x080045e4
 8000f54:	20000159 	.word	0x20000159

08000f58 <Reset_Handler>:
*/

    .section	.text.Reset_Handler
	.weak	Reset_Handler
	.type	Reset_Handler, %function
Reset_Handler:  ldr   sp, =_estack    /* Atollic update: set stack pointer */
 8000f58:	f8df d034 	ldr.w	sp, [pc, #52]	; 8000f90 <LoopForever+0x2>

/* Copy the data segment initializers from flash to SRAM */
  ldr r0, =_sdata
 8000f5c:	480d      	ldr	r0, [pc, #52]	; (8000f94 <LoopForever+0x6>)
  ldr r1, =_edata
 8000f5e:	490e      	ldr	r1, [pc, #56]	; (8000f98 <LoopForever+0xa>)
  ldr r2, =_sidata
 8000f60:	4a0e      	ldr	r2, [pc, #56]	; (8000f9c <LoopForever+0xe>)
  movs r3, #0
 8000f62:	2300      	movs	r3, #0
  b LoopCopyDataInit
 8000f64:	e002      	b.n	8000f6c <LoopCopyDataInit>

08000f66 <CopyDataInit>:

CopyDataInit:
  ldr r4, [r2, r3]
 8000f66:	58d4      	ldr	r4, [r2, r3]
  str r4, [r0, r3]
 8000f68:	50c4      	str	r4, [r0, r3]
  adds r3, r3, #4
 8000f6a:	3304      	adds	r3, #4

08000f6c <LoopCopyDataInit>:

LoopCopyDataInit:
  adds r4, r0, r3
 8000f6c:	18c4      	adds	r4, r0, r3
  cmp r4, r1
 8000f6e:	428c      	cmp	r4, r1
  bcc CopyDataInit
 8000f70:	d3f9      	bcc.n	8000f66 <CopyDataInit>
  
/* Zero fill the bss segment. */
  ldr r2, =_sbss
 8000f72:	4a0b      	ldr	r2, [pc, #44]	; (8000fa0 <LoopForever+0x12>)
  ldr r4, =_ebss
 8000f74:	4c0b      	ldr	r4, [pc, #44]	; (8000fa4 <LoopForever+0x16>)
  movs r3, #0
 8000f76:	2300      	movs	r3, #0
  b LoopFillZerobss
 8000f78:	e001      	b.n	8000f7e <LoopFillZerobss>

08000f7a <FillZerobss>:

FillZerobss:
  str  r3, [r2]
 8000f7a:	6013      	str	r3, [r2, #0]
  adds r2, r2, #4
 8000f7c:	3204      	adds	r2, #4

08000f7e <LoopFillZerobss>:

LoopFillZerobss:
  cmp r2, r4
 8000f7e:	42a2      	cmp	r2, r4
  bcc FillZerobss
 8000f80:	d3fb      	bcc.n	8000f7a <FillZerobss>

/* Call the clock system intitialization function.*/
    bl  SystemInit
 8000f82:	f7ff fd0d 	bl	80009a0 <SystemInit>
/* Call static constructors */
    bl __libc_init_array
 8000f86:	f003 fae7 	bl	8004558 <__libc_init_array>
/* Call the application's entry point.*/
	bl	main
 8000f8a:	f7ff f975 	bl	8000278 <main>

08000f8e <LoopForever>:

LoopForever:
    b LoopForever
 8000f8e:	e7fe      	b.n	8000f8e <LoopForever>
Reset_Handler:  ldr   sp, =_estack    /* Atollic update: set stack pointer */
 8000f90:	2000a000 	.word	0x2000a000
  ldr r0, =_sdata
 8000f94:	20000000 	.word	0x20000000
  ldr r1, =_edata
 8000f98:	2000000c 	.word	0x2000000c
  ldr r2, =_sidata
 8000f9c:	08004654 	.word	0x08004654
  ldr r2, =_sbss
 8000fa0:	2000000c 	.word	0x2000000c
  ldr r4, =_ebss
 8000fa4:	200004fc 	.word	0x200004fc

08000fa8 <ADC1_2_IRQHandler>:
 * @retval : None
*/
    .section	.text.Default_Handler,"ax",%progbits
Default_Handler:
Infinite_Loop:
	b	Infinite_Loop
 8000fa8:	e7fe      	b.n	8000fa8 <ADC1_2_IRQHandler>
	...

08000fac <HAL_Init>:
  *         In the default implementation,Systick is used as source of time base.
  *       The tick variable is incremented each 1ms in its ISR.
  * @retval HAL status
  */
HAL_StatusTypeDef HAL_Init(void)
{
 8000fac:	b580      	push	{r7, lr}
 8000fae:	af00      	add	r7, sp, #0
  /* Configure Flash prefetch */
#if (PREFETCH_ENABLE != 0U)
  __HAL_FLASH_PREFETCH_BUFFER_ENABLE();
 8000fb0:	4b08      	ldr	r3, [pc, #32]	; (8000fd4 <HAL_Init+0x28>)
 8000fb2:	681b      	ldr	r3, [r3, #0]
 8000fb4:	4a07      	ldr	r2, [pc, #28]	; (8000fd4 <HAL_Init+0x28>)
 8000fb6:	f043 0310 	orr.w	r3, r3, #16
 8000fba:	6013      	str	r3, [r2, #0]
#endif /* PREFETCH_ENABLE */

  /* Set Interrupt Group Priority */
  HAL_NVIC_SetPriorityGrouping(NVIC_PRIORITYGROUP_4);
 8000fbc:	2003      	movs	r0, #3
 8000fbe:	f000 f92b 	bl	8001218 <HAL_NVIC_SetPriorityGrouping>

  /* Enable systick and configure 1ms tick (default clock after Reset is HSI) */
  HAL_InitTick(TICK_INT_PRIORITY);
 8000fc2:	2000      	movs	r0, #0
 8000fc4:	f000 f808 	bl	8000fd8 <HAL_InitTick>

  /* Init the low level hardware */
  HAL_MspInit();
 8000fc8:	f7ff fb1a 	bl	8000600 <HAL_MspInit>

  /* Return function status */
  return HAL_OK;
 8000fcc:	2300      	movs	r3, #0
}
 8000fce:	4618      	mov	r0, r3
 8000fd0:	bd80      	pop	{r7, pc}
 8000fd2:	bf00      	nop
 8000fd4:	40022000 	.word	0x40022000

08000fd8 <HAL_InitTick>:
  *         implementation  in user file.
  * @param TickPriority Tick interrupt priority.
  * @retval HAL status
  */
__weak HAL_StatusTypeDef HAL_InitTick(uint32_t TickPriority)
{
 8000fd8:	b580      	push	{r7, lr}
 8000fda:	b082      	sub	sp, #8
 8000fdc:	af00      	add	r7, sp, #0
 8000fde:	6078      	str	r0, [r7, #4]
  /* Configure the SysTick to have interrupt in 1ms time basis*/
  if (HAL_SYSTICK_Config(SystemCoreClock / (1000U / uwTickFreq)) > 0U)
 8000fe0:	4b12      	ldr	r3, [pc, #72]	; (800102c <HAL_InitTick+0x54>)
 8000fe2:	681a      	ldr	r2, [r3, #0]
 8000fe4:	4b12      	ldr	r3, [pc, #72]	; (8001030 <HAL_InitTick+0x58>)
 8000fe6:	781b      	ldrb	r3, [r3, #0]
 8000fe8:	4619      	mov	r1, r3
 8000fea:	f44f 737a 	mov.w	r3, #1000	; 0x3e8
 8000fee:	fbb3 f3f1 	udiv	r3, r3, r1
 8000ff2:	fbb2 f3f3 	udiv	r3, r2, r3
 8000ff6:	4618      	mov	r0, r3
 8000ff8:	f000 f943 	bl	8001282 <HAL_SYSTICK_Config>
 8000ffc:	4603      	mov	r3, r0
 8000ffe:	2b00      	cmp	r3, #0
 8001000:	d001      	beq.n	8001006 <HAL_InitTick+0x2e>
  {
    return HAL_ERROR;
 8001002:	2301      	movs	r3, #1
 8001004:	e00e      	b.n	8001024 <HAL_InitTick+0x4c>
  }

  /* Configure the SysTick IRQ priority */
  if (TickPriority < (1UL << __NVIC_PRIO_BITS))
 8001006:	687b      	ldr	r3, [r7, #4]
 8001008:	2b0f      	cmp	r3, #15
 800100a:	d80a      	bhi.n	8001022 <HAL_InitTick+0x4a>
  {
    HAL_NVIC_SetPriority(SysTick_IRQn, TickPriority, 0U);
 800100c:	2200      	movs	r2, #0
 800100e:	6879      	ldr	r1, [r7, #4]
 8001010:	f04f 30ff 	mov.w	r0, #4294967295
 8001014:	f000 f90b 	bl	800122e <HAL_NVIC_SetPriority>
    uwTickPrio = TickPriority;
 8001018:	4a06      	ldr	r2, [pc, #24]	; (8001034 <HAL_InitTick+0x5c>)
 800101a:	687b      	ldr	r3, [r7, #4]
 800101c:	6013      	str	r3, [r2, #0]
  else
  {
    return HAL_ERROR;
  }
   /* Return function status */
  return HAL_OK;
 800101e:	2300      	movs	r3, #0
 8001020:	e000      	b.n	8001024 <HAL_InitTick+0x4c>
    return HAL_ERROR;
 8001022:	2301      	movs	r3, #1
}
 8001024:	4618      	mov	r0, r3
 8001026:	3708      	adds	r7, #8
 8001028:	46bd      	mov	sp, r7
 800102a:	bd80      	pop	{r7, pc}
 800102c:	20000000 	.word	0x20000000
 8001030:	20000008 	.word	0x20000008
 8001034:	20000004 	.word	0x20000004

08001038 <HAL_IncTick>:
  * @note This function is declared as __weak to be overwritten in case of other 
  *         implementations  in user file.
  * @retval None
  */
__weak void HAL_IncTick(void)
{
 8001038:	b480      	push	{r7}
 800103a:	af00      	add	r7, sp, #0
  uwTick += uwTickFreq;
 800103c:	4b06      	ldr	r3, [pc, #24]	; (8001058 <HAL_IncTick+0x20>)
 800103e:	781b      	ldrb	r3, [r3, #0]
 8001040:	461a      	mov	r2, r3
 8001042:	4b06      	ldr	r3, [pc, #24]	; (800105c <HAL_IncTick+0x24>)
 8001044:	681b      	ldr	r3, [r3, #0]
 8001046:	4413      	add	r3, r2
 8001048:	4a04      	ldr	r2, [pc, #16]	; (800105c <HAL_IncTick+0x24>)
 800104a:	6013      	str	r3, [r2, #0]
}
 800104c:	bf00      	nop
 800104e:	46bd      	mov	sp, r7
 8001050:	f85d 7b04 	ldr.w	r7, [sp], #4
 8001054:	4770      	bx	lr
 8001056:	bf00      	nop
 8001058:	20000008 	.word	0x20000008
 800105c:	200004f8 	.word	0x200004f8

08001060 <HAL_GetTick>:
  * @note   The function is declared as __Weak  to be overwritten  in case of other 
  *         implementations  in user file.
  * @retval tick value
  */
__weak uint32_t HAL_GetTick(void)
{
 8001060:	b480      	push	{r7}
 8001062:	af00      	add	r7, sp, #0
  return uwTick;  
 8001064:	4b03      	ldr	r3, [pc, #12]	; (8001074 <HAL_GetTick+0x14>)
 8001066:	681b      	ldr	r3, [r3, #0]
}
 8001068:	4618      	mov	r0, r3
 800106a:	46bd      	mov	sp, r7
 800106c:	f85d 7b04 	ldr.w	r7, [sp], #4
 8001070:	4770      	bx	lr
 8001072:	bf00      	nop
 8001074:	200004f8 	.word	0x200004f8

08001078 <__NVIC_SetPriorityGrouping>:
           In case of a conflict between priority grouping and available
           priority bits (__NVIC_PRIO_BITS), the smallest possible priority group is set.
  \param [in]      PriorityGroup  Priority grouping field.
 */
__STATIC_INLINE void __NVIC_SetPriorityGrouping(uint32_t PriorityGroup)
{
 8001078:	b480      	push	{r7}
 800107a:	b085      	sub	sp, #20
 800107c:	af00      	add	r7, sp, #0
 800107e:	6078      	str	r0, [r7, #4]
  uint32_t reg_value;
  uint32_t PriorityGroupTmp = (PriorityGroup & (uint32_t)0x07UL);             /* only values 0..7 are used          */
 8001080:	687b      	ldr	r3, [r7, #4]
 8001082:	f003 0307 	and.w	r3, r3, #7
 8001086:	60fb      	str	r3, [r7, #12]

  reg_value  =  SCB->AIRCR;                                                   /* read old register configuration    */
 8001088:	4b0c      	ldr	r3, [pc, #48]	; (80010bc <__NVIC_SetPriorityGrouping+0x44>)
 800108a:	68db      	ldr	r3, [r3, #12]
 800108c:	60bb      	str	r3, [r7, #8]
  reg_value &= ~((uint32_t)(SCB_AIRCR_VECTKEY_Msk | SCB_AIRCR_PRIGROUP_Msk)); /* clear bits to change               */
 800108e:	68ba      	ldr	r2, [r7, #8]
 8001090:	f64f 03ff 	movw	r3, #63743	; 0xf8ff
 8001094:	4013      	ands	r3, r2
 8001096:	60bb      	str	r3, [r7, #8]
  reg_value  =  (reg_value                                   |
                ((uint32_t)0x5FAUL << SCB_AIRCR_VECTKEY_Pos) |
                (PriorityGroupTmp << SCB_AIRCR_PRIGROUP_Pos)  );              /* Insert write key and priority group */
 8001098:	68fb      	ldr	r3, [r7, #12]
 800109a:	021a      	lsls	r2, r3, #8
                ((uint32_t)0x5FAUL << SCB_AIRCR_VECTKEY_Pos) |
 800109c:	68bb      	ldr	r3, [r7, #8]
 800109e:	4313      	orrs	r3, r2
  reg_value  =  (reg_value                                   |
 80010a0:	f043 63bf 	orr.w	r3, r3, #100139008	; 0x5f80000
 80010a4:	f443 3300 	orr.w	r3, r3, #131072	; 0x20000
 80010a8:	60bb      	str	r3, [r7, #8]
  SCB->AIRCR =  reg_value;
 80010aa:	4a04      	ldr	r2, [pc, #16]	; (80010bc <__NVIC_SetPriorityGrouping+0x44>)
 80010ac:	68bb      	ldr	r3, [r7, #8]
 80010ae:	60d3      	str	r3, [r2, #12]
}
 80010b0:	bf00      	nop
 80010b2:	3714      	adds	r7, #20
 80010b4:	46bd      	mov	sp, r7
 80010b6:	f85d 7b04 	ldr.w	r7, [sp], #4
 80010ba:	4770      	bx	lr
 80010bc:	e000ed00 	.word	0xe000ed00

080010c0 <__NVIC_GetPriorityGrouping>:
  \brief   Get Priority Grouping
  \details Reads the priority grouping field from the NVIC Interrupt Controller.
  \return                Priority grouping field (SCB->AIRCR [10:8] PRIGROUP field).
 */
__STATIC_INLINE uint32_t __NVIC_GetPriorityGrouping(void)
{
 80010c0:	b480      	push	{r7}
 80010c2:	af00      	add	r7, sp, #0
  return ((uint32_t)((SCB->AIRCR & SCB_AIRCR_PRIGROUP_Msk) >> SCB_AIRCR_PRIGROUP_Pos));
 80010c4:	4b04      	ldr	r3, [pc, #16]	; (80010d8 <__NVIC_GetPriorityGrouping+0x18>)
 80010c6:	68db      	ldr	r3, [r3, #12]
 80010c8:	0a1b      	lsrs	r3, r3, #8
 80010ca:	f003 0307 	and.w	r3, r3, #7
}
 80010ce:	4618      	mov	r0, r3
 80010d0:	46bd      	mov	sp, r7
 80010d2:	f85d 7b04 	ldr.w	r7, [sp], #4
 80010d6:	4770      	bx	lr
 80010d8:	e000ed00 	.word	0xe000ed00

080010dc <__NVIC_EnableIRQ>:
  \details Enables a device specific interrupt in the NVIC interrupt controller.
  \param [in]      IRQn  Device specific interrupt number.
  \note    IRQn must not be negative.
 */
__STATIC_INLINE void __NVIC_EnableIRQ(IRQn_Type IRQn)
{
 80010dc:	b480      	push	{r7}
 80010de:	b083      	sub	sp, #12
 80010e0:	af00      	add	r7, sp, #0
 80010e2:	4603      	mov	r3, r0
 80010e4:	71fb      	strb	r3, [r7, #7]
  if ((int32_t)(IRQn) >= 0)
 80010e6:	f997 3007 	ldrsb.w	r3, [r7, #7]
 80010ea:	2b00      	cmp	r3, #0
 80010ec:	db0b      	blt.n	8001106 <__NVIC_EnableIRQ+0x2a>
  {
    NVIC->ISER[(((uint32_t)IRQn) >> 5UL)] = (uint32_t)(1UL << (((uint32_t)IRQn) & 0x1FUL));
 80010ee:	79fb      	ldrb	r3, [r7, #7]
 80010f0:	f003 021f 	and.w	r2, r3, #31
 80010f4:	4907      	ldr	r1, [pc, #28]	; (8001114 <__NVIC_EnableIRQ+0x38>)
 80010f6:	f997 3007 	ldrsb.w	r3, [r7, #7]
 80010fa:	095b      	lsrs	r3, r3, #5
 80010fc:	2001      	movs	r0, #1
 80010fe:	fa00 f202 	lsl.w	r2, r0, r2
 8001102:	f841 2023 	str.w	r2, [r1, r3, lsl #2]
  }
}
 8001106:	bf00      	nop
 8001108:	370c      	adds	r7, #12
 800110a:	46bd      	mov	sp, r7
 800110c:	f85d 7b04 	ldr.w	r7, [sp], #4
 8001110:	4770      	bx	lr
 8001112:	bf00      	nop
 8001114:	e000e100 	.word	0xe000e100

08001118 <__NVIC_SetPriority>:
  \param [in]      IRQn  Interrupt number.
  \param [in]  priority  Priority to set.
  \note    The priority cannot be set for every processor exception.
 */
__STATIC_INLINE void __NVIC_SetPriority(IRQn_Type IRQn, uint32_t priority)
{
 8001118:	b480      	push	{r7}
 800111a:	b083      	sub	sp, #12
 800111c:	af00      	add	r7, sp, #0
 800111e:	4603      	mov	r3, r0
 8001120:	6039      	str	r1, [r7, #0]
 8001122:	71fb      	strb	r3, [r7, #7]
  if ((int32_t)(IRQn) >= 0)
 8001124:	f997 3007 	ldrsb.w	r3, [r7, #7]
 8001128:	2b00      	cmp	r3, #0
 800112a:	db0a      	blt.n	8001142 <__NVIC_SetPriority+0x2a>
  {
    NVIC->IP[((uint32_t)IRQn)]               = (uint8_t)((priority << (8U - __NVIC_PRIO_BITS)) & (uint32_t)0xFFUL);
 800112c:	683b      	ldr	r3, [r7, #0]
 800112e:	b2da      	uxtb	r2, r3
 8001130:	490c      	ldr	r1, [pc, #48]	; (8001164 <__NVIC_SetPriority+0x4c>)
 8001132:	f997 3007 	ldrsb.w	r3, [r7, #7]
 8001136:	0112      	lsls	r2, r2, #4
 8001138:	b2d2      	uxtb	r2, r2
 800113a:	440b      	add	r3, r1
 800113c:	f883 2300 	strb.w	r2, [r3, #768]	; 0x300
  }
  else
  {
    SCB->SHP[(((uint32_t)IRQn) & 0xFUL)-4UL] = (uint8_t)((priority << (8U - __NVIC_PRIO_BITS)) & (uint32_t)0xFFUL);
  }
}
 8001140:	e00a      	b.n	8001158 <__NVIC_SetPriority+0x40>
    SCB->SHP[(((uint32_t)IRQn) & 0xFUL)-4UL] = (uint8_t)((priority << (8U - __NVIC_PRIO_BITS)) & (uint32_t)0xFFUL);
 8001142:	683b      	ldr	r3, [r7, #0]
 8001144:	b2da      	uxtb	r2, r3
 8001146:	4908      	ldr	r1, [pc, #32]	; (8001168 <__NVIC_SetPriority+0x50>)
 8001148:	79fb      	ldrb	r3, [r7, #7]
 800114a:	f003 030f 	and.w	r3, r3, #15
 800114e:	3b04      	subs	r3, #4
 8001150:	0112      	lsls	r2, r2, #4
 8001152:	b2d2      	uxtb	r2, r2
 8001154:	440b      	add	r3, r1
 8001156:	761a      	strb	r2, [r3, #24]
}
 8001158:	bf00      	nop
 800115a:	370c      	adds	r7, #12
 800115c:	46bd      	mov	sp, r7
 800115e:	f85d 7b04 	ldr.w	r7, [sp], #4
 8001162:	4770      	bx	lr
 8001164:	e000e100 	.word	0xe000e100
 8001168:	e000ed00 	.word	0xe000ed00

0800116c <NVIC_EncodePriority>:
  \param [in]   PreemptPriority  Preemptive priority value (starting from 0).
  \param [in]       SubPriority  Subpriority value (starting from 0).
  \return                        Encoded priority. Value can be used in the function \ref NVIC_SetPriority().
 */
__STATIC_INLINE uint32_t NVIC_EncodePriority (uint32_t PriorityGroup, uint32_t PreemptPriority, uint32_t SubPriority)
{
 800116c:	b480      	push	{r7}
 800116e:	b089      	sub	sp, #36	; 0x24
 8001170:	af00      	add	r7, sp, #0
 8001172:	60f8      	str	r0, [r7, #12]
 8001174:	60b9      	str	r1, [r7, #8]
 8001176:	607a      	str	r2, [r7, #4]
  uint32_t PriorityGroupTmp = (PriorityGroup & (uint32_t)0x07UL);   /* only values 0..7 are used          */
 8001178:	68fb      	ldr	r3, [r7, #12]
 800117a:	f003 0307 	and.w	r3, r3, #7
 800117e:	61fb      	str	r3, [r7, #28]
  uint32_t PreemptPriorityBits;
  uint32_t SubPriorityBits;

  PreemptPriorityBits = ((7UL - PriorityGroupTmp) > (uint32_t)(__NVIC_PRIO_BITS)) ? (uint32_t)(__NVIC_PRIO_BITS) : (uint32_t)(7UL - PriorityGroupTmp);
 8001180:	69fb      	ldr	r3, [r7, #28]
 8001182:	f1c3 0307 	rsb	r3, r3, #7
 8001186:	2b04      	cmp	r3, #4
 8001188:	bf28      	it	cs
 800118a:	2304      	movcs	r3, #4
 800118c:	61bb      	str	r3, [r7, #24]
  SubPriorityBits     = ((PriorityGroupTmp + (uint32_t)(__NVIC_PRIO_BITS)) < (uint32_t)7UL) ? (uint32_t)0UL : (uint32_t)((PriorityGroupTmp - 7UL) + (uint32_t)(__NVIC_PRIO_BITS));
 800118e:	69fb      	ldr	r3, [r7, #28]
 8001190:	3304      	adds	r3, #4
 8001192:	2b06      	cmp	r3, #6
 8001194:	d902      	bls.n	800119c <NVIC_EncodePriority+0x30>
 8001196:	69fb      	ldr	r3, [r7, #28]
 8001198:	3b03      	subs	r3, #3
 800119a:	e000      	b.n	800119e <NVIC_EncodePriority+0x32>
 800119c:	2300      	movs	r3, #0
 800119e:	617b      	str	r3, [r7, #20]

  return (
           ((PreemptPriority & (uint32_t)((1UL << (PreemptPriorityBits)) - 1UL)) << SubPriorityBits) |
 80011a0:	f04f 32ff 	mov.w	r2, #4294967295
 80011a4:	69bb      	ldr	r3, [r7, #24]
 80011a6:	fa02 f303 	lsl.w	r3, r2, r3
 80011aa:	43da      	mvns	r2, r3
 80011ac:	68bb      	ldr	r3, [r7, #8]
 80011ae:	401a      	ands	r2, r3
 80011b0:	697b      	ldr	r3, [r7, #20]
 80011b2:	409a      	lsls	r2, r3
           ((SubPriority     & (uint32_t)((1UL << (SubPriorityBits    )) - 1UL)))
 80011b4:	f04f 31ff 	mov.w	r1, #4294967295
 80011b8:	697b      	ldr	r3, [r7, #20]
 80011ba:	fa01 f303 	lsl.w	r3, r1, r3
 80011be:	43d9      	mvns	r1, r3
 80011c0:	687b      	ldr	r3, [r7, #4]
 80011c2:	400b      	ands	r3, r1
           ((PreemptPriority & (uint32_t)((1UL << (PreemptPriorityBits)) - 1UL)) << SubPriorityBits) |
 80011c4:	4313      	orrs	r3, r2
         );
}
 80011c6:	4618      	mov	r0, r3
 80011c8:	3724      	adds	r7, #36	; 0x24
 80011ca:	46bd      	mov	sp, r7
 80011cc:	f85d 7b04 	ldr.w	r7, [sp], #4
 80011d0:	4770      	bx	lr
	...

080011d4 <SysTick_Config>:
  \note    When the variable <b>__Vendor_SysTickConfig</b> is set to 1, then the
           function <b>SysTick_Config</b> is not included. In this case, the file <b><i>device</i>.h</b>
           must contain a vendor-specific implementation of this function.
 */
__STATIC_INLINE uint32_t SysTick_Config(uint32_t ticks)
{
 80011d4:	b580      	push	{r7, lr}
 80011d6:	b082      	sub	sp, #8
 80011d8:	af00      	add	r7, sp, #0
 80011da:	6078      	str	r0, [r7, #4]
  if ((ticks - 1UL) > SysTick_LOAD_RELOAD_Msk)
 80011dc:	687b      	ldr	r3, [r7, #4]
 80011de:	3b01      	subs	r3, #1
 80011e0:	f1b3 7f80 	cmp.w	r3, #16777216	; 0x1000000
 80011e4:	d301      	bcc.n	80011ea <SysTick_Config+0x16>
  {
    return (1UL);                                                   /* Reload value impossible */
 80011e6:	2301      	movs	r3, #1
 80011e8:	e00f      	b.n	800120a <SysTick_Config+0x36>
  }

  SysTick->LOAD  = (uint32_t)(ticks - 1UL);                         /* set reload register */
 80011ea:	4a0a      	ldr	r2, [pc, #40]	; (8001214 <SysTick_Config+0x40>)
 80011ec:	687b      	ldr	r3, [r7, #4]
 80011ee:	3b01      	subs	r3, #1
 80011f0:	6053      	str	r3, [r2, #4]
  NVIC_SetPriority (SysTick_IRQn, (1UL << __NVIC_PRIO_BITS) - 1UL); /* set Priority for Systick Interrupt */
 80011f2:	210f      	movs	r1, #15
 80011f4:	f04f 30ff 	mov.w	r0, #4294967295
 80011f8:	f7ff ff8e 	bl	8001118 <__NVIC_SetPriority>
  SysTick->VAL   = 0UL;                                             /* Load the SysTick Counter Value */
 80011fc:	4b05      	ldr	r3, [pc, #20]	; (8001214 <SysTick_Config+0x40>)
 80011fe:	2200      	movs	r2, #0
 8001200:	609a      	str	r2, [r3, #8]
  SysTick->CTRL  = SysTick_CTRL_CLKSOURCE_Msk |
 8001202:	4b04      	ldr	r3, [pc, #16]	; (8001214 <SysTick_Config+0x40>)
 8001204:	2207      	movs	r2, #7
 8001206:	601a      	str	r2, [r3, #0]
                   SysTick_CTRL_TICKINT_Msk   |
                   SysTick_CTRL_ENABLE_Msk;                         /* Enable SysTick IRQ and SysTick Timer */
  return (0UL);                                                     /* Function successful */
 8001208:	2300      	movs	r3, #0
}
 800120a:	4618      	mov	r0, r3
 800120c:	3708      	adds	r7, #8
 800120e:	46bd      	mov	sp, r7
 8001210:	bd80      	pop	{r7, pc}
 8001212:	bf00      	nop
 8001214:	e000e010 	.word	0xe000e010

08001218 <HAL_NVIC_SetPriorityGrouping>:
  * @note   When the NVIC_PriorityGroup_0 is selected, IRQ pre-emption is no more possible.
  *         The pending IRQ priority will be managed only by the subpriority.
  * @retval None
  */
void HAL_NVIC_SetPriorityGrouping(uint32_t PriorityGroup)
{
 8001218:	b580      	push	{r7, lr}
 800121a:	b082      	sub	sp, #8
 800121c:	af00      	add	r7, sp, #0
 800121e:	6078      	str	r0, [r7, #4]
  /* Check the parameters */
  assert_param(IS_NVIC_PRIORITY_GROUP(PriorityGroup));

  /* Set the PRIGROUP[10:8] bits according to the PriorityGroup parameter value */
  NVIC_SetPriorityGrouping(PriorityGroup);
 8001220:	6878      	ldr	r0, [r7, #4]
 8001222:	f7ff ff29 	bl	8001078 <__NVIC_SetPriorityGrouping>
}
 8001226:	bf00      	nop
 8001228:	3708      	adds	r7, #8
 800122a:	46bd      	mov	sp, r7
 800122c:	bd80      	pop	{r7, pc}

0800122e <HAL_NVIC_SetPriority>:
  *         This parameter can be a value between 0 and 15 as described in the table CORTEX_NVIC_Priority_Table
  *         A lower priority value indicates a higher priority.
  * @retval None
  */
void HAL_NVIC_SetPriority(IRQn_Type IRQn, uint32_t PreemptPriority, uint32_t SubPriority)
{
 800122e:	b580      	push	{r7, lr}
 8001230:	b086      	sub	sp, #24
 8001232:	af00      	add	r7, sp, #0
 8001234:	4603      	mov	r3, r0
 8001236:	60b9      	str	r1, [r7, #8]
 8001238:	607a      	str	r2, [r7, #4]
 800123a:	73fb      	strb	r3, [r7, #15]
  uint32_t prioritygroup = 0x00U;
 800123c:	2300      	movs	r3, #0
 800123e:	617b      	str	r3, [r7, #20]
  
  /* Check the parameters */
  assert_param(IS_NVIC_SUB_PRIORITY(SubPriority));
  assert_param(IS_NVIC_PREEMPTION_PRIORITY(PreemptPriority));
  
  prioritygroup = NVIC_GetPriorityGrouping();
 8001240:	f7ff ff3e 	bl	80010c0 <__NVIC_GetPriorityGrouping>
 8001244:	6178      	str	r0, [r7, #20]
  
  NVIC_SetPriority(IRQn, NVIC_EncodePriority(prioritygroup, PreemptPriority, SubPriority));
 8001246:	687a      	ldr	r2, [r7, #4]
 8001248:	68b9      	ldr	r1, [r7, #8]
 800124a:	6978      	ldr	r0, [r7, #20]
 800124c:	f7ff ff8e 	bl	800116c <NVIC_EncodePriority>
 8001250:	4602      	mov	r2, r0
 8001252:	f997 300f 	ldrsb.w	r3, [r7, #15]
 8001256:	4611      	mov	r1, r2
 8001258:	4618      	mov	r0, r3
 800125a:	f7ff ff5d 	bl	8001118 <__NVIC_SetPriority>
}
 800125e:	bf00      	nop
 8001260:	3718      	adds	r7, #24
 8001262:	46bd      	mov	sp, r7
 8001264:	bd80      	pop	{r7, pc}

08001266 <HAL_NVIC_EnableIRQ>:
  *         This parameter can be an enumerator of IRQn_Type enumeration
  *         (For the complete STM32 Devices IRQ Channels list, please refer to the appropriate CMSIS device file (stm32f3xxxx.h))
  * @retval None
  */
void HAL_NVIC_EnableIRQ(IRQn_Type IRQn)
{
 8001266:	b580      	push	{r7, lr}
 8001268:	b082      	sub	sp, #8
 800126a:	af00      	add	r7, sp, #0
 800126c:	4603      	mov	r3, r0
 800126e:	71fb      	strb	r3, [r7, #7]
  /* Check the parameters */
  assert_param(IS_NVIC_DEVICE_IRQ(IRQn));
  
  /* Enable interrupt */
  NVIC_EnableIRQ(IRQn);
 8001270:	f997 3007 	ldrsb.w	r3, [r7, #7]
 8001274:	4618      	mov	r0, r3
 8001276:	f7ff ff31 	bl	80010dc <__NVIC_EnableIRQ>
}
 800127a:	bf00      	nop
 800127c:	3708      	adds	r7, #8
 800127e:	46bd      	mov	sp, r7
 8001280:	bd80      	pop	{r7, pc}

08001282 <HAL_SYSTICK_Config>:
  * @param  TicksNumb Specifies the ticks Number of ticks between two interrupts.
  * @retval status:  - 0  Function succeeded.
  *                  - 1  Function failed.
  */
uint32_t HAL_SYSTICK_Config(uint32_t TicksNumb)
{
 8001282:	b580      	push	{r7, lr}
 8001284:	b082      	sub	sp, #8
 8001286:	af00      	add	r7, sp, #0
 8001288:	6078      	str	r0, [r7, #4]
   return SysTick_Config(TicksNumb);
 800128a:	6878      	ldr	r0, [r7, #4]
 800128c:	f7ff ffa2 	bl	80011d4 <SysTick_Config>
 8001290:	4603      	mov	r3, r0
}
 8001292:	4618      	mov	r0, r3
 8001294:	3708      	adds	r7, #8
 8001296:	46bd      	mov	sp, r7
 8001298:	bd80      	pop	{r7, pc}
	...

0800129c <HAL_CRC_Init>:
  *         parameters in the CRC_InitTypeDef and create the associated handle.
  * @param  hcrc CRC handle
  * @retval HAL status
  */
HAL_StatusTypeDef HAL_CRC_Init(CRC_HandleTypeDef *hcrc)
{
 800129c:	b580      	push	{r7, lr}
 800129e:	b082      	sub	sp, #8
 80012a0:	af00      	add	r7, sp, #0
 80012a2:	6078      	str	r0, [r7, #4]
  /* Check the CRC handle allocation */
  if (hcrc == NULL)
 80012a4:	687b      	ldr	r3, [r7, #4]
 80012a6:	2b00      	cmp	r3, #0
 80012a8:	d101      	bne.n	80012ae <HAL_CRC_Init+0x12>
  {
    return HAL_ERROR;
 80012aa:	2301      	movs	r3, #1
 80012ac:	e054      	b.n	8001358 <HAL_CRC_Init+0xbc>
  }

  /* Check the parameters */
  assert_param(IS_CRC_ALL_INSTANCE(hcrc->Instance));

  if (hcrc->State == HAL_CRC_STATE_RESET)
 80012ae:	687b      	ldr	r3, [r7, #4]
 80012b0:	7f5b      	ldrb	r3, [r3, #29]
 80012b2:	b2db      	uxtb	r3, r3
 80012b4:	2b00      	cmp	r3, #0
 80012b6:	d105      	bne.n	80012c4 <HAL_CRC_Init+0x28>
  {
    /* Allocate lock resource and initialize it */
    hcrc->Lock = HAL_UNLOCKED;
 80012b8:	687b      	ldr	r3, [r7, #4]
 80012ba:	2200      	movs	r2, #0
 80012bc:	771a      	strb	r2, [r3, #28]
    /* Init the low level hardware */
    HAL_CRC_MspInit(hcrc);
 80012be:	6878      	ldr	r0, [r7, #4]
 80012c0:	f7ff f9c2 	bl	8000648 <HAL_CRC_MspInit>
  }

  hcrc->State = HAL_CRC_STATE_BUSY;
 80012c4:	687b      	ldr	r3, [r7, #4]
 80012c6:	2202      	movs	r2, #2
 80012c8:	775a      	strb	r2, [r3, #29]

  /* check whether or not non-default generating polynomial has been
   * picked up by user */
  assert_param(IS_DEFAULT_POLYNOMIAL(hcrc->Init.DefaultPolynomialUse));
  if (hcrc->Init.DefaultPolynomialUse == DEFAULT_POLYNOMIAL_ENABLE)
 80012ca:	687b      	ldr	r3, [r7, #4]
 80012cc:	791b      	ldrb	r3, [r3, #4]
 80012ce:	2b00      	cmp	r3, #0
 80012d0:	d10c      	bne.n	80012ec <HAL_CRC_Init+0x50>
  {
    /* initialize peripheral with default generating polynomial */
    WRITE_REG(hcrc->Instance->POL, DEFAULT_CRC32_POLY);
 80012d2:	687b      	ldr	r3, [r7, #4]
 80012d4:	681b      	ldr	r3, [r3, #0]
 80012d6:	4a22      	ldr	r2, [pc, #136]	; (8001360 <HAL_CRC_Init+0xc4>)
 80012d8:	615a      	str	r2, [r3, #20]
    MODIFY_REG(hcrc->Instance->CR, CRC_CR_POLYSIZE, CRC_POLYLENGTH_32B);
 80012da:	687b      	ldr	r3, [r7, #4]
 80012dc:	681b      	ldr	r3, [r3, #0]
 80012de:	689a      	ldr	r2, [r3, #8]
 80012e0:	687b      	ldr	r3, [r7, #4]
 80012e2:	681b      	ldr	r3, [r3, #0]
 80012e4:	f022 0218 	bic.w	r2, r2, #24
 80012e8:	609a      	str	r2, [r3, #8]
 80012ea:	e00c      	b.n	8001306 <HAL_CRC_Init+0x6a>
  }
  else
  {
    /* initialize CRC peripheral with generating polynomial defined by user */
    if (HAL_CRCEx_Polynomial_Set(hcrc, hcrc->Init.GeneratingPolynomial, hcrc->Init.CRCLength) != HAL_OK)
 80012ec:	687b      	ldr	r3, [r7, #4]
 80012ee:	6899      	ldr	r1, [r3, #8]
 80012f0:	687b      	ldr	r3, [r7, #4]
 80012f2:	68db      	ldr	r3, [r3, #12]
 80012f4:	461a      	mov	r2, r3
 80012f6:	6878      	ldr	r0, [r7, #4]
 80012f8:	f000 f948 	bl	800158c <HAL_CRCEx_Polynomial_Set>
 80012fc:	4603      	mov	r3, r0
 80012fe:	2b00      	cmp	r3, #0
 8001300:	d001      	beq.n	8001306 <HAL_CRC_Init+0x6a>
    {
      return HAL_ERROR;
 8001302:	2301      	movs	r3, #1
 8001304:	e028      	b.n	8001358 <HAL_CRC_Init+0xbc>
  }

  /* check whether or not non-default CRC initial value has been
   * picked up by user */
  assert_param(IS_DEFAULT_INIT_VALUE(hcrc->Init.DefaultInitValueUse));
  if (hcrc->Init.DefaultInitValueUse == DEFAULT_INIT_VALUE_ENABLE)
 8001306:	687b      	ldr	r3, [r7, #4]
 8001308:	795b      	ldrb	r3, [r3, #5]
 800130a:	2b00      	cmp	r3, #0
 800130c:	d105      	bne.n	800131a <HAL_CRC_Init+0x7e>
  {
    WRITE_REG(hcrc->Instance->INIT, DEFAULT_CRC_INITVALUE);
 800130e:	687b      	ldr	r3, [r7, #4]
 8001310:	681b      	ldr	r3, [r3, #0]
 8001312:	f04f 32ff 	mov.w	r2, #4294967295
 8001316:	611a      	str	r2, [r3, #16]
 8001318:	e004      	b.n	8001324 <HAL_CRC_Init+0x88>
  }
  else
  {
    WRITE_REG(hcrc->Instance->INIT, hcrc->Init.InitValue);
 800131a:	687b      	ldr	r3, [r7, #4]
 800131c:	681b      	ldr	r3, [r3, #0]
 800131e:	687a      	ldr	r2, [r7, #4]
 8001320:	6912      	ldr	r2, [r2, #16]
 8001322:	611a      	str	r2, [r3, #16]
  }


  /* set input data inversion mode */
  assert_param(IS_CRC_INPUTDATA_INVERSION_MODE(hcrc->Init.InputDataInversionMode));
  MODIFY_REG(hcrc->Instance->CR, CRC_CR_REV_IN, hcrc->Init.InputDataInversionMode);
 8001324:	687b      	ldr	r3, [r7, #4]
 8001326:	681b      	ldr	r3, [r3, #0]
 8001328:	689b      	ldr	r3, [r3, #8]
 800132a:	f023 0160 	bic.w	r1, r3, #96	; 0x60
 800132e:	687b      	ldr	r3, [r7, #4]
 8001330:	695a      	ldr	r2, [r3, #20]
 8001332:	687b      	ldr	r3, [r7, #4]
 8001334:	681b      	ldr	r3, [r3, #0]
 8001336:	430a      	orrs	r2, r1
 8001338:	609a      	str	r2, [r3, #8]

  /* set output data inversion mode */
  assert_param(IS_CRC_OUTPUTDATA_INVERSION_MODE(hcrc->Init.OutputDataInversionMode));
  MODIFY_REG(hcrc->Instance->CR, CRC_CR_REV_OUT, hcrc->Init.OutputDataInversionMode);
 800133a:	687b      	ldr	r3, [r7, #4]
 800133c:	681b      	ldr	r3, [r3, #0]
 800133e:	689b      	ldr	r3, [r3, #8]
 8001340:	f023 0180 	bic.w	r1, r3, #128	; 0x80
 8001344:	687b      	ldr	r3, [r7, #4]
 8001346:	699a      	ldr	r2, [r3, #24]
 8001348:	687b      	ldr	r3, [r7, #4]
 800134a:	681b      	ldr	r3, [r3, #0]
 800134c:	430a      	orrs	r2, r1
 800134e:	609a      	str	r2, [r3, #8]
  /* makes sure the input data format (bytes, halfwords or words stream)
   * is properly specified by user */
  assert_param(IS_CRC_INPUTDATA_FORMAT(hcrc->InputDataFormat));

  /* Change CRC peripheral state */
  hcrc->State = HAL_CRC_STATE_READY;
 8001350:	687b      	ldr	r3, [r7, #4]
 8001352:	2201      	movs	r2, #1
 8001354:	775a      	strb	r2, [r3, #29]

  /* Return function status */
  return HAL_OK;
 8001356:	2300      	movs	r3, #0
}
 8001358:	4618      	mov	r0, r3
 800135a:	3708      	adds	r7, #8
 800135c:	46bd      	mov	sp, r7
 800135e:	bd80      	pop	{r7, pc}
 8001360:	04c11db7 	.word	0x04c11db7

08001364 <HAL_CRC_Calculate>:
  *        and the API will internally adjust its input data processing based on the
  *        handle field hcrc->InputDataFormat.
  * @retval uint32_t CRC (returned value LSBs for CRC shorter than 32 bits)
  */
uint32_t HAL_CRC_Calculate(CRC_HandleTypeDef *hcrc, uint32_t pBuffer[], uint32_t BufferLength)
{
 8001364:	b580      	push	{r7, lr}
 8001366:	b086      	sub	sp, #24
 8001368:	af00      	add	r7, sp, #0
 800136a:	60f8      	str	r0, [r7, #12]
 800136c:	60b9      	str	r1, [r7, #8]
 800136e:	607a      	str	r2, [r7, #4]
  uint32_t index;      /* CRC input data buffer index */
  uint32_t temp = 0U;  /* CRC output (read from hcrc->Instance->DR register) */
 8001370:	2300      	movs	r3, #0
 8001372:	613b      	str	r3, [r7, #16]

  /* Change CRC peripheral state */
  hcrc->State = HAL_CRC_STATE_BUSY;
 8001374:	68fb      	ldr	r3, [r7, #12]
 8001376:	2202      	movs	r2, #2
 8001378:	775a      	strb	r2, [r3, #29]

  /* Reset CRC Calculation Unit (hcrc->Instance->INIT is
  *  written in hcrc->Instance->DR) */
  __HAL_CRC_DR_RESET(hcrc);
 800137a:	68fb      	ldr	r3, [r7, #12]
 800137c:	681b      	ldr	r3, [r3, #0]
 800137e:	689a      	ldr	r2, [r3, #8]
 8001380:	68fb      	ldr	r3, [r7, #12]
 8001382:	681b      	ldr	r3, [r3, #0]
 8001384:	f042 0201 	orr.w	r2, r2, #1
 8001388:	609a      	str	r2, [r3, #8]

  switch (hcrc->InputDataFormat)
 800138a:	68fb      	ldr	r3, [r7, #12]
 800138c:	6a1b      	ldr	r3, [r3, #32]
 800138e:	2b03      	cmp	r3, #3
 8001390:	d006      	beq.n	80013a0 <HAL_CRC_Calculate+0x3c>
 8001392:	2b03      	cmp	r3, #3
 8001394:	d829      	bhi.n	80013ea <HAL_CRC_Calculate+0x86>
 8001396:	2b01      	cmp	r3, #1
 8001398:	d019      	beq.n	80013ce <HAL_CRC_Calculate+0x6a>
 800139a:	2b02      	cmp	r3, #2
 800139c:	d01e      	beq.n	80013dc <HAL_CRC_Calculate+0x78>
      /* Specific 16-bit input data handling  */
      temp = CRC_Handle_16(hcrc, (uint16_t *)(void *)pBuffer, BufferLength);    /* Derogation MisraC2012 R.11.5 */
      break;

    default:
      break;
 800139e:	e024      	b.n	80013ea <HAL_CRC_Calculate+0x86>
      for (index = 0U; index < BufferLength; index++)
 80013a0:	2300      	movs	r3, #0
 80013a2:	617b      	str	r3, [r7, #20]
 80013a4:	e00a      	b.n	80013bc <HAL_CRC_Calculate+0x58>
        hcrc->Instance->DR = pBuffer[index];
 80013a6:	697b      	ldr	r3, [r7, #20]
 80013a8:	009b      	lsls	r3, r3, #2
 80013aa:	68ba      	ldr	r2, [r7, #8]
 80013ac:	441a      	add	r2, r3
 80013ae:	68fb      	ldr	r3, [r7, #12]
 80013b0:	681b      	ldr	r3, [r3, #0]
 80013b2:	6812      	ldr	r2, [r2, #0]
 80013b4:	601a      	str	r2, [r3, #0]
      for (index = 0U; index < BufferLength; index++)
 80013b6:	697b      	ldr	r3, [r7, #20]
 80013b8:	3301      	adds	r3, #1
 80013ba:	617b      	str	r3, [r7, #20]
 80013bc:	697a      	ldr	r2, [r7, #20]
 80013be:	687b      	ldr	r3, [r7, #4]
 80013c0:	429a      	cmp	r2, r3
 80013c2:	d3f0      	bcc.n	80013a6 <HAL_CRC_Calculate+0x42>
      temp = hcrc->Instance->DR;
 80013c4:	68fb      	ldr	r3, [r7, #12]
 80013c6:	681b      	ldr	r3, [r3, #0]
 80013c8:	681b      	ldr	r3, [r3, #0]
 80013ca:	613b      	str	r3, [r7, #16]
      break;
 80013cc:	e00e      	b.n	80013ec <HAL_CRC_Calculate+0x88>
      temp = CRC_Handle_8(hcrc, (uint8_t *)pBuffer, BufferLength);
 80013ce:	687a      	ldr	r2, [r7, #4]
 80013d0:	68b9      	ldr	r1, [r7, #8]
 80013d2:	68f8      	ldr	r0, [r7, #12]
 80013d4:	f000 f812 	bl	80013fc <CRC_Handle_8>
 80013d8:	6138      	str	r0, [r7, #16]
      break;
 80013da:	e007      	b.n	80013ec <HAL_CRC_Calculate+0x88>
      temp = CRC_Handle_16(hcrc, (uint16_t *)(void *)pBuffer, BufferLength);    /* Derogation MisraC2012 R.11.5 */
 80013dc:	687a      	ldr	r2, [r7, #4]
 80013de:	68b9      	ldr	r1, [r7, #8]
 80013e0:	68f8      	ldr	r0, [r7, #12]
 80013e2:	f000 f899 	bl	8001518 <CRC_Handle_16>
 80013e6:	6138      	str	r0, [r7, #16]
      break;
 80013e8:	e000      	b.n	80013ec <HAL_CRC_Calculate+0x88>
      break;
 80013ea:	bf00      	nop
  }

  /* Change CRC peripheral state */
  hcrc->State = HAL_CRC_STATE_READY;
 80013ec:	68fb      	ldr	r3, [r7, #12]
 80013ee:	2201      	movs	r2, #1
 80013f0:	775a      	strb	r2, [r3, #29]

  /* Return the CRC computed value */
  return temp;
 80013f2:	693b      	ldr	r3, [r7, #16]
}
 80013f4:	4618      	mov	r0, r3
 80013f6:	3718      	adds	r7, #24
 80013f8:	46bd      	mov	sp, r7
 80013fa:	bd80      	pop	{r7, pc}

080013fc <CRC_Handle_8>:
  * @param  pBuffer pointer to the input data buffer
  * @param  BufferLength input data buffer length
  * @retval uint32_t CRC (returned value LSBs for CRC shorter than 32 bits)
  */
static uint32_t CRC_Handle_8(CRC_HandleTypeDef *hcrc, uint8_t pBuffer[], uint32_t BufferLength)
{
 80013fc:	b480      	push	{r7}
 80013fe:	b089      	sub	sp, #36	; 0x24
 8001400:	af00      	add	r7, sp, #0
 8001402:	60f8      	str	r0, [r7, #12]
 8001404:	60b9      	str	r1, [r7, #8]
 8001406:	607a      	str	r2, [r7, #4]
  __IO uint16_t *pReg;

  /* Processing time optimization: 4 bytes are entered in a row with a single word write,
   * last bytes must be carefully fed to the CRC calculator to ensure a correct type
   * handling by the peripheral */
  for (i = 0U; i < (BufferLength / 4U); i++)
 8001408:	2300      	movs	r3, #0
 800140a:	61fb      	str	r3, [r7, #28]
 800140c:	e023      	b.n	8001456 <CRC_Handle_8+0x5a>
  {
    hcrc->Instance->DR = ((uint32_t)pBuffer[4U * i] << 24U) | \
 800140e:	69fb      	ldr	r3, [r7, #28]
 8001410:	009b      	lsls	r3, r3, #2
 8001412:	68ba      	ldr	r2, [r7, #8]
 8001414:	4413      	add	r3, r2
 8001416:	781b      	ldrb	r3, [r3, #0]
 8001418:	061a      	lsls	r2, r3, #24
                         ((uint32_t)pBuffer[(4U * i) + 1U] << 16U) | \
 800141a:	69fb      	ldr	r3, [r7, #28]
 800141c:	009b      	lsls	r3, r3, #2
 800141e:	3301      	adds	r3, #1
 8001420:	68b9      	ldr	r1, [r7, #8]
 8001422:	440b      	add	r3, r1
 8001424:	781b      	ldrb	r3, [r3, #0]
 8001426:	041b      	lsls	r3, r3, #16
    hcrc->Instance->DR = ((uint32_t)pBuffer[4U * i] << 24U) | \
 8001428:	431a      	orrs	r2, r3
                         ((uint32_t)pBuffer[(4U * i) + 2U] << 8U)  | \
 800142a:	69fb      	ldr	r3, [r7, #28]
 800142c:	009b      	lsls	r3, r3, #2
 800142e:	3302      	adds	r3, #2
 8001430:	68b9      	ldr	r1, [r7, #8]
 8001432:	440b      	add	r3, r1
 8001434:	781b      	ldrb	r3, [r3, #0]
 8001436:	021b      	lsls	r3, r3, #8
                         ((uint32_t)pBuffer[(4U * i) + 1U] << 16U) | \
 8001438:	431a      	orrs	r2, r3
                         (uint32_t)pBuffer[(4U * i) + 3U];
 800143a:	69fb      	ldr	r3, [r7, #28]
 800143c:	009b      	lsls	r3, r3, #2
 800143e:	3303      	adds	r3, #3
 8001440:	68b9      	ldr	r1, [r7, #8]
 8001442:	440b      	add	r3, r1
 8001444:	781b      	ldrb	r3, [r3, #0]
 8001446:	4619      	mov	r1, r3
    hcrc->Instance->DR = ((uint32_t)pBuffer[4U * i] << 24U) | \
 8001448:	68fb      	ldr	r3, [r7, #12]
 800144a:	681b      	ldr	r3, [r3, #0]
                         ((uint32_t)pBuffer[(4U * i) + 2U] << 8U)  | \
 800144c:	430a      	orrs	r2, r1
    hcrc->Instance->DR = ((uint32_t)pBuffer[4U * i] << 24U) | \
 800144e:	601a      	str	r2, [r3, #0]
  for (i = 0U; i < (BufferLength / 4U); i++)
 8001450:	69fb      	ldr	r3, [r7, #28]
 8001452:	3301      	adds	r3, #1
 8001454:	61fb      	str	r3, [r7, #28]
 8001456:	687b      	ldr	r3, [r7, #4]
 8001458:	089b      	lsrs	r3, r3, #2
 800145a:	69fa      	ldr	r2, [r7, #28]
 800145c:	429a      	cmp	r2, r3
 800145e:	d3d6      	bcc.n	800140e <CRC_Handle_8+0x12>
  }
  /* last bytes specific handling */
  if ((BufferLength % 4U) != 0U)
 8001460:	687b      	ldr	r3, [r7, #4]
 8001462:	f003 0303 	and.w	r3, r3, #3
 8001466:	2b00      	cmp	r3, #0
 8001468:	d04d      	beq.n	8001506 <CRC_Handle_8+0x10a>
  {
    if ((BufferLength % 4U) == 1U)
 800146a:	687b      	ldr	r3, [r7, #4]
 800146c:	f003 0303 	and.w	r3, r3, #3
 8001470:	2b01      	cmp	r3, #1
 8001472:	d107      	bne.n	8001484 <CRC_Handle_8+0x88>
    {
      *(__IO uint8_t *)(__IO void *)(&hcrc->Instance->DR) = pBuffer[4U * i];         /* Derogation MisraC2012 R.11.5 */
 8001474:	69fb      	ldr	r3, [r7, #28]
 8001476:	009b      	lsls	r3, r3, #2
 8001478:	68ba      	ldr	r2, [r7, #8]
 800147a:	4413      	add	r3, r2
 800147c:	68fa      	ldr	r2, [r7, #12]
 800147e:	6812      	ldr	r2, [r2, #0]
 8001480:	781b      	ldrb	r3, [r3, #0]
 8001482:	7013      	strb	r3, [r2, #0]
    }
    if ((BufferLength % 4U) == 2U)
 8001484:	687b      	ldr	r3, [r7, #4]
 8001486:	f003 0303 	and.w	r3, r3, #3
 800148a:	2b02      	cmp	r3, #2
 800148c:	d116      	bne.n	80014bc <CRC_Handle_8+0xc0>
    {
      data = ((uint16_t)(pBuffer[4U * i]) << 8U) | (uint16_t)pBuffer[(4U * i) + 1U];
 800148e:	69fb      	ldr	r3, [r7, #28]
 8001490:	009b      	lsls	r3, r3, #2
 8001492:	68ba      	ldr	r2, [r7, #8]
 8001494:	4413      	add	r3, r2
 8001496:	781b      	ldrb	r3, [r3, #0]
 8001498:	021b      	lsls	r3, r3, #8
 800149a:	b21a      	sxth	r2, r3
 800149c:	69fb      	ldr	r3, [r7, #28]
 800149e:	009b      	lsls	r3, r3, #2
 80014a0:	3301      	adds	r3, #1
 80014a2:	68b9      	ldr	r1, [r7, #8]
 80014a4:	440b      	add	r3, r1
 80014a6:	781b      	ldrb	r3, [r3, #0]
 80014a8:	b21b      	sxth	r3, r3
 80014aa:	4313      	orrs	r3, r2
 80014ac:	b21b      	sxth	r3, r3
 80014ae:	837b      	strh	r3, [r7, #26]
      pReg = (__IO uint16_t *)(__IO void *)(&hcrc->Instance->DR);                    /* Derogation MisraC2012 R.11.5 */
 80014b0:	68fb      	ldr	r3, [r7, #12]
 80014b2:	681b      	ldr	r3, [r3, #0]
 80014b4:	617b      	str	r3, [r7, #20]
      *pReg = data;
 80014b6:	697b      	ldr	r3, [r7, #20]
 80014b8:	8b7a      	ldrh	r2, [r7, #26]
 80014ba:	801a      	strh	r2, [r3, #0]
    }
    if ((BufferLength % 4U) == 3U)
 80014bc:	687b      	ldr	r3, [r7, #4]
 80014be:	f003 0303 	and.w	r3, r3, #3
 80014c2:	2b03      	cmp	r3, #3
 80014c4:	d11f      	bne.n	8001506 <CRC_Handle_8+0x10a>
    {
      data = ((uint16_t)(pBuffer[4U * i]) << 8U) | (uint16_t)pBuffer[(4U * i) + 1U];
 80014c6:	69fb      	ldr	r3, [r7, #28]
 80014c8:	009b      	lsls	r3, r3, #2
 80014ca:	68ba      	ldr	r2, [r7, #8]
 80014cc:	4413      	add	r3, r2
 80014ce:	781b      	ldrb	r3, [r3, #0]
 80014d0:	021b      	lsls	r3, r3, #8
 80014d2:	b21a      	sxth	r2, r3
 80014d4:	69fb      	ldr	r3, [r7, #28]
 80014d6:	009b      	lsls	r3, r3, #2
 80014d8:	3301      	adds	r3, #1
 80014da:	68b9      	ldr	r1, [r7, #8]
 80014dc:	440b      	add	r3, r1
 80014de:	781b      	ldrb	r3, [r3, #0]
 80014e0:	b21b      	sxth	r3, r3
 80014e2:	4313      	orrs	r3, r2
 80014e4:	b21b      	sxth	r3, r3
 80014e6:	837b      	strh	r3, [r7, #26]
      pReg = (__IO uint16_t *)(__IO void *)(&hcrc->Instance->DR);                    /* Derogation MisraC2012 R.11.5 */
 80014e8:	68fb      	ldr	r3, [r7, #12]
 80014ea:	681b      	ldr	r3, [r3, #0]
 80014ec:	617b      	str	r3, [r7, #20]
      *pReg = data;
 80014ee:	697b      	ldr	r3, [r7, #20]
 80014f0:	8b7a      	ldrh	r2, [r7, #26]
 80014f2:	801a      	strh	r2, [r3, #0]

      *(__IO uint8_t *)(__IO void *)(&hcrc->Instance->DR) = pBuffer[(4U * i) + 2U];  /* Derogation MisraC2012 R.11.5 */
 80014f4:	69fb      	ldr	r3, [r7, #28]
 80014f6:	009b      	lsls	r3, r3, #2
 80014f8:	3302      	adds	r3, #2
 80014fa:	68ba      	ldr	r2, [r7, #8]
 80014fc:	4413      	add	r3, r2
 80014fe:	68fa      	ldr	r2, [r7, #12]
 8001500:	6812      	ldr	r2, [r2, #0]
 8001502:	781b      	ldrb	r3, [r3, #0]
 8001504:	7013      	strb	r3, [r2, #0]
    }
  }

  /* Return the CRC computed value */
  return hcrc->Instance->DR;
 8001506:	68fb      	ldr	r3, [r7, #12]
 8001508:	681b      	ldr	r3, [r3, #0]
 800150a:	681b      	ldr	r3, [r3, #0]
}
 800150c:	4618      	mov	r0, r3
 800150e:	3724      	adds	r7, #36	; 0x24
 8001510:	46bd      	mov	sp, r7
 8001512:	f85d 7b04 	ldr.w	r7, [sp], #4
 8001516:	4770      	bx	lr

08001518 <CRC_Handle_16>:
  * @param  pBuffer pointer to the input data buffer
  * @param  BufferLength input data buffer length
  * @retval uint32_t CRC (returned value LSBs for CRC shorter than 32 bits)
  */
static uint32_t CRC_Handle_16(CRC_HandleTypeDef *hcrc, uint16_t pBuffer[], uint32_t BufferLength)
{
 8001518:	b480      	push	{r7}
 800151a:	b087      	sub	sp, #28
 800151c:	af00      	add	r7, sp, #0
 800151e:	60f8      	str	r0, [r7, #12]
 8001520:	60b9      	str	r1, [r7, #8]
 8001522:	607a      	str	r2, [r7, #4]
  __IO uint16_t *pReg;

  /* Processing time optimization: 2 HalfWords are entered in a row with a single word write,
   * in case of odd length, last HalfWord must be carefully fed to the CRC calculator to ensure
   * a correct type handling by the peripheral */
  for (i = 0U; i < (BufferLength / 2U); i++)
 8001524:	2300      	movs	r3, #0
 8001526:	617b      	str	r3, [r7, #20]
 8001528:	e013      	b.n	8001552 <CRC_Handle_16+0x3a>
  {
    hcrc->Instance->DR = ((uint32_t)pBuffer[2U * i] << 16U) | (uint32_t)pBuffer[(2U * i) + 1U];
 800152a:	697b      	ldr	r3, [r7, #20]
 800152c:	009b      	lsls	r3, r3, #2
 800152e:	68ba      	ldr	r2, [r7, #8]
 8001530:	4413      	add	r3, r2
 8001532:	881b      	ldrh	r3, [r3, #0]
 8001534:	041a      	lsls	r2, r3, #16
 8001536:	697b      	ldr	r3, [r7, #20]
 8001538:	009b      	lsls	r3, r3, #2
 800153a:	3302      	adds	r3, #2
 800153c:	68b9      	ldr	r1, [r7, #8]
 800153e:	440b      	add	r3, r1
 8001540:	881b      	ldrh	r3, [r3, #0]
 8001542:	4619      	mov	r1, r3
 8001544:	68fb      	ldr	r3, [r7, #12]
 8001546:	681b      	ldr	r3, [r3, #0]
 8001548:	430a      	orrs	r2, r1
 800154a:	601a      	str	r2, [r3, #0]
  for (i = 0U; i < (BufferLength / 2U); i++)
 800154c:	697b      	ldr	r3, [r7, #20]
 800154e:	3301      	adds	r3, #1
 8001550:	617b      	str	r3, [r7, #20]
 8001552:	687b      	ldr	r3, [r7, #4]
 8001554:	085b      	lsrs	r3, r3, #1
 8001556:	697a      	ldr	r2, [r7, #20]
 8001558:	429a      	cmp	r2, r3
 800155a:	d3e6      	bcc.n	800152a <CRC_Handle_16+0x12>
  }
  if ((BufferLength % 2U) != 0U)
 800155c:	687b      	ldr	r3, [r7, #4]
 800155e:	f003 0301 	and.w	r3, r3, #1
 8001562:	2b00      	cmp	r3, #0
 8001564:	d009      	beq.n	800157a <CRC_Handle_16+0x62>
  {
    pReg = (__IO uint16_t *)(__IO void *)(&hcrc->Instance->DR);                 /* Derogation MisraC2012 R.11.5 */
 8001566:	68fb      	ldr	r3, [r7, #12]
 8001568:	681b      	ldr	r3, [r3, #0]
 800156a:	613b      	str	r3, [r7, #16]
    *pReg = pBuffer[2U * i];
 800156c:	697b      	ldr	r3, [r7, #20]
 800156e:	009b      	lsls	r3, r3, #2
 8001570:	68ba      	ldr	r2, [r7, #8]
 8001572:	4413      	add	r3, r2
 8001574:	881a      	ldrh	r2, [r3, #0]
 8001576:	693b      	ldr	r3, [r7, #16]
 8001578:	801a      	strh	r2, [r3, #0]
  }

  /* Return the CRC computed value */
  return hcrc->Instance->DR;
 800157a:	68fb      	ldr	r3, [r7, #12]
 800157c:	681b      	ldr	r3, [r3, #0]
 800157e:	681b      	ldr	r3, [r3, #0]
}
 8001580:	4618      	mov	r0, r3
 8001582:	371c      	adds	r7, #28
 8001584:	46bd      	mov	sp, r7
 8001586:	f85d 7b04 	ldr.w	r7, [sp], #4
 800158a:	4770      	bx	lr

0800158c <HAL_CRCEx_Polynomial_Set>:
  *          @arg @ref CRC_POLYLENGTH_16B 16-bit long CRC (generating polynomial of degree 16)
  *          @arg @ref CRC_POLYLENGTH_32B 32-bit long CRC (generating polynomial of degree 32)
  * @retval HAL status
  */
HAL_StatusTypeDef HAL_CRCEx_Polynomial_Set(CRC_HandleTypeDef *hcrc, uint32_t Pol, uint32_t PolyLength)
{
 800158c:	b480      	push	{r7}
 800158e:	b087      	sub	sp, #28
 8001590:	af00      	add	r7, sp, #0
 8001592:	60f8      	str	r0, [r7, #12]
 8001594:	60b9      	str	r1, [r7, #8]
 8001596:	607a      	str	r2, [r7, #4]
  HAL_StatusTypeDef status = HAL_OK;
 8001598:	2300      	movs	r3, #0
 800159a:	75fb      	strb	r3, [r7, #23]
  uint32_t msb = 31U; /* polynomial degree is 32 at most, so msb is initialized to max value */
 800159c:	231f      	movs	r3, #31
 800159e:	613b      	str	r3, [r7, #16]
   * definition. HAL_ERROR is reported if Pol degree is
   * larger than that indicated by PolyLength.
   * Look for MSB position: msb will contain the degree of
   *  the second to the largest polynomial member. E.g., for
   *  X^7 + X^6 + X^5 + X^2 + 1, msb = 6. */
  while ((msb-- > 0U) && ((Pol & ((uint32_t)(0x1U) << (msb & 0x1FU))) == 0U))
 80015a0:	bf00      	nop
 80015a2:	693b      	ldr	r3, [r7, #16]
 80015a4:	1e5a      	subs	r2, r3, #1
 80015a6:	613a      	str	r2, [r7, #16]
 80015a8:	2b00      	cmp	r3, #0
 80015aa:	d009      	beq.n	80015c0 <HAL_CRCEx_Polynomial_Set+0x34>
 80015ac:	693b      	ldr	r3, [r7, #16]
 80015ae:	f003 031f 	and.w	r3, r3, #31
 80015b2:	68ba      	ldr	r2, [r7, #8]
 80015b4:	fa22 f303 	lsr.w	r3, r2, r3
 80015b8:	f003 0301 	and.w	r3, r3, #1
 80015bc:	2b00      	cmp	r3, #0
 80015be:	d0f0      	beq.n	80015a2 <HAL_CRCEx_Polynomial_Set+0x16>
 80015c0:	687b      	ldr	r3, [r7, #4]
 80015c2:	2b18      	cmp	r3, #24
 80015c4:	d846      	bhi.n	8001654 <HAL_CRCEx_Polynomial_Set+0xc8>
 80015c6:	a201      	add	r2, pc, #4	; (adr r2, 80015cc <HAL_CRCEx_Polynomial_Set+0x40>)
 80015c8:	f852 f023 	ldr.w	pc, [r2, r3, lsl #2]
 80015cc:	0800165b 	.word	0x0800165b
 80015d0:	08001655 	.word	0x08001655
 80015d4:	08001655 	.word	0x08001655
 80015d8:	08001655 	.word	0x08001655
 80015dc:	08001655 	.word	0x08001655
 80015e0:	08001655 	.word	0x08001655
 80015e4:	08001655 	.word	0x08001655
 80015e8:	08001655 	.word	0x08001655
 80015ec:	08001649 	.word	0x08001649
 80015f0:	08001655 	.word	0x08001655
 80015f4:	08001655 	.word	0x08001655
 80015f8:	08001655 	.word	0x08001655
 80015fc:	08001655 	.word	0x08001655
 8001600:	08001655 	.word	0x08001655
 8001604:	08001655 	.word	0x08001655
 8001608:	08001655 	.word	0x08001655
 800160c:	0800163d 	.word	0x0800163d
 8001610:	08001655 	.word	0x08001655
 8001614:	08001655 	.word	0x08001655
 8001618:	08001655 	.word	0x08001655
 800161c:	08001655 	.word	0x08001655
 8001620:	08001655 	.word	0x08001655
 8001624:	08001655 	.word	0x08001655
 8001628:	08001655 	.word	0x08001655
 800162c:	08001631 	.word	0x08001631
  }

  switch (PolyLength)
  {
    case CRC_POLYLENGTH_7B:
      if (msb >= HAL_CRC_LENGTH_7B)
 8001630:	693b      	ldr	r3, [r7, #16]
 8001632:	2b06      	cmp	r3, #6
 8001634:	d913      	bls.n	800165e <HAL_CRCEx_Polynomial_Set+0xd2>
      {
        status =   HAL_ERROR;
 8001636:	2301      	movs	r3, #1
 8001638:	75fb      	strb	r3, [r7, #23]
      }
      break;
 800163a:	e010      	b.n	800165e <HAL_CRCEx_Polynomial_Set+0xd2>
    case CRC_POLYLENGTH_8B:
      if (msb >= HAL_CRC_LENGTH_8B)
 800163c:	693b      	ldr	r3, [r7, #16]
 800163e:	2b07      	cmp	r3, #7
 8001640:	d90f      	bls.n	8001662 <HAL_CRCEx_Polynomial_Set+0xd6>
      {
        status =   HAL_ERROR;
 8001642:	2301      	movs	r3, #1
 8001644:	75fb      	strb	r3, [r7, #23]
      }
      break;
 8001646:	e00c      	b.n	8001662 <HAL_CRCEx_Polynomial_Set+0xd6>
    case CRC_POLYLENGTH_16B:
      if (msb >= HAL_CRC_LENGTH_16B)
 8001648:	693b      	ldr	r3, [r7, #16]
 800164a:	2b0f      	cmp	r3, #15
 800164c:	d90b      	bls.n	8001666 <HAL_CRCEx_Polynomial_Set+0xda>
      {
        status =   HAL_ERROR;
 800164e:	2301      	movs	r3, #1
 8001650:	75fb      	strb	r3, [r7, #23]
      }
      break;
 8001652:	e008      	b.n	8001666 <HAL_CRCEx_Polynomial_Set+0xda>

    case CRC_POLYLENGTH_32B:
      /* no polynomial definition vs. polynomial length issue possible */
      break;
    default:
      status =  HAL_ERROR;
 8001654:	2301      	movs	r3, #1
 8001656:	75fb      	strb	r3, [r7, #23]
      break;
 8001658:	e006      	b.n	8001668 <HAL_CRCEx_Polynomial_Set+0xdc>
      break;
 800165a:	bf00      	nop
 800165c:	e004      	b.n	8001668 <HAL_CRCEx_Polynomial_Set+0xdc>
      break;
 800165e:	bf00      	nop
 8001660:	e002      	b.n	8001668 <HAL_CRCEx_Polynomial_Set+0xdc>
      break;
 8001662:	bf00      	nop
 8001664:	e000      	b.n	8001668 <HAL_CRCEx_Polynomial_Set+0xdc>
      break;
 8001666:	bf00      	nop
  }
  if (status == HAL_OK)
 8001668:	7dfb      	ldrb	r3, [r7, #23]
 800166a:	2b00      	cmp	r3, #0
 800166c:	d10d      	bne.n	800168a <HAL_CRCEx_Polynomial_Set+0xfe>
  {
    /* set generating polynomial */
    WRITE_REG(hcrc->Instance->POL, Pol);
 800166e:	68fb      	ldr	r3, [r7, #12]
 8001670:	681b      	ldr	r3, [r3, #0]
 8001672:	68ba      	ldr	r2, [r7, #8]
 8001674:	615a      	str	r2, [r3, #20]

    /* set generating polynomial size */
    MODIFY_REG(hcrc->Instance->CR, CRC_CR_POLYSIZE, PolyLength);
 8001676:	68fb      	ldr	r3, [r7, #12]
 8001678:	681b      	ldr	r3, [r3, #0]
 800167a:	689b      	ldr	r3, [r3, #8]
 800167c:	f023 0118 	bic.w	r1, r3, #24
 8001680:	68fb      	ldr	r3, [r7, #12]
 8001682:	681b      	ldr	r3, [r3, #0]
 8001684:	687a      	ldr	r2, [r7, #4]
 8001686:	430a      	orrs	r2, r1
 8001688:	609a      	str	r2, [r3, #8]
  }
  /* Return function status */
  return status;
 800168a:	7dfb      	ldrb	r3, [r7, #23]
}
 800168c:	4618      	mov	r0, r3
 800168e:	371c      	adds	r7, #28
 8001690:	46bd      	mov	sp, r7
 8001692:	f85d 7b04 	ldr.w	r7, [sp], #4
 8001696:	4770      	bx	lr

08001698 <HAL_DMA_Abort>:
  * @param  hdma  : pointer to a DMA_HandleTypeDef structure that contains
  *                 the configuration information for the specified DMA Channel.
  * @retval HAL status
  */
HAL_StatusTypeDef HAL_DMA_Abort(DMA_HandleTypeDef *hdma)
{
 8001698:	b480      	push	{r7}
 800169a:	b083      	sub	sp, #12
 800169c:	af00      	add	r7, sp, #0
 800169e:	6078      	str	r0, [r7, #4]
  if(hdma->State != HAL_DMA_STATE_BUSY)
 80016a0:	687b      	ldr	r3, [r7, #4]
 80016a2:	f893 3021 	ldrb.w	r3, [r3, #33]	; 0x21
 80016a6:	2b02      	cmp	r3, #2
 80016a8:	d008      	beq.n	80016bc <HAL_DMA_Abort+0x24>
  {
    /* no transfer ongoing */
    hdma->ErrorCode = HAL_DMA_ERROR_NO_XFER;
 80016aa:	687b      	ldr	r3, [r7, #4]
 80016ac:	2204      	movs	r2, #4
 80016ae:	639a      	str	r2, [r3, #56]	; 0x38
    
    /* Process Unlocked */
    __HAL_UNLOCK(hdma);
 80016b0:	687b      	ldr	r3, [r7, #4]
 80016b2:	2200      	movs	r2, #0
 80016b4:	f883 2020 	strb.w	r2, [r3, #32]
    
    return HAL_ERROR;
 80016b8:	2301      	movs	r3, #1
 80016ba:	e020      	b.n	80016fe <HAL_DMA_Abort+0x66>
  }
  else
  {
    /* Disable DMA IT */
     hdma->Instance->CCR &= ~(DMA_IT_TC | DMA_IT_HT | DMA_IT_TE);
 80016bc:	687b      	ldr	r3, [r7, #4]
 80016be:	681b      	ldr	r3, [r3, #0]
 80016c0:	681a      	ldr	r2, [r3, #0]
 80016c2:	687b      	ldr	r3, [r7, #4]
 80016c4:	681b      	ldr	r3, [r3, #0]
 80016c6:	f022 020e 	bic.w	r2, r2, #14
 80016ca:	601a      	str	r2, [r3, #0]
    
    /* Disable the channel */
    hdma->Instance->CCR &= ~DMA_CCR_EN;
 80016cc:	687b      	ldr	r3, [r7, #4]
 80016ce:	681b      	ldr	r3, [r3, #0]
 80016d0:	681a      	ldr	r2, [r3, #0]
 80016d2:	687b      	ldr	r3, [r7, #4]
 80016d4:	681b      	ldr	r3, [r3, #0]
 80016d6:	f022 0201 	bic.w	r2, r2, #1
 80016da:	601a      	str	r2, [r3, #0]
    
    /* Clear all flags */
    hdma->DmaBaseAddress->IFCR = (DMA_FLAG_GL1 << hdma->ChannelIndex);
 80016dc:	687b      	ldr	r3, [r7, #4]
 80016de:	6c1a      	ldr	r2, [r3, #64]	; 0x40
 80016e0:	687b      	ldr	r3, [r7, #4]
 80016e2:	6bdb      	ldr	r3, [r3, #60]	; 0x3c
 80016e4:	2101      	movs	r1, #1
 80016e6:	fa01 f202 	lsl.w	r2, r1, r2
 80016ea:	605a      	str	r2, [r3, #4]
  }
  /* Change the DMA state*/
  hdma->State = HAL_DMA_STATE_READY; 
 80016ec:	687b      	ldr	r3, [r7, #4]
 80016ee:	2201      	movs	r2, #1
 80016f0:	f883 2021 	strb.w	r2, [r3, #33]	; 0x21
  
  /* Process Unlocked */
  __HAL_UNLOCK(hdma);
 80016f4:	687b      	ldr	r3, [r7, #4]
 80016f6:	2200      	movs	r2, #0
 80016f8:	f883 2020 	strb.w	r2, [r3, #32]
  
  return HAL_OK;
 80016fc:	2300      	movs	r3, #0
}
 80016fe:	4618      	mov	r0, r3
 8001700:	370c      	adds	r7, #12
 8001702:	46bd      	mov	sp, r7
 8001704:	f85d 7b04 	ldr.w	r7, [sp], #4
 8001708:	4770      	bx	lr

0800170a <HAL_DMA_Abort_IT>:
  * @param  hdma  : pointer to a DMA_HandleTypeDef structure that contains
  *                 the configuration information for the specified DMA Stream.
  * @retval HAL status
  */
HAL_StatusTypeDef HAL_DMA_Abort_IT(DMA_HandleTypeDef *hdma)
{  
 800170a:	b580      	push	{r7, lr}
 800170c:	b084      	sub	sp, #16
 800170e:	af00      	add	r7, sp, #0
 8001710:	6078      	str	r0, [r7, #4]
  HAL_StatusTypeDef status = HAL_OK;
 8001712:	2300      	movs	r3, #0
 8001714:	73fb      	strb	r3, [r7, #15]
  
  if(HAL_DMA_STATE_BUSY != hdma->State)
 8001716:	687b      	ldr	r3, [r7, #4]
 8001718:	f893 3021 	ldrb.w	r3, [r3, #33]	; 0x21
 800171c:	2b02      	cmp	r3, #2
 800171e:	d005      	beq.n	800172c <HAL_DMA_Abort_IT+0x22>
  {
    /* no transfer ongoing */
    hdma->ErrorCode = HAL_DMA_ERROR_NO_XFER;
 8001720:	687b      	ldr	r3, [r7, #4]
 8001722:	2204      	movs	r2, #4
 8001724:	639a      	str	r2, [r3, #56]	; 0x38
        
    status = HAL_ERROR;
 8001726:	2301      	movs	r3, #1
 8001728:	73fb      	strb	r3, [r7, #15]
 800172a:	e027      	b.n	800177c <HAL_DMA_Abort_IT+0x72>
  }
  else
  { 
  
    /* Disable DMA IT */
    hdma->Instance->CCR &= ~(DMA_IT_TC | DMA_IT_HT | DMA_IT_TE);
 800172c:	687b      	ldr	r3, [r7, #4]
 800172e:	681b      	ldr	r3, [r3, #0]
 8001730:	681a      	ldr	r2, [r3, #0]
 8001732:	687b      	ldr	r3, [r7, #4]
 8001734:	681b      	ldr	r3, [r3, #0]
 8001736:	f022 020e 	bic.w	r2, r2, #14
 800173a:	601a      	str	r2, [r3, #0]
    
    /* Disable the channel */
    hdma->Instance->CCR &= ~DMA_CCR_EN;
 800173c:	687b      	ldr	r3, [r7, #4]
 800173e:	681b      	ldr	r3, [r3, #0]
 8001740:	681a      	ldr	r2, [r3, #0]
 8001742:	687b      	ldr	r3, [r7, #4]
 8001744:	681b      	ldr	r3, [r3, #0]
 8001746:	f022 0201 	bic.w	r2, r2, #1
 800174a:	601a      	str	r2, [r3, #0]
    
    /* Clear all flags */
    hdma->DmaBaseAddress->IFCR = DMA_FLAG_GL1 << hdma->ChannelIndex;
 800174c:	687b      	ldr	r3, [r7, #4]
 800174e:	6c1a      	ldr	r2, [r3, #64]	; 0x40
 8001750:	687b      	ldr	r3, [r7, #4]
 8001752:	6bdb      	ldr	r3, [r3, #60]	; 0x3c
 8001754:	2101      	movs	r1, #1
 8001756:	fa01 f202 	lsl.w	r2, r1, r2
 800175a:	605a      	str	r2, [r3, #4]
    
    /* Change the DMA state */
    hdma->State = HAL_DMA_STATE_READY;
 800175c:	687b      	ldr	r3, [r7, #4]
 800175e:	2201      	movs	r2, #1
 8001760:	f883 2021 	strb.w	r2, [r3, #33]	; 0x21
    
    /* Process Unlocked */
    __HAL_UNLOCK(hdma);
 8001764:	687b      	ldr	r3, [r7, #4]
 8001766:	2200      	movs	r2, #0
 8001768:	f883 2020 	strb.w	r2, [r3, #32]
    
    /* Call User Abort callback */ 
    if(hdma->XferAbortCallback != NULL)
 800176c:	687b      	ldr	r3, [r7, #4]
 800176e:	6b5b      	ldr	r3, [r3, #52]	; 0x34
 8001770:	2b00      	cmp	r3, #0
 8001772:	d003      	beq.n	800177c <HAL_DMA_Abort_IT+0x72>
    {
      hdma->XferAbortCallback(hdma);
 8001774:	687b      	ldr	r3, [r7, #4]
 8001776:	6b5b      	ldr	r3, [r3, #52]	; 0x34
 8001778:	6878      	ldr	r0, [r7, #4]
 800177a:	4798      	blx	r3
    } 
  }
  return status;
 800177c:	7bfb      	ldrb	r3, [r7, #15]
}
 800177e:	4618      	mov	r0, r3
 8001780:	3710      	adds	r7, #16
 8001782:	46bd      	mov	sp, r7
 8001784:	bd80      	pop	{r7, pc}
	...

08001788 <HAL_GPIO_Init>:
  * @param  GPIO_Init pointer to a GPIO_InitTypeDef structure that contains
  *         the configuration information for the specified GPIO peripheral.
  * @retval None
  */
void HAL_GPIO_Init(GPIO_TypeDef  *GPIOx, GPIO_InitTypeDef *GPIO_Init)
{
 8001788:	b480      	push	{r7}
 800178a:	b087      	sub	sp, #28
 800178c:	af00      	add	r7, sp, #0
 800178e:	6078      	str	r0, [r7, #4]
 8001790:	6039      	str	r1, [r7, #0]
  uint32_t position = 0x00u;
 8001792:	2300      	movs	r3, #0
 8001794:	617b      	str	r3, [r7, #20]
  assert_param(IS_GPIO_ALL_INSTANCE(GPIOx));
  assert_param(IS_GPIO_PIN(GPIO_Init->Pin));
  assert_param(IS_GPIO_MODE(GPIO_Init->Mode));

  /* Configure the port pins */
  while (((GPIO_Init->Pin) >> position) != 0x00u)
 8001796:	e154      	b.n	8001a42 <HAL_GPIO_Init+0x2ba>
  {
    /* Get current io position */
    iocurrent = (GPIO_Init->Pin) & (1uL << position);
 8001798:	683b      	ldr	r3, [r7, #0]
 800179a:	681a      	ldr	r2, [r3, #0]
 800179c:	2101      	movs	r1, #1
 800179e:	697b      	ldr	r3, [r7, #20]
 80017a0:	fa01 f303 	lsl.w	r3, r1, r3
 80017a4:	4013      	ands	r3, r2
 80017a6:	60fb      	str	r3, [r7, #12]

    if (iocurrent != 0x00u)
 80017a8:	68fb      	ldr	r3, [r7, #12]
 80017aa:	2b00      	cmp	r3, #0
 80017ac:	f000 8146 	beq.w	8001a3c <HAL_GPIO_Init+0x2b4>
    {
      /*--------------------- GPIO Mode Configuration ------------------------*/
      /* In case of Output or Alternate function mode selection */
      if(((GPIO_Init->Mode & GPIO_MODE) == MODE_OUTPUT) || ((GPIO_Init->Mode & GPIO_MODE) == MODE_AF))
 80017b0:	683b      	ldr	r3, [r7, #0]
 80017b2:	685b      	ldr	r3, [r3, #4]
 80017b4:	f003 0303 	and.w	r3, r3, #3
 80017b8:	2b01      	cmp	r3, #1
 80017ba:	d005      	beq.n	80017c8 <HAL_GPIO_Init+0x40>
 80017bc:	683b      	ldr	r3, [r7, #0]
 80017be:	685b      	ldr	r3, [r3, #4]
 80017c0:	f003 0303 	and.w	r3, r3, #3
 80017c4:	2b02      	cmp	r3, #2
 80017c6:	d130      	bne.n	800182a <HAL_GPIO_Init+0xa2>
      {
        /* Check the Speed parameter */
        assert_param(IS_GPIO_SPEED(GPIO_Init->Speed));
        /* Configure the IO Speed */
        temp = GPIOx->OSPEEDR;
 80017c8:	687b      	ldr	r3, [r7, #4]
 80017ca:	689b      	ldr	r3, [r3, #8]
 80017cc:	613b      	str	r3, [r7, #16]
        temp &= ~(GPIO_OSPEEDER_OSPEEDR0 << (position * 2u));
 80017ce:	697b      	ldr	r3, [r7, #20]
 80017d0:	005b      	lsls	r3, r3, #1
 80017d2:	2203      	movs	r2, #3
 80017d4:	fa02 f303 	lsl.w	r3, r2, r3
 80017d8:	43db      	mvns	r3, r3
 80017da:	693a      	ldr	r2, [r7, #16]
 80017dc:	4013      	ands	r3, r2
 80017de:	613b      	str	r3, [r7, #16]
        temp |= (GPIO_Init->Speed << (position * 2u));
 80017e0:	683b      	ldr	r3, [r7, #0]
 80017e2:	68da      	ldr	r2, [r3, #12]
 80017e4:	697b      	ldr	r3, [r7, #20]
 80017e6:	005b      	lsls	r3, r3, #1
 80017e8:	fa02 f303 	lsl.w	r3, r2, r3
 80017ec:	693a      	ldr	r2, [r7, #16]
 80017ee:	4313      	orrs	r3, r2
 80017f0:	613b      	str	r3, [r7, #16]
        GPIOx->OSPEEDR = temp;
 80017f2:	687b      	ldr	r3, [r7, #4]
 80017f4:	693a      	ldr	r2, [r7, #16]
 80017f6:	609a      	str	r2, [r3, #8]

        /* Configure the IO Output Type */
        temp = GPIOx->OTYPER;
 80017f8:	687b      	ldr	r3, [r7, #4]
 80017fa:	685b      	ldr	r3, [r3, #4]
 80017fc:	613b      	str	r3, [r7, #16]
        temp &= ~(GPIO_OTYPER_OT_0 << position) ;
 80017fe:	2201      	movs	r2, #1
 8001800:	697b      	ldr	r3, [r7, #20]
 8001802:	fa02 f303 	lsl.w	r3, r2, r3
 8001806:	43db      	mvns	r3, r3
 8001808:	693a      	ldr	r2, [r7, #16]
 800180a:	4013      	ands	r3, r2
 800180c:	613b      	str	r3, [r7, #16]
        temp |= (((GPIO_Init->Mode & OUTPUT_TYPE) >> OUTPUT_TYPE_Pos) << position);
 800180e:	683b      	ldr	r3, [r7, #0]
 8001810:	685b      	ldr	r3, [r3, #4]
 8001812:	091b      	lsrs	r3, r3, #4
 8001814:	f003 0201 	and.w	r2, r3, #1
 8001818:	697b      	ldr	r3, [r7, #20]
 800181a:	fa02 f303 	lsl.w	r3, r2, r3
 800181e:	693a      	ldr	r2, [r7, #16]
 8001820:	4313      	orrs	r3, r2
 8001822:	613b      	str	r3, [r7, #16]
        GPIOx->OTYPER = temp;
 8001824:	687b      	ldr	r3, [r7, #4]
 8001826:	693a      	ldr	r2, [r7, #16]
 8001828:	605a      	str	r2, [r3, #4]
      }

      if((GPIO_Init->Mode & GPIO_MODE) != MODE_ANALOG)
 800182a:	683b      	ldr	r3, [r7, #0]
 800182c:	685b      	ldr	r3, [r3, #4]
 800182e:	f003 0303 	and.w	r3, r3, #3
 8001832:	2b03      	cmp	r3, #3
 8001834:	d017      	beq.n	8001866 <HAL_GPIO_Init+0xde>
      {
        /* Check the Pull parameter */
        assert_param(IS_GPIO_PULL(GPIO_Init->Pull));

        /* Activate the Pull-up or Pull down resistor for the current IO */
        temp = GPIOx->PUPDR;
 8001836:	687b      	ldr	r3, [r7, #4]
 8001838:	68db      	ldr	r3, [r3, #12]
 800183a:	613b      	str	r3, [r7, #16]
        temp &= ~(GPIO_PUPDR_PUPDR0 << (position * 2u));
 800183c:	697b      	ldr	r3, [r7, #20]
 800183e:	005b      	lsls	r3, r3, #1
 8001840:	2203      	movs	r2, #3
 8001842:	fa02 f303 	lsl.w	r3, r2, r3
 8001846:	43db      	mvns	r3, r3
 8001848:	693a      	ldr	r2, [r7, #16]
 800184a:	4013      	ands	r3, r2
 800184c:	613b      	str	r3, [r7, #16]
        temp |= ((GPIO_Init->Pull) << (position * 2u));
 800184e:	683b      	ldr	r3, [r7, #0]
 8001850:	689a      	ldr	r2, [r3, #8]
 8001852:	697b      	ldr	r3, [r7, #20]
 8001854:	005b      	lsls	r3, r3, #1
 8001856:	fa02 f303 	lsl.w	r3, r2, r3
 800185a:	693a      	ldr	r2, [r7, #16]
 800185c:	4313      	orrs	r3, r2
 800185e:	613b      	str	r3, [r7, #16]
        GPIOx->PUPDR = temp;
 8001860:	687b      	ldr	r3, [r7, #4]
 8001862:	693a      	ldr	r2, [r7, #16]
 8001864:	60da      	str	r2, [r3, #12]
      }

      /*--------------------- GPIO Mode Configuration ------------------------*/
      /* In case of Alternate function mode selection */
      if((GPIO_Init->Mode & GPIO_MODE) == MODE_AF)
 8001866:	683b      	ldr	r3, [r7, #0]
 8001868:	685b      	ldr	r3, [r3, #4]
 800186a:	f003 0303 	and.w	r3, r3, #3
 800186e:	2b02      	cmp	r3, #2
 8001870:	d123      	bne.n	80018ba <HAL_GPIO_Init+0x132>
        /* Check the Alternate function parameters */
        assert_param(IS_GPIO_AF_INSTANCE(GPIOx));
        assert_param(IS_GPIO_AF(GPIO_Init->Alternate));

        /* Configure Alternate function mapped with the current IO */
        temp = GPIOx->AFR[position >> 3u];
 8001872:	697b      	ldr	r3, [r7, #20]
 8001874:	08da      	lsrs	r2, r3, #3
 8001876:	687b      	ldr	r3, [r7, #4]
 8001878:	3208      	adds	r2, #8
 800187a:	f853 3022 	ldr.w	r3, [r3, r2, lsl #2]
 800187e:	613b      	str	r3, [r7, #16]
        temp &= ~(0xFu << ((position & 0x07u) * 4u));
 8001880:	697b      	ldr	r3, [r7, #20]
 8001882:	f003 0307 	and.w	r3, r3, #7
 8001886:	009b      	lsls	r3, r3, #2
 8001888:	220f      	movs	r2, #15
 800188a:	fa02 f303 	lsl.w	r3, r2, r3
 800188e:	43db      	mvns	r3, r3
 8001890:	693a      	ldr	r2, [r7, #16]
 8001892:	4013      	ands	r3, r2
 8001894:	613b      	str	r3, [r7, #16]
        temp |= ((GPIO_Init->Alternate) << ((position & 0x07u) * 4u));
 8001896:	683b      	ldr	r3, [r7, #0]
 8001898:	691a      	ldr	r2, [r3, #16]
 800189a:	697b      	ldr	r3, [r7, #20]
 800189c:	f003 0307 	and.w	r3, r3, #7
 80018a0:	009b      	lsls	r3, r3, #2
 80018a2:	fa02 f303 	lsl.w	r3, r2, r3
 80018a6:	693a      	ldr	r2, [r7, #16]
 80018a8:	4313      	orrs	r3, r2
 80018aa:	613b      	str	r3, [r7, #16]
        GPIOx->AFR[position >> 3u] = temp;
 80018ac:	697b      	ldr	r3, [r7, #20]
 80018ae:	08da      	lsrs	r2, r3, #3
 80018b0:	687b      	ldr	r3, [r7, #4]
 80018b2:	3208      	adds	r2, #8
 80018b4:	6939      	ldr	r1, [r7, #16]
 80018b6:	f843 1022 	str.w	r1, [r3, r2, lsl #2]
      }

      /* Configure IO Direction mode (Input, Output, Alternate or Analog) */
      temp = GPIOx->MODER;
 80018ba:	687b      	ldr	r3, [r7, #4]
 80018bc:	681b      	ldr	r3, [r3, #0]
 80018be:	613b      	str	r3, [r7, #16]
      temp &= ~(GPIO_MODER_MODER0 << (position * 2u));
 80018c0:	697b      	ldr	r3, [r7, #20]
 80018c2:	005b      	lsls	r3, r3, #1
 80018c4:	2203      	movs	r2, #3
 80018c6:	fa02 f303 	lsl.w	r3, r2, r3
 80018ca:	43db      	mvns	r3, r3
 80018cc:	693a      	ldr	r2, [r7, #16]
 80018ce:	4013      	ands	r3, r2
 80018d0:	613b      	str	r3, [r7, #16]
      temp |= ((GPIO_Init->Mode & GPIO_MODE) << (position * 2u));
 80018d2:	683b      	ldr	r3, [r7, #0]
 80018d4:	685b      	ldr	r3, [r3, #4]
 80018d6:	f003 0203 	and.w	r2, r3, #3
 80018da:	697b      	ldr	r3, [r7, #20]
 80018dc:	005b      	lsls	r3, r3, #1
 80018de:	fa02 f303 	lsl.w	r3, r2, r3
 80018e2:	693a      	ldr	r2, [r7, #16]
 80018e4:	4313      	orrs	r3, r2
 80018e6:	613b      	str	r3, [r7, #16]
      GPIOx->MODER = temp;
 80018e8:	687b      	ldr	r3, [r7, #4]
 80018ea:	693a      	ldr	r2, [r7, #16]
 80018ec:	601a      	str	r2, [r3, #0]

      /*--------------------- EXTI Mode Configuration ------------------------*/
      /* Configure the External Interrupt or event for the current IO */
      if((GPIO_Init->Mode & EXTI_MODE) != 0x00u)
 80018ee:	683b      	ldr	r3, [r7, #0]
 80018f0:	685b      	ldr	r3, [r3, #4]
 80018f2:	f403 3340 	and.w	r3, r3, #196608	; 0x30000
 80018f6:	2b00      	cmp	r3, #0
 80018f8:	f000 80a0 	beq.w	8001a3c <HAL_GPIO_Init+0x2b4>
      {
        /* Enable SYSCFG Clock */
        __HAL_RCC_SYSCFG_CLK_ENABLE();
 80018fc:	4b58      	ldr	r3, [pc, #352]	; (8001a60 <HAL_GPIO_Init+0x2d8>)
 80018fe:	699b      	ldr	r3, [r3, #24]
 8001900:	4a57      	ldr	r2, [pc, #348]	; (8001a60 <HAL_GPIO_Init+0x2d8>)
 8001902:	f043 0301 	orr.w	r3, r3, #1
 8001906:	6193      	str	r3, [r2, #24]
 8001908:	4b55      	ldr	r3, [pc, #340]	; (8001a60 <HAL_GPIO_Init+0x2d8>)
 800190a:	699b      	ldr	r3, [r3, #24]
 800190c:	f003 0301 	and.w	r3, r3, #1
 8001910:	60bb      	str	r3, [r7, #8]
 8001912:	68bb      	ldr	r3, [r7, #8]

        temp = SYSCFG->EXTICR[position >> 2u];
 8001914:	4a53      	ldr	r2, [pc, #332]	; (8001a64 <HAL_GPIO_Init+0x2dc>)
 8001916:	697b      	ldr	r3, [r7, #20]
 8001918:	089b      	lsrs	r3, r3, #2
 800191a:	3302      	adds	r3, #2
 800191c:	f852 3023 	ldr.w	r3, [r2, r3, lsl #2]
 8001920:	613b      	str	r3, [r7, #16]
        temp &= ~(0x0FuL << (4u * (position & 0x03u)));
 8001922:	697b      	ldr	r3, [r7, #20]
 8001924:	f003 0303 	and.w	r3, r3, #3
 8001928:	009b      	lsls	r3, r3, #2
 800192a:	220f      	movs	r2, #15
 800192c:	fa02 f303 	lsl.w	r3, r2, r3
 8001930:	43db      	mvns	r3, r3
 8001932:	693a      	ldr	r2, [r7, #16]
 8001934:	4013      	ands	r3, r2
 8001936:	613b      	str	r3, [r7, #16]
        temp |= (GPIO_GET_INDEX(GPIOx) << (4u * (position & 0x03u)));
 8001938:	687b      	ldr	r3, [r7, #4]
 800193a:	f1b3 4f90 	cmp.w	r3, #1207959552	; 0x48000000
 800193e:	d019      	beq.n	8001974 <HAL_GPIO_Init+0x1ec>
 8001940:	687b      	ldr	r3, [r7, #4]
 8001942:	4a49      	ldr	r2, [pc, #292]	; (8001a68 <HAL_GPIO_Init+0x2e0>)
 8001944:	4293      	cmp	r3, r2
 8001946:	d013      	beq.n	8001970 <HAL_GPIO_Init+0x1e8>
 8001948:	687b      	ldr	r3, [r7, #4]
 800194a:	4a48      	ldr	r2, [pc, #288]	; (8001a6c <HAL_GPIO_Init+0x2e4>)
 800194c:	4293      	cmp	r3, r2
 800194e:	d00d      	beq.n	800196c <HAL_GPIO_Init+0x1e4>
 8001950:	687b      	ldr	r3, [r7, #4]
 8001952:	4a47      	ldr	r2, [pc, #284]	; (8001a70 <HAL_GPIO_Init+0x2e8>)
 8001954:	4293      	cmp	r3, r2
 8001956:	d007      	beq.n	8001968 <HAL_GPIO_Init+0x1e0>
 8001958:	687b      	ldr	r3, [r7, #4]
 800195a:	4a46      	ldr	r2, [pc, #280]	; (8001a74 <HAL_GPIO_Init+0x2ec>)
 800195c:	4293      	cmp	r3, r2
 800195e:	d101      	bne.n	8001964 <HAL_GPIO_Init+0x1dc>
 8001960:	2304      	movs	r3, #4
 8001962:	e008      	b.n	8001976 <HAL_GPIO_Init+0x1ee>
 8001964:	2305      	movs	r3, #5
 8001966:	e006      	b.n	8001976 <HAL_GPIO_Init+0x1ee>
 8001968:	2303      	movs	r3, #3
 800196a:	e004      	b.n	8001976 <HAL_GPIO_Init+0x1ee>
 800196c:	2302      	movs	r3, #2
 800196e:	e002      	b.n	8001976 <HAL_GPIO_Init+0x1ee>
 8001970:	2301      	movs	r3, #1
 8001972:	e000      	b.n	8001976 <HAL_GPIO_Init+0x1ee>
 8001974:	2300      	movs	r3, #0
 8001976:	697a      	ldr	r2, [r7, #20]
 8001978:	f002 0203 	and.w	r2, r2, #3
 800197c:	0092      	lsls	r2, r2, #2
 800197e:	4093      	lsls	r3, r2
 8001980:	693a      	ldr	r2, [r7, #16]
 8001982:	4313      	orrs	r3, r2
 8001984:	613b      	str	r3, [r7, #16]
        SYSCFG->EXTICR[position >> 2u] = temp;
 8001986:	4937      	ldr	r1, [pc, #220]	; (8001a64 <HAL_GPIO_Init+0x2dc>)
 8001988:	697b      	ldr	r3, [r7, #20]
 800198a:	089b      	lsrs	r3, r3, #2
 800198c:	3302      	adds	r3, #2
 800198e:	693a      	ldr	r2, [r7, #16]
 8001990:	f841 2023 	str.w	r2, [r1, r3, lsl #2]

        /* Clear EXTI line configuration */
        temp = EXTI->IMR;
 8001994:	4b38      	ldr	r3, [pc, #224]	; (8001a78 <HAL_GPIO_Init+0x2f0>)
 8001996:	681b      	ldr	r3, [r3, #0]
 8001998:	613b      	str	r3, [r7, #16]
        temp &= ~(iocurrent);
 800199a:	68fb      	ldr	r3, [r7, #12]
 800199c:	43db      	mvns	r3, r3
 800199e:	693a      	ldr	r2, [r7, #16]
 80019a0:	4013      	ands	r3, r2
 80019a2:	613b      	str	r3, [r7, #16]
        if((GPIO_Init->Mode & EXTI_IT) != 0x00u)
 80019a4:	683b      	ldr	r3, [r7, #0]
 80019a6:	685b      	ldr	r3, [r3, #4]
 80019a8:	f403 3380 	and.w	r3, r3, #65536	; 0x10000
 80019ac:	2b00      	cmp	r3, #0
 80019ae:	d003      	beq.n	80019b8 <HAL_GPIO_Init+0x230>
        {
          temp |= iocurrent;
 80019b0:	693a      	ldr	r2, [r7, #16]
 80019b2:	68fb      	ldr	r3, [r7, #12]
 80019b4:	4313      	orrs	r3, r2
 80019b6:	613b      	str	r3, [r7, #16]
        }
        EXTI->IMR = temp;
 80019b8:	4a2f      	ldr	r2, [pc, #188]	; (8001a78 <HAL_GPIO_Init+0x2f0>)
 80019ba:	693b      	ldr	r3, [r7, #16]
 80019bc:	6013      	str	r3, [r2, #0]

        temp = EXTI->EMR;
 80019be:	4b2e      	ldr	r3, [pc, #184]	; (8001a78 <HAL_GPIO_Init+0x2f0>)
 80019c0:	685b      	ldr	r3, [r3, #4]
 80019c2:	613b      	str	r3, [r7, #16]
        temp &= ~(iocurrent);
 80019c4:	68fb      	ldr	r3, [r7, #12]
 80019c6:	43db      	mvns	r3, r3
 80019c8:	693a      	ldr	r2, [r7, #16]
 80019ca:	4013      	ands	r3, r2
 80019cc:	613b      	str	r3, [r7, #16]
        if((GPIO_Init->Mode & EXTI_EVT) != 0x00u)
 80019ce:	683b      	ldr	r3, [r7, #0]
 80019d0:	685b      	ldr	r3, [r3, #4]
 80019d2:	f403 3300 	and.w	r3, r3, #131072	; 0x20000
 80019d6:	2b00      	cmp	r3, #0
 80019d8:	d003      	beq.n	80019e2 <HAL_GPIO_Init+0x25a>
        {
          temp |= iocurrent;
 80019da:	693a      	ldr	r2, [r7, #16]
 80019dc:	68fb      	ldr	r3, [r7, #12]
 80019de:	4313      	orrs	r3, r2
 80019e0:	613b      	str	r3, [r7, #16]
        }
        EXTI->EMR = temp;
 80019e2:	4a25      	ldr	r2, [pc, #148]	; (8001a78 <HAL_GPIO_Init+0x2f0>)
 80019e4:	693b      	ldr	r3, [r7, #16]
 80019e6:	6053      	str	r3, [r2, #4]

        /* Clear Rising Falling edge configuration */
        temp = EXTI->RTSR;
 80019e8:	4b23      	ldr	r3, [pc, #140]	; (8001a78 <HAL_GPIO_Init+0x2f0>)
 80019ea:	689b      	ldr	r3, [r3, #8]
 80019ec:	613b      	str	r3, [r7, #16]
        temp &= ~(iocurrent);
 80019ee:	68fb      	ldr	r3, [r7, #12]
 80019f0:	43db      	mvns	r3, r3
 80019f2:	693a      	ldr	r2, [r7, #16]
 80019f4:	4013      	ands	r3, r2
 80019f6:	613b      	str	r3, [r7, #16]
        if((GPIO_Init->Mode & TRIGGER_RISING) != 0x00u)
 80019f8:	683b      	ldr	r3, [r7, #0]
 80019fa:	685b      	ldr	r3, [r3, #4]
 80019fc:	f403 1380 	and.w	r3, r3, #1048576	; 0x100000
 8001a00:	2b00      	cmp	r3, #0
 8001a02:	d003      	beq.n	8001a0c <HAL_GPIO_Init+0x284>
        {
          temp |= iocurrent;
 8001a04:	693a      	ldr	r2, [r7, #16]
 8001a06:	68fb      	ldr	r3, [r7, #12]
 8001a08:	4313      	orrs	r3, r2
 8001a0a:	613b      	str	r3, [r7, #16]
        }
        EXTI->RTSR = temp;
 8001a0c:	4a1a      	ldr	r2, [pc, #104]	; (8001a78 <HAL_GPIO_Init+0x2f0>)
 8001a0e:	693b      	ldr	r3, [r7, #16]
 8001a10:	6093      	str	r3, [r2, #8]

        temp = EXTI->FTSR;
 8001a12:	4b19      	ldr	r3, [pc, #100]	; (8001a78 <HAL_GPIO_Init+0x2f0>)
 8001a14:	68db      	ldr	r3, [r3, #12]
 8001a16:	613b      	str	r3, [r7, #16]
        temp &= ~(iocurrent);
 8001a18:	68fb      	ldr	r3, [r7, #12]
 8001a1a:	43db      	mvns	r3, r3
 8001a1c:	693a      	ldr	r2, [r7, #16]
 8001a1e:	4013      	ands	r3, r2
 8001a20:	613b      	str	r3, [r7, #16]
        if((GPIO_Init->Mode & TRIGGER_FALLING) != 0x00u)
 8001a22:	683b      	ldr	r3, [r7, #0]
 8001a24:	685b      	ldr	r3, [r3, #4]
 8001a26:	f403 1300 	and.w	r3, r3, #2097152	; 0x200000
 8001a2a:	2b00      	cmp	r3, #0
 8001a2c:	d003      	beq.n	8001a36 <HAL_GPIO_Init+0x2ae>
        {
          temp |= iocurrent;
 8001a2e:	693a      	ldr	r2, [r7, #16]
 8001a30:	68fb      	ldr	r3, [r7, #12]
 8001a32:	4313      	orrs	r3, r2
 8001a34:	613b      	str	r3, [r7, #16]
        }
        EXTI->FTSR = temp;
 8001a36:	4a10      	ldr	r2, [pc, #64]	; (8001a78 <HAL_GPIO_Init+0x2f0>)
 8001a38:	693b      	ldr	r3, [r7, #16]
 8001a3a:	60d3      	str	r3, [r2, #12]
      }
    }

    position++;
 8001a3c:	697b      	ldr	r3, [r7, #20]
 8001a3e:	3301      	adds	r3, #1
 8001a40:	617b      	str	r3, [r7, #20]
  while (((GPIO_Init->Pin) >> position) != 0x00u)
 8001a42:	683b      	ldr	r3, [r7, #0]
 8001a44:	681a      	ldr	r2, [r3, #0]
 8001a46:	697b      	ldr	r3, [r7, #20]
 8001a48:	fa22 f303 	lsr.w	r3, r2, r3
 8001a4c:	2b00      	cmp	r3, #0
 8001a4e:	f47f aea3 	bne.w	8001798 <HAL_GPIO_Init+0x10>
  }
}
 8001a52:	bf00      	nop
 8001a54:	bf00      	nop
 8001a56:	371c      	adds	r7, #28
 8001a58:	46bd      	mov	sp, r7
 8001a5a:	f85d 7b04 	ldr.w	r7, [sp], #4
 8001a5e:	4770      	bx	lr
 8001a60:	40021000 	.word	0x40021000
 8001a64:	40010000 	.word	0x40010000
 8001a68:	48000400 	.word	0x48000400
 8001a6c:	48000800 	.word	0x48000800
 8001a70:	48000c00 	.word	0x48000c00
 8001a74:	48001000 	.word	0x48001000
 8001a78:	40010400 	.word	0x40010400

08001a7c <HAL_GPIO_WritePin>:
  *            @arg GPIO_PIN_RESET: to clear the port pin
  *            @arg GPIO_PIN_SET: to set the port pin
  * @retval None
  */
void HAL_GPIO_WritePin(GPIO_TypeDef* GPIOx, uint16_t GPIO_Pin, GPIO_PinState PinState)
{
 8001a7c:	b480      	push	{r7}
 8001a7e:	b083      	sub	sp, #12
 8001a80:	af00      	add	r7, sp, #0
 8001a82:	6078      	str	r0, [r7, #4]
 8001a84:	460b      	mov	r3, r1
 8001a86:	807b      	strh	r3, [r7, #2]
 8001a88:	4613      	mov	r3, r2
 8001a8a:	707b      	strb	r3, [r7, #1]
  /* Check the parameters */
  assert_param(IS_GPIO_PIN(GPIO_Pin));
  assert_param(IS_GPIO_PIN_ACTION(PinState));

  if(PinState != GPIO_PIN_RESET)
 8001a8c:	787b      	ldrb	r3, [r7, #1]
 8001a8e:	2b00      	cmp	r3, #0
 8001a90:	d003      	beq.n	8001a9a <HAL_GPIO_WritePin+0x1e>
  {
    GPIOx->BSRR = (uint32_t)GPIO_Pin;
 8001a92:	887a      	ldrh	r2, [r7, #2]
 8001a94:	687b      	ldr	r3, [r7, #4]
 8001a96:	619a      	str	r2, [r3, #24]
  }
  else
  {
    GPIOx->BRR = (uint32_t)GPIO_Pin;
  }
}
 8001a98:	e002      	b.n	8001aa0 <HAL_GPIO_WritePin+0x24>
    GPIOx->BRR = (uint32_t)GPIO_Pin;
 8001a9a:	887a      	ldrh	r2, [r7, #2]
 8001a9c:	687b      	ldr	r3, [r7, #4]
 8001a9e:	629a      	str	r2, [r3, #40]	; 0x28
}
 8001aa0:	bf00      	nop
 8001aa2:	370c      	adds	r7, #12
 8001aa4:	46bd      	mov	sp, r7
 8001aa6:	f85d 7b04 	ldr.w	r7, [sp], #4
 8001aaa:	4770      	bx	lr

08001aac <HAL_I2C_Init>:
  * @param  hi2c Pointer to a I2C_HandleTypeDef structure that contains
  *                the configuration information for the specified I2C.
  * @retval HAL status
  */
HAL_StatusTypeDef HAL_I2C_Init(I2C_HandleTypeDef *hi2c)
{
 8001aac:	b580      	push	{r7, lr}
 8001aae:	b082      	sub	sp, #8
 8001ab0:	af00      	add	r7, sp, #0
 8001ab2:	6078      	str	r0, [r7, #4]
  /* Check the I2C handle allocation */
  if (hi2c == NULL)
 8001ab4:	687b      	ldr	r3, [r7, #4]
 8001ab6:	2b00      	cmp	r3, #0
 8001ab8:	d101      	bne.n	8001abe <HAL_I2C_Init+0x12>
  {
    return HAL_ERROR;
 8001aba:	2301      	movs	r3, #1
 8001abc:	e081      	b.n	8001bc2 <HAL_I2C_Init+0x116>
  assert_param(IS_I2C_OWN_ADDRESS2(hi2c->Init.OwnAddress2));
  assert_param(IS_I2C_OWN_ADDRESS2_MASK(hi2c->Init.OwnAddress2Masks));
  assert_param(IS_I2C_GENERAL_CALL(hi2c->Init.GeneralCallMode));
  assert_param(IS_I2C_NO_STRETCH(hi2c->Init.NoStretchMode));

  if (hi2c->State == HAL_I2C_STATE_RESET)
 8001abe:	687b      	ldr	r3, [r7, #4]
 8001ac0:	f893 3041 	ldrb.w	r3, [r3, #65]	; 0x41
 8001ac4:	b2db      	uxtb	r3, r3
 8001ac6:	2b00      	cmp	r3, #0
 8001ac8:	d106      	bne.n	8001ad8 <HAL_I2C_Init+0x2c>
  {
    /* Allocate lock resource and initialize it */
    hi2c->Lock = HAL_UNLOCKED;
 8001aca:	687b      	ldr	r3, [r7, #4]
 8001acc:	2200      	movs	r2, #0
 8001ace:	f883 2040 	strb.w	r2, [r3, #64]	; 0x40

    /* Init the low level hardware : GPIO, CLOCK, CORTEX...etc */
    hi2c->MspInitCallback(hi2c);
#else
    /* Init the low level hardware : GPIO, CLOCK, CORTEX...etc */
    HAL_I2C_MspInit(hi2c);
 8001ad2:	6878      	ldr	r0, [r7, #4]
 8001ad4:	f7fe fdd8 	bl	8000688 <HAL_I2C_MspInit>
#endif /* USE_HAL_I2C_REGISTER_CALLBACKS */
  }

  hi2c->State = HAL_I2C_STATE_BUSY;
 8001ad8:	687b      	ldr	r3, [r7, #4]
 8001ada:	2224      	movs	r2, #36	; 0x24
 8001adc:	f883 2041 	strb.w	r2, [r3, #65]	; 0x41

  /* Disable the selected I2C peripheral */
  __HAL_I2C_DISABLE(hi2c);
 8001ae0:	687b      	ldr	r3, [r7, #4]
 8001ae2:	681b      	ldr	r3, [r3, #0]
 8001ae4:	681a      	ldr	r2, [r3, #0]
 8001ae6:	687b      	ldr	r3, [r7, #4]
 8001ae8:	681b      	ldr	r3, [r3, #0]
 8001aea:	f022 0201 	bic.w	r2, r2, #1
 8001aee:	601a      	str	r2, [r3, #0]

  /*---------------------------- I2Cx TIMINGR Configuration ------------------*/
  /* Configure I2Cx: Frequency range */
  hi2c->Instance->TIMINGR = hi2c->Init.Timing & TIMING_CLEAR_MASK;
 8001af0:	687b      	ldr	r3, [r7, #4]
 8001af2:	685a      	ldr	r2, [r3, #4]
 8001af4:	687b      	ldr	r3, [r7, #4]
 8001af6:	681b      	ldr	r3, [r3, #0]
 8001af8:	f022 6270 	bic.w	r2, r2, #251658240	; 0xf000000
 8001afc:	611a      	str	r2, [r3, #16]

  /*---------------------------- I2Cx OAR1 Configuration ---------------------*/
  /* Disable Own Address1 before set the Own Address1 configuration */
  hi2c->Instance->OAR1 &= ~I2C_OAR1_OA1EN;
 8001afe:	687b      	ldr	r3, [r7, #4]
 8001b00:	681b      	ldr	r3, [r3, #0]
 8001b02:	689a      	ldr	r2, [r3, #8]
 8001b04:	687b      	ldr	r3, [r7, #4]
 8001b06:	681b      	ldr	r3, [r3, #0]
 8001b08:	f422 4200 	bic.w	r2, r2, #32768	; 0x8000
 8001b0c:	609a      	str	r2, [r3, #8]

  /* Configure I2Cx: Own Address1 and ack own address1 mode */
  if (hi2c->Init.AddressingMode == I2C_ADDRESSINGMODE_7BIT)
 8001b0e:	687b      	ldr	r3, [r7, #4]
 8001b10:	68db      	ldr	r3, [r3, #12]
 8001b12:	2b01      	cmp	r3, #1
 8001b14:	d107      	bne.n	8001b26 <HAL_I2C_Init+0x7a>
  {
    hi2c->Instance->OAR1 = (I2C_OAR1_OA1EN | hi2c->Init.OwnAddress1);
 8001b16:	687b      	ldr	r3, [r7, #4]
 8001b18:	689a      	ldr	r2, [r3, #8]
 8001b1a:	687b      	ldr	r3, [r7, #4]
 8001b1c:	681b      	ldr	r3, [r3, #0]
 8001b1e:	f442 4200 	orr.w	r2, r2, #32768	; 0x8000
 8001b22:	609a      	str	r2, [r3, #8]
 8001b24:	e006      	b.n	8001b34 <HAL_I2C_Init+0x88>
  }
  else /* I2C_ADDRESSINGMODE_10BIT */
  {
    hi2c->Instance->OAR1 = (I2C_OAR1_OA1EN | I2C_OAR1_OA1MODE | hi2c->Init.OwnAddress1);
 8001b26:	687b      	ldr	r3, [r7, #4]
 8001b28:	689a      	ldr	r2, [r3, #8]
 8001b2a:	687b      	ldr	r3, [r7, #4]
 8001b2c:	681b      	ldr	r3, [r3, #0]
 8001b2e:	f442 4204 	orr.w	r2, r2, #33792	; 0x8400
 8001b32:	609a      	str	r2, [r3, #8]
  }

  /*---------------------------- I2Cx CR2 Configuration ----------------------*/
  /* Configure I2Cx: Addressing Master mode */
  if (hi2c->Init.AddressingMode == I2C_ADDRESSINGMODE_10BIT)
 8001b34:	687b      	ldr	r3, [r7, #4]
 8001b36:	68db      	ldr	r3, [r3, #12]
 8001b38:	2b02      	cmp	r3, #2
 8001b3a:	d104      	bne.n	8001b46 <HAL_I2C_Init+0x9a>
  {
    hi2c->Instance->CR2 = (I2C_CR2_ADD10);
 8001b3c:	687b      	ldr	r3, [r7, #4]
 8001b3e:	681b      	ldr	r3, [r3, #0]
 8001b40:	f44f 6200 	mov.w	r2, #2048	; 0x800
 8001b44:	605a      	str	r2, [r3, #4]
  }
  /* Enable the AUTOEND by default, and enable NACK (should be disable only during Slave process */
  hi2c->Instance->CR2 |= (I2C_CR2_AUTOEND | I2C_CR2_NACK);
 8001b46:	687b      	ldr	r3, [r7, #4]
 8001b48:	681b      	ldr	r3, [r3, #0]
 8001b4a:	685b      	ldr	r3, [r3, #4]
 8001b4c:	687a      	ldr	r2, [r7, #4]
 8001b4e:	6812      	ldr	r2, [r2, #0]
 8001b50:	f043 7300 	orr.w	r3, r3, #33554432	; 0x2000000
 8001b54:	f443 4300 	orr.w	r3, r3, #32768	; 0x8000
 8001b58:	6053      	str	r3, [r2, #4]

  /*---------------------------- I2Cx OAR2 Configuration ---------------------*/
  /* Disable Own Address2 before set the Own Address2 configuration */
  hi2c->Instance->OAR2 &= ~I2C_DUALADDRESS_ENABLE;
 8001b5a:	687b      	ldr	r3, [r7, #4]
 8001b5c:	681b      	ldr	r3, [r3, #0]
 8001b5e:	68da      	ldr	r2, [r3, #12]
 8001b60:	687b      	ldr	r3, [r7, #4]
 8001b62:	681b      	ldr	r3, [r3, #0]
 8001b64:	f422 4200 	bic.w	r2, r2, #32768	; 0x8000
 8001b68:	60da      	str	r2, [r3, #12]

  /* Configure I2Cx: Dual mode and Own Address2 */
  hi2c->Instance->OAR2 = (hi2c->Init.DualAddressMode | hi2c->Init.OwnAddress2 | \
 8001b6a:	687b      	ldr	r3, [r7, #4]
 8001b6c:	691a      	ldr	r2, [r3, #16]
 8001b6e:	687b      	ldr	r3, [r7, #4]
 8001b70:	695b      	ldr	r3, [r3, #20]
 8001b72:	ea42 0103 	orr.w	r1, r2, r3
                          (hi2c->Init.OwnAddress2Masks << 8));
 8001b76:	687b      	ldr	r3, [r7, #4]
 8001b78:	699b      	ldr	r3, [r3, #24]
 8001b7a:	021a      	lsls	r2, r3, #8
  hi2c->Instance->OAR2 = (hi2c->Init.DualAddressMode | hi2c->Init.OwnAddress2 | \
 8001b7c:	687b      	ldr	r3, [r7, #4]
 8001b7e:	681b      	ldr	r3, [r3, #0]
 8001b80:	430a      	orrs	r2, r1
 8001b82:	60da      	str	r2, [r3, #12]

  /*---------------------------- I2Cx CR1 Configuration ----------------------*/
  /* Configure I2Cx: Generalcall and NoStretch mode */
  hi2c->Instance->CR1 = (hi2c->Init.GeneralCallMode | hi2c->Init.NoStretchMode);
 8001b84:	687b      	ldr	r3, [r7, #4]
 8001b86:	69d9      	ldr	r1, [r3, #28]
 8001b88:	687b      	ldr	r3, [r7, #4]
 8001b8a:	6a1a      	ldr	r2, [r3, #32]
 8001b8c:	687b      	ldr	r3, [r7, #4]
 8001b8e:	681b      	ldr	r3, [r3, #0]
 8001b90:	430a      	orrs	r2, r1
 8001b92:	601a      	str	r2, [r3, #0]

  /* Enable the selected I2C peripheral */
  __HAL_I2C_ENABLE(hi2c);
 8001b94:	687b      	ldr	r3, [r7, #4]
 8001b96:	681b      	ldr	r3, [r3, #0]
 8001b98:	681a      	ldr	r2, [r3, #0]
 8001b9a:	687b      	ldr	r3, [r7, #4]
 8001b9c:	681b      	ldr	r3, [r3, #0]
 8001b9e:	f042 0201 	orr.w	r2, r2, #1
 8001ba2:	601a      	str	r2, [r3, #0]

  hi2c->ErrorCode = HAL_I2C_ERROR_NONE;
 8001ba4:	687b      	ldr	r3, [r7, #4]
 8001ba6:	2200      	movs	r2, #0
 8001ba8:	645a      	str	r2, [r3, #68]	; 0x44
  hi2c->State = HAL_I2C_STATE_READY;
 8001baa:	687b      	ldr	r3, [r7, #4]
 8001bac:	2220      	movs	r2, #32
 8001bae:	f883 2041 	strb.w	r2, [r3, #65]	; 0x41
  hi2c->PreviousState = I2C_STATE_NONE;
 8001bb2:	687b      	ldr	r3, [r7, #4]
 8001bb4:	2200      	movs	r2, #0
 8001bb6:	631a      	str	r2, [r3, #48]	; 0x30
  hi2c->Mode = HAL_I2C_MODE_NONE;
 8001bb8:	687b      	ldr	r3, [r7, #4]
 8001bba:	2200      	movs	r2, #0
 8001bbc:	f883 2042 	strb.w	r2, [r3, #66]	; 0x42

  return HAL_OK;
 8001bc0:	2300      	movs	r3, #0
}
 8001bc2:	4618      	mov	r0, r3
 8001bc4:	3708      	adds	r7, #8
 8001bc6:	46bd      	mov	sp, r7
 8001bc8:	bd80      	pop	{r7, pc}

08001bca <HAL_I2CEx_ConfigAnalogFilter>:
  *                the configuration information for the specified I2Cx peripheral.
  * @param  AnalogFilter New state of the Analog filter.
  * @retval HAL status
  */
HAL_StatusTypeDef HAL_I2CEx_ConfigAnalogFilter(I2C_HandleTypeDef *hi2c, uint32_t AnalogFilter)
{
 8001bca:	b480      	push	{r7}
 8001bcc:	b083      	sub	sp, #12
 8001bce:	af00      	add	r7, sp, #0
 8001bd0:	6078      	str	r0, [r7, #4]
 8001bd2:	6039      	str	r1, [r7, #0]
  /* Check the parameters */
  assert_param(IS_I2C_ALL_INSTANCE(hi2c->Instance));
  assert_param(IS_I2C_ANALOG_FILTER(AnalogFilter));

  if (hi2c->State == HAL_I2C_STATE_READY)
 8001bd4:	687b      	ldr	r3, [r7, #4]
 8001bd6:	f893 3041 	ldrb.w	r3, [r3, #65]	; 0x41
 8001bda:	b2db      	uxtb	r3, r3
 8001bdc:	2b20      	cmp	r3, #32
 8001bde:	d138      	bne.n	8001c52 <HAL_I2CEx_ConfigAnalogFilter+0x88>
  {
    /* Process Locked */
    __HAL_LOCK(hi2c);
 8001be0:	687b      	ldr	r3, [r7, #4]
 8001be2:	f893 3040 	ldrb.w	r3, [r3, #64]	; 0x40
 8001be6:	2b01      	cmp	r3, #1
 8001be8:	d101      	bne.n	8001bee <HAL_I2CEx_ConfigAnalogFilter+0x24>
 8001bea:	2302      	movs	r3, #2
 8001bec:	e032      	b.n	8001c54 <HAL_I2CEx_ConfigAnalogFilter+0x8a>
 8001bee:	687b      	ldr	r3, [r7, #4]
 8001bf0:	2201      	movs	r2, #1
 8001bf2:	f883 2040 	strb.w	r2, [r3, #64]	; 0x40

    hi2c->State = HAL_I2C_STATE_BUSY;
 8001bf6:	687b      	ldr	r3, [r7, #4]
 8001bf8:	2224      	movs	r2, #36	; 0x24
 8001bfa:	f883 2041 	strb.w	r2, [r3, #65]	; 0x41

    /* Disable the selected I2C peripheral */
    __HAL_I2C_DISABLE(hi2c);
 8001bfe:	687b      	ldr	r3, [r7, #4]
 8001c00:	681b      	ldr	r3, [r3, #0]
 8001c02:	681a      	ldr	r2, [r3, #0]
 8001c04:	687b      	ldr	r3, [r7, #4]
 8001c06:	681b      	ldr	r3, [r3, #0]
 8001c08:	f022 0201 	bic.w	r2, r2, #1
 8001c0c:	601a      	str	r2, [r3, #0]

    /* Reset I2Cx ANOFF bit */
    hi2c->Instance->CR1 &= ~(I2C_CR1_ANFOFF);
 8001c0e:	687b      	ldr	r3, [r7, #4]
 8001c10:	681b      	ldr	r3, [r3, #0]
 8001c12:	681a      	ldr	r2, [r3, #0]
 8001c14:	687b      	ldr	r3, [r7, #4]
 8001c16:	681b      	ldr	r3, [r3, #0]
 8001c18:	f422 5280 	bic.w	r2, r2, #4096	; 0x1000
 8001c1c:	601a      	str	r2, [r3, #0]

    /* Set analog filter bit*/
    hi2c->Instance->CR1 |= AnalogFilter;
 8001c1e:	687b      	ldr	r3, [r7, #4]
 8001c20:	681b      	ldr	r3, [r3, #0]
 8001c22:	6819      	ldr	r1, [r3, #0]
 8001c24:	687b      	ldr	r3, [r7, #4]
 8001c26:	681b      	ldr	r3, [r3, #0]
 8001c28:	683a      	ldr	r2, [r7, #0]
 8001c2a:	430a      	orrs	r2, r1
 8001c2c:	601a      	str	r2, [r3, #0]

    __HAL_I2C_ENABLE(hi2c);
 8001c2e:	687b      	ldr	r3, [r7, #4]
 8001c30:	681b      	ldr	r3, [r3, #0]
 8001c32:	681a      	ldr	r2, [r3, #0]
 8001c34:	687b      	ldr	r3, [r7, #4]
 8001c36:	681b      	ldr	r3, [r3, #0]
 8001c38:	f042 0201 	orr.w	r2, r2, #1
 8001c3c:	601a      	str	r2, [r3, #0]

    hi2c->State = HAL_I2C_STATE_READY;
 8001c3e:	687b      	ldr	r3, [r7, #4]
 8001c40:	2220      	movs	r2, #32
 8001c42:	f883 2041 	strb.w	r2, [r3, #65]	; 0x41

    /* Process Unlocked */
    __HAL_UNLOCK(hi2c);
 8001c46:	687b      	ldr	r3, [r7, #4]
 8001c48:	2200      	movs	r2, #0
 8001c4a:	f883 2040 	strb.w	r2, [r3, #64]	; 0x40

    return HAL_OK;
 8001c4e:	2300      	movs	r3, #0
 8001c50:	e000      	b.n	8001c54 <HAL_I2CEx_ConfigAnalogFilter+0x8a>
  }
  else
  {
    return HAL_BUSY;
 8001c52:	2302      	movs	r3, #2
  }
}
 8001c54:	4618      	mov	r0, r3
 8001c56:	370c      	adds	r7, #12
 8001c58:	46bd      	mov	sp, r7
 8001c5a:	f85d 7b04 	ldr.w	r7, [sp], #4
 8001c5e:	4770      	bx	lr

08001c60 <HAL_I2CEx_ConfigDigitalFilter>:
  *                the configuration information for the specified I2Cx peripheral.
  * @param  DigitalFilter Coefficient of digital noise filter between Min_Data=0x00 and Max_Data=0x0F.
  * @retval HAL status
  */
HAL_StatusTypeDef HAL_I2CEx_ConfigDigitalFilter(I2C_HandleTypeDef *hi2c, uint32_t DigitalFilter)
{
 8001c60:	b480      	push	{r7}
 8001c62:	b085      	sub	sp, #20
 8001c64:	af00      	add	r7, sp, #0
 8001c66:	6078      	str	r0, [r7, #4]
 8001c68:	6039      	str	r1, [r7, #0]

  /* Check the parameters */
  assert_param(IS_I2C_ALL_INSTANCE(hi2c->Instance));
  assert_param(IS_I2C_DIGITAL_FILTER(DigitalFilter));

  if (hi2c->State == HAL_I2C_STATE_READY)
 8001c6a:	687b      	ldr	r3, [r7, #4]
 8001c6c:	f893 3041 	ldrb.w	r3, [r3, #65]	; 0x41
 8001c70:	b2db      	uxtb	r3, r3
 8001c72:	2b20      	cmp	r3, #32
 8001c74:	d139      	bne.n	8001cea <HAL_I2CEx_ConfigDigitalFilter+0x8a>
  {
    /* Process Locked */
    __HAL_LOCK(hi2c);
 8001c76:	687b      	ldr	r3, [r7, #4]
 8001c78:	f893 3040 	ldrb.w	r3, [r3, #64]	; 0x40
 8001c7c:	2b01      	cmp	r3, #1
 8001c7e:	d101      	bne.n	8001c84 <HAL_I2CEx_ConfigDigitalFilter+0x24>
 8001c80:	2302      	movs	r3, #2
 8001c82:	e033      	b.n	8001cec <HAL_I2CEx_ConfigDigitalFilter+0x8c>
 8001c84:	687b      	ldr	r3, [r7, #4]
 8001c86:	2201      	movs	r2, #1
 8001c88:	f883 2040 	strb.w	r2, [r3, #64]	; 0x40

    hi2c->State = HAL_I2C_STATE_BUSY;
 8001c8c:	687b      	ldr	r3, [r7, #4]
 8001c8e:	2224      	movs	r2, #36	; 0x24
 8001c90:	f883 2041 	strb.w	r2, [r3, #65]	; 0x41

    /* Disable the selected I2C peripheral */
    __HAL_I2C_DISABLE(hi2c);
 8001c94:	687b      	ldr	r3, [r7, #4]
 8001c96:	681b      	ldr	r3, [r3, #0]
 8001c98:	681a      	ldr	r2, [r3, #0]
 8001c9a:	687b      	ldr	r3, [r7, #4]
 8001c9c:	681b      	ldr	r3, [r3, #0]
 8001c9e:	f022 0201 	bic.w	r2, r2, #1
 8001ca2:	601a      	str	r2, [r3, #0]

    /* Get the old register value */
    tmpreg = hi2c->Instance->CR1;
 8001ca4:	687b      	ldr	r3, [r7, #4]
 8001ca6:	681b      	ldr	r3, [r3, #0]
 8001ca8:	681b      	ldr	r3, [r3, #0]
 8001caa:	60fb      	str	r3, [r7, #12]

    /* Reset I2Cx DNF bits [11:8] */
    tmpreg &= ~(I2C_CR1_DNF);
 8001cac:	68fb      	ldr	r3, [r7, #12]
 8001cae:	f423 6370 	bic.w	r3, r3, #3840	; 0xf00
 8001cb2:	60fb      	str	r3, [r7, #12]

    /* Set I2Cx DNF coefficient */
    tmpreg |= DigitalFilter << 8U;
 8001cb4:	683b      	ldr	r3, [r7, #0]
 8001cb6:	021b      	lsls	r3, r3, #8
 8001cb8:	68fa      	ldr	r2, [r7, #12]
 8001cba:	4313      	orrs	r3, r2
 8001cbc:	60fb      	str	r3, [r7, #12]

    /* Store the new register value */
    hi2c->Instance->CR1 = tmpreg;
 8001cbe:	687b      	ldr	r3, [r7, #4]
 8001cc0:	681b      	ldr	r3, [r3, #0]
 8001cc2:	68fa      	ldr	r2, [r7, #12]
 8001cc4:	601a      	str	r2, [r3, #0]

    __HAL_I2C_ENABLE(hi2c);
 8001cc6:	687b      	ldr	r3, [r7, #4]
 8001cc8:	681b      	ldr	r3, [r3, #0]
 8001cca:	681a      	ldr	r2, [r3, #0]
 8001ccc:	687b      	ldr	r3, [r7, #4]
 8001cce:	681b      	ldr	r3, [r3, #0]
 8001cd0:	f042 0201 	orr.w	r2, r2, #1
 8001cd4:	601a      	str	r2, [r3, #0]

    hi2c->State = HAL_I2C_STATE_READY;
 8001cd6:	687b      	ldr	r3, [r7, #4]
 8001cd8:	2220      	movs	r2, #32
 8001cda:	f883 2041 	strb.w	r2, [r3, #65]	; 0x41

    /* Process Unlocked */
    __HAL_UNLOCK(hi2c);
 8001cde:	687b      	ldr	r3, [r7, #4]
 8001ce0:	2200      	movs	r2, #0
 8001ce2:	f883 2040 	strb.w	r2, [r3, #64]	; 0x40

    return HAL_OK;
 8001ce6:	2300      	movs	r3, #0
 8001ce8:	e000      	b.n	8001cec <HAL_I2CEx_ConfigDigitalFilter+0x8c>
  }
  else
  {
    return HAL_BUSY;
 8001cea:	2302      	movs	r3, #2
  }
}
 8001cec:	4618      	mov	r0, r3
 8001cee:	3714      	adds	r7, #20
 8001cf0:	46bd      	mov	sp, r7
 8001cf2:	f85d 7b04 	ldr.w	r7, [sp], #4
 8001cf6:	4770      	bx	lr

08001cf8 <HAL_PCD_Init>:
  *         parameters in the PCD_InitTypeDef and initialize the associated handle.
  * @param  hpcd PCD handle
  * @retval HAL status
  */
HAL_StatusTypeDef HAL_PCD_Init(PCD_HandleTypeDef *hpcd)
{
 8001cf8:	b5f0      	push	{r4, r5, r6, r7, lr}
 8001cfa:	b08b      	sub	sp, #44	; 0x2c
 8001cfc:	af06      	add	r7, sp, #24
 8001cfe:	6078      	str	r0, [r7, #4]
  uint8_t i;

  /* Check the PCD handle allocation */
  if (hpcd == NULL)
 8001d00:	687b      	ldr	r3, [r7, #4]
 8001d02:	2b00      	cmp	r3, #0
 8001d04:	d101      	bne.n	8001d0a <HAL_PCD_Init+0x12>
  {
    return HAL_ERROR;
 8001d06:	2301      	movs	r3, #1
 8001d08:	e0d0      	b.n	8001eac <HAL_PCD_Init+0x1b4>
  }

  /* Check the parameters */
  assert_param(IS_PCD_ALL_INSTANCE(hpcd->Instance));

  if (hpcd->State == HAL_PCD_STATE_RESET)
 8001d0a:	687b      	ldr	r3, [r7, #4]
 8001d0c:	f893 32a9 	ldrb.w	r3, [r3, #681]	; 0x2a9
 8001d10:	b2db      	uxtb	r3, r3
 8001d12:	2b00      	cmp	r3, #0
 8001d14:	d106      	bne.n	8001d24 <HAL_PCD_Init+0x2c>
  {
    /* Allocate lock resource and initialize it */
    hpcd->Lock = HAL_UNLOCKED;
 8001d16:	687b      	ldr	r3, [r7, #4]
 8001d18:	2200      	movs	r2, #0
 8001d1a:	f883 22a8 	strb.w	r2, [r3, #680]	; 0x2a8

    /* Init the low level hardware */
    hpcd->MspInitCallback(hpcd);
#else
    /* Init the low level hardware : GPIO, CLOCK, NVIC... */
    HAL_PCD_MspInit(hpcd);
 8001d1e:	6878      	ldr	r0, [r7, #4]
 8001d20:	f7fe fdbc 	bl	800089c <HAL_PCD_MspInit>
#endif /* (USE_HAL_PCD_REGISTER_CALLBACKS) */
  }

  hpcd->State = HAL_PCD_STATE_BUSY;
 8001d24:	687b      	ldr	r3, [r7, #4]
 8001d26:	2203      	movs	r2, #3
 8001d28:	f883 22a9 	strb.w	r2, [r3, #681]	; 0x2a9

  /* Disable the Interrupts */
  __HAL_PCD_DISABLE(hpcd);
 8001d2c:	687b      	ldr	r3, [r7, #4]
 8001d2e:	681b      	ldr	r3, [r3, #0]
 8001d30:	4618      	mov	r0, r3
 8001d32:	f002 fbd5 	bl	80044e0 <USB_DisableGlobalInt>

  /* Init endpoints structures */
  for (i = 0U; i < hpcd->Init.dev_endpoints; i++)
 8001d36:	2300      	movs	r3, #0
 8001d38:	73fb      	strb	r3, [r7, #15]
 8001d3a:	e04c      	b.n	8001dd6 <HAL_PCD_Init+0xde>
  {
    /* Init ep structure */
    hpcd->IN_ep[i].is_in = 1U;
 8001d3c:	7bfb      	ldrb	r3, [r7, #15]
 8001d3e:	6879      	ldr	r1, [r7, #4]
 8001d40:	1c5a      	adds	r2, r3, #1
 8001d42:	4613      	mov	r3, r2
 8001d44:	009b      	lsls	r3, r3, #2
 8001d46:	4413      	add	r3, r2
 8001d48:	00db      	lsls	r3, r3, #3
 8001d4a:	440b      	add	r3, r1
 8001d4c:	3301      	adds	r3, #1
 8001d4e:	2201      	movs	r2, #1
 8001d50:	701a      	strb	r2, [r3, #0]
    hpcd->IN_ep[i].num = i;
 8001d52:	7bfb      	ldrb	r3, [r7, #15]
 8001d54:	6879      	ldr	r1, [r7, #4]
 8001d56:	1c5a      	adds	r2, r3, #1
 8001d58:	4613      	mov	r3, r2
 8001d5a:	009b      	lsls	r3, r3, #2
 8001d5c:	4413      	add	r3, r2
 8001d5e:	00db      	lsls	r3, r3, #3
 8001d60:	440b      	add	r3, r1
 8001d62:	7bfa      	ldrb	r2, [r7, #15]
 8001d64:	701a      	strb	r2, [r3, #0]
    hpcd->IN_ep[i].tx_fifo_num = i;
 8001d66:	7bfa      	ldrb	r2, [r7, #15]
 8001d68:	7bfb      	ldrb	r3, [r7, #15]
 8001d6a:	b298      	uxth	r0, r3
 8001d6c:	6879      	ldr	r1, [r7, #4]
 8001d6e:	4613      	mov	r3, r2
 8001d70:	009b      	lsls	r3, r3, #2
 8001d72:	4413      	add	r3, r2
 8001d74:	00db      	lsls	r3, r3, #3
 8001d76:	440b      	add	r3, r1
 8001d78:	3336      	adds	r3, #54	; 0x36
 8001d7a:	4602      	mov	r2, r0
 8001d7c:	801a      	strh	r2, [r3, #0]
    /* Control until ep is activated */
    hpcd->IN_ep[i].type = EP_TYPE_CTRL;
 8001d7e:	7bfb      	ldrb	r3, [r7, #15]
 8001d80:	6879      	ldr	r1, [r7, #4]
 8001d82:	1c5a      	adds	r2, r3, #1
 8001d84:	4613      	mov	r3, r2
 8001d86:	009b      	lsls	r3, r3, #2
 8001d88:	4413      	add	r3, r2
 8001d8a:	00db      	lsls	r3, r3, #3
 8001d8c:	440b      	add	r3, r1
 8001d8e:	3303      	adds	r3, #3
 8001d90:	2200      	movs	r2, #0
 8001d92:	701a      	strb	r2, [r3, #0]
    hpcd->IN_ep[i].maxpacket = 0U;
 8001d94:	7bfa      	ldrb	r2, [r7, #15]
 8001d96:	6879      	ldr	r1, [r7, #4]
 8001d98:	4613      	mov	r3, r2
 8001d9a:	009b      	lsls	r3, r3, #2
 8001d9c:	4413      	add	r3, r2
 8001d9e:	00db      	lsls	r3, r3, #3
 8001da0:	440b      	add	r3, r1
 8001da2:	3338      	adds	r3, #56	; 0x38
 8001da4:	2200      	movs	r2, #0
 8001da6:	601a      	str	r2, [r3, #0]
    hpcd->IN_ep[i].xfer_buff = 0U;
 8001da8:	7bfa      	ldrb	r2, [r7, #15]
 8001daa:	6879      	ldr	r1, [r7, #4]
 8001dac:	4613      	mov	r3, r2
 8001dae:	009b      	lsls	r3, r3, #2
 8001db0:	4413      	add	r3, r2
 8001db2:	00db      	lsls	r3, r3, #3
 8001db4:	440b      	add	r3, r1
 8001db6:	333c      	adds	r3, #60	; 0x3c
 8001db8:	2200      	movs	r2, #0
 8001dba:	601a      	str	r2, [r3, #0]
    hpcd->IN_ep[i].xfer_len = 0U;
 8001dbc:	7bfa      	ldrb	r2, [r7, #15]
 8001dbe:	6879      	ldr	r1, [r7, #4]
 8001dc0:	4613      	mov	r3, r2
 8001dc2:	009b      	lsls	r3, r3, #2
 8001dc4:	4413      	add	r3, r2
 8001dc6:	00db      	lsls	r3, r3, #3
 8001dc8:	440b      	add	r3, r1
 8001dca:	3340      	adds	r3, #64	; 0x40
 8001dcc:	2200      	movs	r2, #0
 8001dce:	601a      	str	r2, [r3, #0]
  for (i = 0U; i < hpcd->Init.dev_endpoints; i++)
 8001dd0:	7bfb      	ldrb	r3, [r7, #15]
 8001dd2:	3301      	adds	r3, #1
 8001dd4:	73fb      	strb	r3, [r7, #15]
 8001dd6:	7bfa      	ldrb	r2, [r7, #15]
 8001dd8:	687b      	ldr	r3, [r7, #4]
 8001dda:	685b      	ldr	r3, [r3, #4]
 8001ddc:	429a      	cmp	r2, r3
 8001dde:	d3ad      	bcc.n	8001d3c <HAL_PCD_Init+0x44>
  }

  for (i = 0U; i < hpcd->Init.dev_endpoints; i++)
 8001de0:	2300      	movs	r3, #0
 8001de2:	73fb      	strb	r3, [r7, #15]
 8001de4:	e044      	b.n	8001e70 <HAL_PCD_Init+0x178>
  {
    hpcd->OUT_ep[i].is_in = 0U;
 8001de6:	7bfa      	ldrb	r2, [r7, #15]
 8001de8:	6879      	ldr	r1, [r7, #4]
 8001dea:	4613      	mov	r3, r2
 8001dec:	009b      	lsls	r3, r3, #2
 8001dee:	4413      	add	r3, r2
 8001df0:	00db      	lsls	r3, r3, #3
 8001df2:	440b      	add	r3, r1
 8001df4:	f203 1369 	addw	r3, r3, #361	; 0x169
 8001df8:	2200      	movs	r2, #0
 8001dfa:	701a      	strb	r2, [r3, #0]
    hpcd->OUT_ep[i].num = i;
 8001dfc:	7bfa      	ldrb	r2, [r7, #15]
 8001dfe:	6879      	ldr	r1, [r7, #4]
 8001e00:	4613      	mov	r3, r2
 8001e02:	009b      	lsls	r3, r3, #2
 8001e04:	4413      	add	r3, r2
 8001e06:	00db      	lsls	r3, r3, #3
 8001e08:	440b      	add	r3, r1
 8001e0a:	f503 73b4 	add.w	r3, r3, #360	; 0x168
 8001e0e:	7bfa      	ldrb	r2, [r7, #15]
 8001e10:	701a      	strb	r2, [r3, #0]
    /* Control until ep is activated */
    hpcd->OUT_ep[i].type = EP_TYPE_CTRL;
 8001e12:	7bfa      	ldrb	r2, [r7, #15]
 8001e14:	6879      	ldr	r1, [r7, #4]
 8001e16:	4613      	mov	r3, r2
 8001e18:	009b      	lsls	r3, r3, #2
 8001e1a:	4413      	add	r3, r2
 8001e1c:	00db      	lsls	r3, r3, #3
 8001e1e:	440b      	add	r3, r1
 8001e20:	f203 136b 	addw	r3, r3, #363	; 0x16b
 8001e24:	2200      	movs	r2, #0
 8001e26:	701a      	strb	r2, [r3, #0]
    hpcd->OUT_ep[i].maxpacket = 0U;
 8001e28:	7bfa      	ldrb	r2, [r7, #15]
 8001e2a:	6879      	ldr	r1, [r7, #4]
 8001e2c:	4613      	mov	r3, r2
 8001e2e:	009b      	lsls	r3, r3, #2
 8001e30:	4413      	add	r3, r2
 8001e32:	00db      	lsls	r3, r3, #3
 8001e34:	440b      	add	r3, r1
 8001e36:	f503 73bc 	add.w	r3, r3, #376	; 0x178
 8001e3a:	2200      	movs	r2, #0
 8001e3c:	601a      	str	r2, [r3, #0]
    hpcd->OUT_ep[i].xfer_buff = 0U;
 8001e3e:	7bfa      	ldrb	r2, [r7, #15]
 8001e40:	6879      	ldr	r1, [r7, #4]
 8001e42:	4613      	mov	r3, r2
 8001e44:	009b      	lsls	r3, r3, #2
 8001e46:	4413      	add	r3, r2
 8001e48:	00db      	lsls	r3, r3, #3
 8001e4a:	440b      	add	r3, r1
 8001e4c:	f503 73be 	add.w	r3, r3, #380	; 0x17c
 8001e50:	2200      	movs	r2, #0
 8001e52:	601a      	str	r2, [r3, #0]
    hpcd->OUT_ep[i].xfer_len = 0U;
 8001e54:	7bfa      	ldrb	r2, [r7, #15]
 8001e56:	6879      	ldr	r1, [r7, #4]
 8001e58:	4613      	mov	r3, r2
 8001e5a:	009b      	lsls	r3, r3, #2
 8001e5c:	4413      	add	r3, r2
 8001e5e:	00db      	lsls	r3, r3, #3
 8001e60:	440b      	add	r3, r1
 8001e62:	f503 73c0 	add.w	r3, r3, #384	; 0x180
 8001e66:	2200      	movs	r2, #0
 8001e68:	601a      	str	r2, [r3, #0]
  for (i = 0U; i < hpcd->Init.dev_endpoints; i++)
 8001e6a:	7bfb      	ldrb	r3, [r7, #15]
 8001e6c:	3301      	adds	r3, #1
 8001e6e:	73fb      	strb	r3, [r7, #15]
 8001e70:	7bfa      	ldrb	r2, [r7, #15]
 8001e72:	687b      	ldr	r3, [r7, #4]
 8001e74:	685b      	ldr	r3, [r3, #4]
 8001e76:	429a      	cmp	r2, r3
 8001e78:	d3b5      	bcc.n	8001de6 <HAL_PCD_Init+0xee>
  }

  /* Init Device */
  (void)USB_DevInit(hpcd->Instance, hpcd->Init);
 8001e7a:	687b      	ldr	r3, [r7, #4]
 8001e7c:	681b      	ldr	r3, [r3, #0]
 8001e7e:	603b      	str	r3, [r7, #0]
 8001e80:	687e      	ldr	r6, [r7, #4]
 8001e82:	466d      	mov	r5, sp
 8001e84:	f106 0410 	add.w	r4, r6, #16
 8001e88:	cc0f      	ldmia	r4!, {r0, r1, r2, r3}
 8001e8a:	c50f      	stmia	r5!, {r0, r1, r2, r3}
 8001e8c:	6823      	ldr	r3, [r4, #0]
 8001e8e:	602b      	str	r3, [r5, #0]
 8001e90:	1d33      	adds	r3, r6, #4
 8001e92:	cb0e      	ldmia	r3, {r1, r2, r3}
 8001e94:	6838      	ldr	r0, [r7, #0]
 8001e96:	f002 fb3e 	bl	8004516 <USB_DevInit>

  hpcd->USB_Address = 0U;
 8001e9a:	687b      	ldr	r3, [r7, #4]
 8001e9c:	2200      	movs	r2, #0
 8001e9e:	f883 2024 	strb.w	r2, [r3, #36]	; 0x24
  hpcd->State = HAL_PCD_STATE_READY;
 8001ea2:	687b      	ldr	r3, [r7, #4]
 8001ea4:	2201      	movs	r2, #1
 8001ea6:	f883 22a9 	strb.w	r2, [r3, #681]	; 0x2a9
  return HAL_OK;
 8001eaa:	2300      	movs	r3, #0
}
 8001eac:	4618      	mov	r0, r3
 8001eae:	3714      	adds	r7, #20
 8001eb0:	46bd      	mov	sp, r7
 8001eb2:	bdf0      	pop	{r4, r5, r6, r7, pc}

08001eb4 <HAL_RCC_OscConfig>:
  *         supported by this macro. User should request a transition to HSE Off
  *         first and then HSE On or HSE Bypass.
  * @retval HAL status
  */
HAL_StatusTypeDef HAL_RCC_OscConfig(RCC_OscInitTypeDef  *RCC_OscInitStruct)
{
 8001eb4:	b580      	push	{r7, lr}
 8001eb6:	f5ad 7d00 	sub.w	sp, sp, #512	; 0x200
 8001eba:	af00      	add	r7, sp, #0
 8001ebc:	1d3b      	adds	r3, r7, #4
 8001ebe:	6018      	str	r0, [r3, #0]
#if defined(RCC_CFGR_PLLSRC_HSI_PREDIV)
  uint32_t pll_config2;
#endif /* RCC_CFGR_PLLSRC_HSI_PREDIV */

  /* Check Null pointer */
  if(RCC_OscInitStruct == NULL)
 8001ec0:	1d3b      	adds	r3, r7, #4
 8001ec2:	681b      	ldr	r3, [r3, #0]
 8001ec4:	2b00      	cmp	r3, #0
 8001ec6:	d102      	bne.n	8001ece <HAL_RCC_OscConfig+0x1a>
  {
    return HAL_ERROR;
 8001ec8:	2301      	movs	r3, #1
 8001eca:	f000 bef4 	b.w	8002cb6 <HAL_RCC_OscConfig+0xe02>

  /* Check the parameters */
  assert_param(IS_RCC_OSCILLATORTYPE(RCC_OscInitStruct->OscillatorType));

  /*------------------------------- HSE Configuration ------------------------*/ 
  if(((RCC_OscInitStruct->OscillatorType) & RCC_OSCILLATORTYPE_HSE) == RCC_OSCILLATORTYPE_HSE)
 8001ece:	1d3b      	adds	r3, r7, #4
 8001ed0:	681b      	ldr	r3, [r3, #0]
 8001ed2:	681b      	ldr	r3, [r3, #0]
 8001ed4:	f003 0301 	and.w	r3, r3, #1
 8001ed8:	2b00      	cmp	r3, #0
 8001eda:	f000 816a 	beq.w	80021b2 <HAL_RCC_OscConfig+0x2fe>
  {
    /* Check the parameters */
    assert_param(IS_RCC_HSE(RCC_OscInitStruct->HSEState));

    /* When the HSE is used as system clock or clock source for PLL in these cases it is not allowed to be disabled */
    if((__HAL_RCC_GET_SYSCLK_SOURCE() == RCC_SYSCLKSOURCE_STATUS_HSE) 
 8001ede:	4bb3      	ldr	r3, [pc, #716]	; (80021ac <HAL_RCC_OscConfig+0x2f8>)
 8001ee0:	685b      	ldr	r3, [r3, #4]
 8001ee2:	f003 030c 	and.w	r3, r3, #12
 8001ee6:	2b04      	cmp	r3, #4
 8001ee8:	d00c      	beq.n	8001f04 <HAL_RCC_OscConfig+0x50>
       || ((__HAL_RCC_GET_SYSCLK_SOURCE() == RCC_SYSCLKSOURCE_STATUS_PLLCLK) && (__HAL_RCC_GET_PLL_OSCSOURCE() == RCC_PLLSOURCE_HSE)))
 8001eea:	4bb0      	ldr	r3, [pc, #704]	; (80021ac <HAL_RCC_OscConfig+0x2f8>)
 8001eec:	685b      	ldr	r3, [r3, #4]
 8001eee:	f003 030c 	and.w	r3, r3, #12
 8001ef2:	2b08      	cmp	r3, #8
 8001ef4:	d159      	bne.n	8001faa <HAL_RCC_OscConfig+0xf6>
 8001ef6:	4bad      	ldr	r3, [pc, #692]	; (80021ac <HAL_RCC_OscConfig+0x2f8>)
 8001ef8:	685b      	ldr	r3, [r3, #4]
 8001efa:	f403 3380 	and.w	r3, r3, #65536	; 0x10000
 8001efe:	f5b3 3f80 	cmp.w	r3, #65536	; 0x10000
 8001f02:	d152      	bne.n	8001faa <HAL_RCC_OscConfig+0xf6>
 8001f04:	f44f 3300 	mov.w	r3, #131072	; 0x20000
 8001f08:	f8c7 31f0 	str.w	r3, [r7, #496]	; 0x1f0
  uint32_t result;

#if ((defined (__ARM_ARCH_7M__      ) && (__ARM_ARCH_7M__      == 1)) || \
     (defined (__ARM_ARCH_7EM__     ) && (__ARM_ARCH_7EM__     == 1)) || \
     (defined (__ARM_ARCH_8M_MAIN__ ) && (__ARM_ARCH_8M_MAIN__ == 1))    )
   __ASM volatile ("rbit %0, %1" : "=r" (result) : "r" (value) );
 8001f0c:	f8d7 31f0 	ldr.w	r3, [r7, #496]	; 0x1f0
 8001f10:	fa93 f3a3 	rbit	r3, r3
 8001f14:	f8c7 31ec 	str.w	r3, [r7, #492]	; 0x1ec
    result |= value & 1U;
    s--;
  }
  result <<= s;                        /* shift when v's highest bits are zero */
#endif
  return result;
 8001f18:	f8d7 31ec 	ldr.w	r3, [r7, #492]	; 0x1ec
    {
      if((__HAL_RCC_GET_FLAG(RCC_FLAG_HSERDY) != RESET) && (RCC_OscInitStruct->HSEState == RCC_HSE_OFF))
 8001f1c:	fab3 f383 	clz	r3, r3
 8001f20:	b2db      	uxtb	r3, r3
 8001f22:	095b      	lsrs	r3, r3, #5
 8001f24:	b2db      	uxtb	r3, r3
 8001f26:	f043 0301 	orr.w	r3, r3, #1
 8001f2a:	b2db      	uxtb	r3, r3
 8001f2c:	2b01      	cmp	r3, #1
 8001f2e:	d102      	bne.n	8001f36 <HAL_RCC_OscConfig+0x82>
 8001f30:	4b9e      	ldr	r3, [pc, #632]	; (80021ac <HAL_RCC_OscConfig+0x2f8>)
 8001f32:	681b      	ldr	r3, [r3, #0]
 8001f34:	e015      	b.n	8001f62 <HAL_RCC_OscConfig+0xae>
 8001f36:	f44f 3300 	mov.w	r3, #131072	; 0x20000
 8001f3a:	f8c7 31e8 	str.w	r3, [r7, #488]	; 0x1e8
   __ASM volatile ("rbit %0, %1" : "=r" (result) : "r" (value) );
 8001f3e:	f8d7 31e8 	ldr.w	r3, [r7, #488]	; 0x1e8
 8001f42:	fa93 f3a3 	rbit	r3, r3
 8001f46:	f8c7 31e4 	str.w	r3, [r7, #484]	; 0x1e4
 8001f4a:	f44f 3300 	mov.w	r3, #131072	; 0x20000
